:040000000DEF00F010
:0400080011EF1FF0E5
:10001800FF0042EF32F0BDC5D9F4BEC5DAF4DEC444
:10002800D1F5DDC4D2F5050120EE0EF0BD51D9267B
:10003800BE51DA22DEC4C1F5DEC4C2F5DEC4C3F5A2
:10004800DEC4C4F5200EC125CD6F000EC221CE6FCF
:10005800000EC321CF6F000EC421D06F20EE16F022
:10006800BD51D926BE51DA22DE50DE10DE10DE1078
:10007800D8B441EF00F043EF00F04EEF00F0D0515C
:1000880009E1200ECF5DD8A04CEF00F04EEF00F054
:1000980051EF00F0040E19EF02F0FF0ECD15C16FFD
:1000A800010ECE15C26F000ECF15C36F000ED0150E
:1000B800C46FC151C211C311C411D8A466EF00F0B6
:1000C80068EF00F0F0EF01F020EE16F0BD51D926F0
:1000D800BE51DA22DE2A000EDE22DE22DE2220EEE9
:1000E80012F0BD51D926BE51DA22DE50DE10DE10E4
:1000F800DE10D8A482EF00F084EF00F0C2EF00F029
:1001080020EE07F0D151D926D251DA22DEC4C1F54A
:10011800DDC4C2F5C151C36FC251C46FC56BC66B94
:10012800CDC5C7F5CEC5C8F5CFC5C9F5D0C5CAF583
:10013800060EA4EF00F0D890CA33C933C833C733CA
:10014800E82E9FEF00F0C351C75DC451C859C5518F
:10015800C959C651CA59D8A0B4EF00F0B6EF00F09B
:10016800F0EF01F020EE16F0BD51D926BE51DA228B
:10017800DE6ADE6ADE6ADD6A4EEF00F020EE09F024
:10018800D151D926D251DA22DEC4C1F5DDC4C2F577
:10019800FF0EC125C36FFF0EC221C46FCDC5C5F5C3
:1001A800CEC5C6F5CFC5C7F5D0C5C8F50A0EE2EF6E
:1001B80000F0D890C833C733C633C533E82EDDEF17
:1001C80000F0C351C515C96FC451C615CA6F000EDA
:1001D800C715CB6F000EC815CC6FC951CA11CB110A
:1001E800CC11D8A4FAEF00F0FCEF00F0F0EF01F02A
:1001F800BDC57FF5BEC580F520EE12F0BD51D926EC
:10020800BE51DA22DEC481F5DEC482F5DEC483F590
:10021800DEC484F51AEC02F07FC5D3F580C5D4F5A9
:1002280081C5D5F582C5D6F50501D651D511D411AC
:1002380007E1020ED35DD8B024EF01F026EF01F0FC
:1002480029EF01F0020E19EF02F0D3290AE1D429AF
:1002580008E1D52906E1D629D8A435EF01F037EF12
:1002680001F03AEF01F0010E19EF02F020EE17F05D
:10027800D151D926D251DA22DE50D35DDE50D4597D
:10028800DE50D559DE50D659D8A04DEF01F04FEFCA
:1002980001F0C4EF01F0BF51C011D8A456EF01F02E
:1002A80058EF01F064EF01F020EE16F0BD51D926A9
:1002B800BE51DA22DE6ADE6ADE6ADD6A4EEF00F0DF
:1002C800BDC5A0F5BEC5A1F520EE12F0BD51D926D9
:1002D800BE51DA22DEC4A2F5DEC4A3F5DEC4A4F55D
:1002E800DEC4A5F5B5ECD7F0A0C5D3F5A1C5D4F506
:1002F800A2C5D5F5A3C5D6F50501D351D411D5119D
:10030800D611D8A48AEF01F08CEF01F08FEF01F03D
:10031800070E19EF02F0D305D411D511D611D8A4C0
:1003280098EF01F09AEF01F09CEF01F026EF01F051
:10033800D3290AE1D42908E1D52906E1D629D8A488
:10034800A8EF01F0AAEF01F0ACEF01F037EF01F0F0
:10035800D1C574F5D2C575F5D3C576F5D4C577F58D
:10036800D5C578F5D6C579F592EC42F00009D8B430
:10037800C0EF01F0C2EF01F0C4EF01F037EF01F078
:10038800050120EE12F0BD51D926BE51DA22D3C59F
:10039800DEF4D4C5DEF4D5C5DEF4D6C5DEF4D1C5A9
:1003A80011F5D2C512F5D3C513F5D4C514F5D5C5C5
:1003B80015F5D6C516F5DBEC52F0050120EE16F062
:1003C800BD51D926BE51DA2211C5DEF412C5DEF4BC
:1003D80013C5DEF414C5DEF420EE0EF0BD51D926A7
:1003E800BE51DA22CDC5DEF4CEC5DEF4CFC5DEF4CB
:1003F800D0C5DEF4FF0ECD15C16F010ECE15C26F4C
:10040800C151D125C36FC251D221C46F330EC32746
:10041800000EC42320EE1AF0BD51D926BE51DA22AF
:10042800C3C5DEF4C4C5DDF4000E12007FC5D9F4DF
:1004380080C5DAF4DEC497F5DDC498F5050184516A
:100448008311821109E1020E815DD8A02EEF02F01E
:1004580030EF02F045EF02F020EE17F09751D92661
:100468009851DA22DE50815DDE508259DE50835980
:10047800DE508459D8A043EF02F045EF02F04FEF69
:1004880002F0010E916F000E926F000E936F000E36
:10049800946F07EF04F09169926993699469F4EF96
:1004A80003F081C595F582C596F5D8909631866F8B
:1004B8009531856F855195278651962397C574F593
:1004C80098C575F520EE23F09751D9269851DA2270
:1004D800DEC485F5DEC486F5DEC487F5DEC488F59E
:1004E80095C589F596C58AF5090E8B6FD8908A331C
:1004F80089338B2F7AEF02F089518525766F8A51DF
:100508008621776F000E8721786F000E8821796F1A
:1005180041EC53F00009D8B494EF02F096EF02F0E2
:1005280098EF02F007EF04F0FF0E05019515856FAF
:10053800010E9615866F85519725876F86519821EC
:10054800886F330E8725D96E000E8821DA6EDF504A
:10055800896F89518F6F906B954B962B97C574F562
:1005680098C575F520EE23F09751D9269851DA22CF
:10057800DEC485F5DEC486F5DEC487F5DEC488F5FD
:1005880095C589F596C58AF5090E8B6FD8908A337B
:1005980089338B2FCAEF02F089518525766F8A51EE
:1005A8008621776F000E8721786F000E8821796F7A
:1005B80041EC53F00009D8B4E4EF02F0E6EF02F0A2
:1005C800E8EF02F007EF04F0FF0E05019515856FBF
:1005D800010E9615866F85519725876F865198214C
:1005E800886F330E8725D96E000E8821DA6EDF50AA
:1005F800896F89518B6F8A6B8A518F138B51901336
:1006080081B109EF03F00BEF03F013EF03F0FF0ED6
:100618008F158D6F0F0E90158E6F23EF03F08FC51A
:1006280085F590C586F5040E876FD8908633853397
:10063800872F19EF03F085C58DF586C58EF58DC515
:1006480091F58EC592F5936B946B07EF04F097C5FF
:1006580074F598C575F520EE23F09751D926985171
:10066800DA22DEC485F5DEC486F5DEC487F5DEC48D
:1006780088F581C589F582C58AF583C58BF584C55A
:100688008CF58AC589F58BC58AF58CC58BF58C6B7D
:1006980085518925766F86518A21776F87518B21FD
:1006A800786F88518C21796F41EC53F00009D8B4E8
:1006B80060EF03F062EF03F064EF03F007EF04F07C
:1006C80081C585F582C586F5D890050185378637B9
:1006D800FF0E8515876F010E8615886F8751972540
:1006E800896F885198218A6F330E8925056E000E0F
:1006F8008A21066EE8EC68F005C591F506C592F505
:100708000501936B946B07EF04F097C574F598C5D2
:1007180075F520EE23F09751D9269851DA22DEC4D8
:1007280085F5DEC486F5DEC487F5DEC488F581C5A7
:1007380089F582C58AF583C58BF584C58CF5080EC5
:10074800ABEF03F0D8908C338B338A338933E82EA0
:10075800A6EF03F085518925766F86518A21776F38
:1007680087518B21786F88518C21796F41EC53F038
:100778000009D8B4C2EF03F0C4EF03F0C6EF03F0EA
:1007880007EF04F081C585F582C586F50501D89087
:1007980085378637D89085378637FF0E8515876F5A
:1007A800010E8615886F87519725896F8851982182
:1007B8008A6F330E8925056E000E8A21066E1EEC9F
:1007C80057F0FF0E05140501916FFF0E0614926F86
:1007D800FF0E0714936F0F0E0814946F07EF04F0C1
:1007E80097C5D9F498C5DAF4DF50010AD8B455EFA3
:1007F80002F0030AD8B42BEF03F0010AD8B489EF4A
:1008080003F045EF02F091C57FF592C580F593C5D9
:1008180081F594C582F512002BC981F52CC982F5A2
:100828002DC983F52EC984F570C581F571C582F58A
:1008380072C583F573C584F5050184BF26EF04F0FE
:1008480029EF04F0010E2AEF04F0000E806F849F58
:10085800DB0E815D0F0E8259C90E83594D0E8459E6
:10086800D8B039EF04F03BEF04F02AEF05F070C57B
:1008780005F571C506F572C507F573C508F506ECEB
:100888006BF005C589F506C58AF507C58BF508C55A
:100898008CF5000E496E000E4A6E000E4B6E3F0E30
:1008A8004C6E830E176EF90E186E220E196E3F0EDF
:1008B8001A6E89C513F58AC514F58BC515F58CC54F
:1008C80016F5F7ECFBF013C545F514C546F515C547
:1008D80047F516C548F55EECECF045C568F546C524
:1008E80069F547C56AF548C56BF5E2EC49F068C596
:1008F8008DF569C58EF56AC58FF56BC590F58DC503
:1009080005F58EC506F58FC507F590C508F5010EE6
:100918008EEC36F005C585F506C586F507C587F55D
:1009280008C588F5DA0E176E0F0E186EC90E196E07
:100938003F0E1A6E85C513F586C514F587C515F5DE
:1009480088C516F5F7ECFBF013C564F514C565F515
:1009580015C566F516C567F589C560F58AC561F5DB
:100968008BC562F58CC563F50EEC66F060C57CF549
:1009780061C57DF562C57EF563C57FF57CC560F50B
:100988007DC561F57EC562F57FC563F5A30E176E5B
:10099800850E186E880E196E320E1A6E85C513F5FF
:1009A80086C514F587C515F588C516F5F7ECFBF06F
:1009B80013C564F514C565F515C566F516C567F55F
:1009C8000EEC66F074C5D9F475C5DAF4050160C596
:1009D800DEF461C5DEF462C5DEF463C5DEF4805181
:1009E800D8B4F9EF04F0FBEF04F024EF05F074C578
:1009F800D9F475C5DAF4DEC405F5DEC406F5DEC43F
:100A080007F5DEC408F5ACEC69F074C5D9F475C512
:100A1800DAF405C5DEF406C5DEF407C5DEF408C55C
:100A2800DEF48DC576F58EC577F50501761F771F3F
:100A3800764B772B76C570F577C571F5F4EF05F031
:100A48008DC570F58EC571F5F4EF05F070C505F527
:100A580071C506F572C507F573C508F506EC6BF0A8
:100A680005C589F506C58AF507C58BF508C58CF552
:100A7800000E496E000E4A6E000E4B6E3F0E4C6E15
:100A8800830E176EF90E186E220E196E3F0E1A6E2F
:100A980089C513F58AC514F58BC515F58CC516F5EA
:100AA800F7ECFBF013C545F514C546F515C547F534
:100AB80016C548F55EECECF045C568F546C569F520
:100AC80047C56AF548C56BF5E2EC49F068C58DF590
:100AD80069C58EF56AC58FF56BC590F58DC505F5A9
:100AE8008EC506F58FC507F590C508F5010E8EEC85
:100AF80036F005C585F506C586F507C587F508C529
:100B080088F5DA0E176E0F0E186EC90E196E3F0EA5
:100B18001A6E85C513F586C514F587C515F588C5FC
:100B280016F5F7ECFBF013C564F514C565F515C5A6
:100B380066F516C567F589C560F58AC561F58BC583
:100B480062F58CC563F50EEC66F060C57CF561C591
:100B58007DF562C57EF563C57FF57CC560F57DC50D
:100B680061F57EC562F57FC563F5A30E176E850E28
:100B7800186E880E196E320E1A6E85C513F586C565
:100B880014F587C515F588C516F5F7ECFBF013C500
:100B980064F514C565F515C566F516C567F50EEC5B
:100BA80066F060C578F561C579F562C57AF563C503
:100BB8007BF574C5D9F475C5DAF478C5DEF479C562
:100BC800DEF47AC5DEF47BC5DEF405018051D8B4C5
:100BD800F0EF05F0F2EF05F024EF05F0FBEF04F07D
:100BE8001200BE0E0501BD6FFD0EBE6F17EC6DF055
:100BF800000E2C6E000E2D6E700E2E6E430E2F6E94
:100C08000A0E0801FE250501C36FF10E0801FF2138
:100C18000501C46FC3C505F5C4C506F5000E06BEBB
:100C2800FF0E076E086E010E8EEC36F005C530F526
:100C380006C531F507C532F508C533F5CBEC07F025
:100C48002CC56BF92DC56CF92EC56DF92FC56EF93C
:100C5800000E2C6E000E2D6EA00E2E6E430E2F6E03
:100C6800E20E0801FC250501C36FF00E0801FD2105
:100C78000501C46FC3C505F5C4C506F5000E06BE5B
:100C8800FF0E076E086E010E8EEC36F005C530F5C6
:100C980006C531F507C532F508C533F5CBEC07F0C5
:100CA8002CC567F92DC568F92EC569F92FC56AF9EC
:100CB800C39A000E92EC4FF0850EA7EC6DF0000E73
:100CC800A7EC6DF0000EA7EC6DF03F0E0501C36FA9
:100CD800550EE82EFED7C32FFCD7850EA7EC6DF076
:100CE800000EA7EC6DF00501D96F000EA7EC6DF0B2
:100CF8000501DA6FDA51D9C5C3F5C46BC3C5C4F5AC
:100D0800C36BC327000EC423D890C433C333D89011
:100D1800C433C333D890C433C333C3C5CDF5C4C5B6
:100D2800CEF5000E306E000E316E800E326E450E1E
:100D3800336E330E176E330E186E530E196E400E47
:100D48001A6ECDC505F5CEC506F5076A086A000E08
:100D58008EEC36F005C513F506C514F507C515F56F
:100D680008C516F5F7ECFBF013C52CF514C52DF5E1
:100D780015C52EF516C52FF5CBEC07F02CC5D5F506
:100D88002DC5D6F52EC5D7F52FC5D8F5D5C513F57C
:100D9800D6C514F5D7C515F5D8C516F5000E176EC6
:100DA800000E186E7A0E196E440E1A6EF7ECFBF0F0
:100DB80013C5D1F514C5D2F515C5D3F516C5D4F5A7
:100DC800F50EA7EC6DF0000EA7EC6DF00501D96FDC
:100DD800000EA7EC6DF00501DA6FDA51D9C5C3F53D
:100DE800C46BC3C5C4F5C36BC327000EC423D89016
:100DF800C433C333D890C433C333D890C433C33354
:100E0800C3C5CFF5C4C5D0F5000E306E000E316EE7
:100E1800800E326E450E336E330E176E330E186E1B
:100E2800530E196E400E1A6ECFC505F5D0C506F5DE
:100E3800076A086A000E8EEC36F005C513F506C57C
:100E480014F507C515F508C516F5F7ECFBF013C53D
:100E58002CF514C52DF515C52EF516C52FF5CBECBB
:100E680007F02CC5D5F52DC5D6F52EC5D7F52FC558
:100E7800D8F5D5C513F5D6C514F5D7C515F5D8C514
:100E880016F5000E176E000E186E7A0E196E440EC7
:100E98001A6EF7ECFBF013C5C5F514C5C6F515C5F4
:100EA800C7F516C5C8F5040E176EAD0E186E840E7C
:100EB800196E3F0E1A6ED1C564F5D2C565F5D3C556
:100EC80066F5D4C567F5C5C560F5C6C561F5C7C57E
:100ED80062F5C8C563F50EEC66F060C513F561C52B
:100EE80014F562C515F563C516F5F7ECFBF013C5E7
:100EF800C9F514C5CAF515C5CBF516C5CCF5C9C5D0
:100F080045F5CAC546F5CBC547F5CCC548F5000E2D
:100F1800496E800E4A6E880E4B6EC30E4C6E5EECA8
:100F2800ECF0840EA7EC6DF0000EA7EC6DF0000E4F
:100F3800A7EC6DF08BEC70F0C38AD1C505F5D2C56E
:100F480006F5D3C507F5D4C508F5000E096E000EE1
:100F58000A6E000E0B6E000E0C6ED2EC58F0D8A084
:100F6800B8EF07F0BAEF07F0C3EF07F0FB0E050183
:100F7800BD6FFE0EBE6F17EC6DF0CAEF07F0A20E44
:100F88000501BD6FFF0EBE6F17EC6DF012002F50FC
:100F9800800B3C6E2F502F24436E2EAED6EF07F0F9
:100FA800D8EF07F0D9EF07F043804350D8B4DFEF0C
:100FB80007F0E1EF07F0F6EF07F04328D8A4E7EFD2
:100FC80007F0E9EF07F0F1EF07F0000E2C6E000EC6
:100FD8002D6E000E2E6E000E2F6E2E8E000E2F6EB2
:100FE800FEEF07F0000E2C6E000E2D6E000E2E6E1A
:100FF800000E2F6E3350800B3C1A33503324446E4E
:1010080032AE09EF08F00BEF08F00CEF08F044805F
:101018004450D8B412EF08F014EF08F029EF08F0A4
:101028004428D8A41AEF08F01CEF08F024EF08F0C1
:10103800000E306E000E316E000E326E000E336EF2
:10104800328E000E336E31EF08F0000E306E000E57
:10105800316E000E326E000E336E30503110321089
:101068003310D8A43AEF08F03CEF08F054EF08F03A
:10107800000E2C6E000E2D6E000E2E6E000E2F6EC2
:10108800800E2E127F0E2F123C502F122CC52CF5DD
:101098002DC52DF52EC52EF52FC52FF597EF09F087
:1010A8004350D8A45AEF08F05CEF08F066EF08F058
:1010B800000E2C6E000E2D6E000E2E6E000E2F6E82
:1010C80097EF09F0445043C534F5356A345E000E95
:1010D800355A7F0E34243D6E000E35203E6E2CC5E9
:1010E80038F52DC539F52EC53AF52FC53BF5000E57
:1010F8002C6E000E2D6E000E2E6E000E2F6E000E42
:101108003F6E000E406E000E416E000E426E000EE5
:10111800446EC7EF08F04450D8B495EF08F097EF45
:1011280008F0AEEF08F0D890383639363A363B3604
:10113800D8902C362D362E362F3642AEA6EF08F034
:10114800A8EF08F0A9EF08F02C80D8903F36403679
:10115800413642363050385C3150395832503A585E
:1011680033503B58D8A0BBEF08F0BDEF08F0C6EFEE
:1011780008F0428C3050385E3150395A32503A5A61
:1011880033503B5A442A190E4464CDEF08F0CFEF90
:1011980008F08FEF08F0385039103A103B10D8B4E7
:1011A800D8EF08F0DAEF08F0F2EF08F03F80F2EF3E
:1011B80008F0D8902C362D362E362F3642AEE7EF73
:1011C80008F0E9EF08F0EAEF08F02C80D8903F36F5
:1011D8004036413642363D06D8A03E062EAEF7EFE1
:1011E80008F0F9EF08F0DDEF08F0000E446E42AEAB
:1011F80000EF09F002EF09F026EF09F0FF0E3F14A7
:10120800346EFF0E4014356EFF0E4114366E7F0E9D
:101218004214376E3450351036103710D8B417EFE3
:1012280009F019EF09F01DEF09F0010E446E26EFE1
:1012380009F02CA022EF09F024EF09F026EF09F0BD
:1012480019EF09F04450D8B42CEF09F02EEF09F04B
:1012580052EF09F0010E2C26000E2D222E222F22ED
:101268002FA039EF09F03BEF09F052EF09F02CC538
:1012780034F52DC535F52EC536F52FC537F5373478
:10128800373236323532343234C52CF535C52DF582
:1012980036C52EF537C52FF53D4A3E2A3EBE5DEFD1
:1012A80009F03E5008E13D28D8A05DEF09F05FEF56
:1012B80009F06AEF09F0000E3E6E3D68000E2C6ED4
:1012C800000E2D6E000E2E6E000E2F6E3EBE77EFB6
:1012D80009F03E5006E13D04D8B075EF09F077EF0C
:1012E80009F085EF09F0000E3E6E000E3D6E000E0F
:1012F8002C6E000E2D6E000E2E6E000E2F6E000E40
:101308003C6E3DC543F543A08CEF09F08EEF09F024
:1013180091EF09F02E8E92EF09F02E9ED89043306F
:101328002F6E48EF08F0120099C5D9F49AC5DAF47F
:10133800DEC4B1F5DDC4B2F505019E5107E1200E0A
:101348009D5DD8B0AAEF09F0ACEF09F0C3EF09F042
:101358001F0E9B159F6F000E9C15A06F000E9D150C
:10136800A16F000E9E15A26F9F51A011A111A2118D
:10137800D8B4C1EF09F0C3EF09F0C6EF09F0020EC7
:101388005CEF0BF020EE0EF09951D9269A51DA2233
:101398009BC5DEF49CC5DEF49DC5DEF49EC5DEF477
:1013A80020EE06F09951D9269A51DA22DEC4ADF51D
:1013B800DEC4AEF5DEC4AFF5DEC4B0F5AD51AE1196
:1013C800AF11B011D8A4EBEF09F0EDEF09F007EF7A
:1013D8000AF0B1C5D9F4B2C5DAF4020EDF64F7EF4A
:1013E80009F0F9EF09F007EF0AF020EE27F0B15104
:1013F800D926B251DA22DEC4ADF5DEC4AEF5DEC4BC
:10140800AFF5DEC4B0F5AD51AE11AF11B011D8A42F
:1014180010EF0AF012EF0AF05CEF0AF020EE07F086
:10142800B151D926B251DA22DEC49FF5DDC4A0F548
:101438009F51A16FA051A26FA36BA46B9BC5A5F58B
:101448009CC5A6F59DC5A7F59EC5A8F5060E32EF65
:101458000AF0D890A833A733A633A533E82E2DEF8A
:101468000AF0A151A55DA251A659A351A759A451AB
:10147800A859D8A042EF0AF044EF0AF046EF0AF064
:10148800C3EF09F020EE27F0B151D926B251DA2284
:1014980010EE16F09951E1269A51E222DEC4E6F4E4
:1014A800DEC4E6F4DEC4E6F4DEC4E6F4FFEF0AF0D8
:1014B80020EE09F0B151D926B251DA22DEC49FF5E7
:1014C800DDC4A0F59F51A16FA051A26FA36BA46BBF
:1014D800090ED890A137A237A337A437E82E6DEFAD
:1014E8000AF0A1C5A9F5A2C5AAF5A3C5ABF5A4C57F
:1014F800ACF5D3EF0AF099C57FF59AC580F5ADC56F
:1015080081F5AEC582F5AFC583F5B0C584F51AEC93
:1015180002F07FC5ADF580C5AEF581C5AFF582C5D2
:10152800B0F50501AD290AE1AE2908E1AF2906E1C8
:10153800B029D8A4A2EF0AF0A4EF0AF0A7EF0AF0A6
:10154800010E5CEF0BF0B051AF11AE1109E1020EC4
:10155800AD5DD8A0B2EF0AF0B4EF0AF0C3EF09F01E
:1015680020EE17F0B151D926B251DA22DE50AD5D26
:10157800DE50AE59DE50AF59DE50B059D8A0C7EF93
:101588000AF0C9EF0AF0CBEF0AF0C3EF09F0A9514E
:101598009B5FAA519C5BAB519D5BAC519E5BA95173
:1015A8009B5DAA519C59AB519D59AC519E59D8B0DD
:1015B800E0EF0AF0E2EF0AF07FEF0AF0B1C511F5AB
:1015C800B2C512F5ADC513F5AEC514F5AFC515F521
:1015D800B0C516F5DBEC52F0050120EE16F0995176
:1015E800D9269A51DA2211C5DEF412C5DEF413C5E4
:1015F800DEF414C5DEF420EE12F09951D9269A5182
:10160800DA22ADC5DEF4AEC5DEF4AFC5DEF4B0C592
:10161800DEF420EE16F09951D9269A51DA22DE50DE
:10162800DE10DE10DE10D8A41CEF0BF01EEF0BF05E
:1016380020EF0BF0C3EF09F09BC59FF59CC5A0F503
:101648009DC5A1F59EC5A2F50A0E30EF0BF0D89006
:10165800A233A133A0339F33E82E2BEF0BF020EEFB
:1016680016F09951D9269A51DA229F51DE26A051B7
:10167800DE22A151DE22A251DE22FF0E9B159F6FB2
:10168800010E9C15A06F9F51B125A16FA051B221E9
:10169800A26F330EA127000EA22320EE1AF0995153
:1016A800D9269A51DA22A1C5DEF4A2C5DDF4000ECE
:1016B80012000601026F22EE29F1DEC405F5DDC431
:1016C80006F5000E06BEFF0E076E086E010E8EECC4
:1016D80036F005C530F506C531F507C532F508C53C
:1016E80033F506010251020D440EF324D96E0C0E97
:1016F800F420DA6EDEC400F6DDC401F60801A65156
:101708000601005F0801A7510601015B00C605F547
:1017180001C606F5000E06BEFF0E076E086E010E26
:101728008EEC36F005C52CF506C52DF507C52EF54A
:1017380008C52FF5CBEC07F02CC513F52DC514F50E
:101748002EC515F52FC516F5000E176E000E186E6E
:10175800800E196EBF0E1A6EF7ECFBF013C5C5F6B6
:1017680014C5C6F615C5C7F616C5C8F622EE27F184
:10177800DEC405F5DDC406F5000E06BEFF0E076ED5
:10178800086E010E8EEC36F005C530F506C531F54C
:1017980007C532F508C533F506010251020D220EC0
:1017A800F324D96E0C0EF420DA6EDEC400F6DDC424
:1017B80001F60801A4510601005F0801A5510601C0
:1017C800015B00C605F501C606F5000E06BEFF0E54
:1017D800076E086E010E8EEC36F005C52CF506C5B1
:1017E8002DF507C52EF508C52FF5CBEC07F02CC550
:1017F80013F52DC514F52EC515F52FC516F5000ED4
:10180800176E000E186E800E196E3F0E1A6EF7ECEA
:10181800FBF013C5C1F614C5C2F615C5C3F616C547
:10182800C4F625C905F526C906F5000E06BEFF0E45
:10183800076E086E010E8EEC36F005C530F506C54C
:1018480031F507C532F508C533F506010251020D19
:10185800000EF324D96E0C0EF420DA6EDEC400F606
:10186800DDC401F60801A2510601005F0801A35179
:101878000601015B00C605F501C606F5000E06BEA9
:10188800FF0E076E086E010E8EEC36F005C52CF5BE
:1018980006C52DF507C52EF508C52FF5CBEC07F0C5
:1018A8002CC513F52DC514F52EC515F52FC516F540
:1018B800000E176E000E186E800E196E3F0E1A6E0F
:1018C800F7ECFBF013C5BDF614C5BEF615C5BFF69B
:1018D80016C5C0F60501FF05D8A475EF0CF077EF23
:1018E8000CF0FEEF0CF0C5C613F5C6C614F5C7C656
:1018F80015F5C8C616F5CD0E176ECC0E186E1C0E53
:10190800196E410E1A6EF7ECFBF013C503F614C5F9
:1019180004F615C505F616C506F60B0E0501BD6FCE
:101928000E0EBE6F860EBF6FFF0EC06F03C6C1F5E9
:1019380004C6C2F505C6C3F506C6C4F590EC64F046
:10194800C1C613F5C2C614F5C3C615F5C4C616F547
:10195800CD0E176ECC0E186E1C0E196E410E1A6E37
:10196800F7ECFBF013C503F614C504F615C505F628
:1019780016C506F6160E0501BD6F0E0EBE6F860E55
:10198800BF6FFF0EC06F03C6C1F504C6C2F505C61A
:10199800C3F506C6C4F590EC64F0BDC613F5BEC623
:1019A80014F5BFC615F5C0C616F5CD0E176ECC0ECC
:1019B800186E1C0E196E410E1A6EF7ECFBF013C56B
:1019C80003F614C504F615C505F616C506F6210E68
:1019D8000501BD6F0E0EBE6F860EBF6FFF0EC06F86
:1019E80003C6C1F504C6C2F505C6C3F506C6C4F5E7
:1019F80090EC64F01200000E456E020E386407EF9A
:101A08000DF009EF0DF00BEF0DF0000E3A6E3938BE
:101A18000F0B030B466E3940E8423F0B030B476E32
:101A28003950030B486E000E496E38EF0DF0460E24
:101A38004924D96EDA6A050EDA22DF6A51EF0DF011
:101A4800460E4924D96EDA6A050EDA227F0EDF6E59
:101A580051EF0DF0460E4924D96EDA6A050EDA22E6
:101A6800FF0EDF6E51EF0DF0460E4924D96EDA6A8B
:101A7800050EDA22DF50000AD8B41BEF0DF0010A78
:101A8800D8B424EF0DF0030AD8B424EF0DF0010AFE
:101A9800D8B42EEF0DF051EF0DF0492A020E49642B
:101AA80058EF0DF05AEF0DF038EF0DF047C505F57A
:101AB80048C506F5465092EC6EF03A50D8A467EF48
:101AC8000DF069EF0DF0AEEF0DF093EF0DF032C5AC
:101AD8001BF533C51CF534C51DF535C51EF536C5D2
:101AE800F6F437C5F7F4000EF86E240EF76403D049
:101AF8000800F55005D0F6C4E9F4F7C4EAF4EF504D
:101B08001F6E38C520F53AC521F5D6EC1DF0364ACA
:101B1800372A3850060DF3503226F450332236C592
:101B2800F6F437C5F7F4000EF86E240EF76403D008
:101B38000800F55005D0F6C4E9F4F7C4EAF4EF500C
:101B48000009D8A4AAEF0DF0ACEF0DF06BEF0DF083
:101B580096EF0EF038C505F5066A3850080DF3C43F
:101B680007F5F4C408F53EEC6DF005C543F506C568
:101B780044F543C505F544C506F5000E086E120E7A
:101B8800076E3EEC6DF005C541F506C542F5000E41
:101B98000001E86FFC9F000EE86FCC0EF96F190E7C
:101BA800FA6F000EFB6F41C5F7F042C5F8F0B08838
:101BB8009EEC6EF067EF0EF038C50BF545C50CF5D9
:101BC80036C5F6F437C5F7F4000EF86E240EF76440
:101BD80003D00800F55005D0F6C4E9F4F7C4EAF4D8
:101BE800EF5099EC2FF0364A372A3850060DF3C4D7
:101BF8003BF5F4C43CF532503B2633503C22FF0EF3
:101C08003B243D6EFF0E3C203E6E38503B6E3C6AD6
:101C1800D8903B363C36D8903B363C36D8903B364D
:101C28003C3634503B2635503C22FF0E3B243F6E59
:101C3800FF0E3C20406EB0A824EF0EF026EF0EF009
:101C48001FEF0EF0000E0001E86FFC9FCC0EF96F3D
:101C5800190EFA6F000EFB6F4504D8A436EF0EF08C
:101C680038EF0EF03EEF0EF0800EF927020EFA2341
:101C7800000EFB230F0EB01632C508F533C509F563
:101C88003DC50AF53EC50BF534C50CF535C50DF552
:101C98003FC50EF540C50FF5E3EC66F000018AAFCD
:101CA80058EF0EF05AEF0EF052EF0EF0C188000E0A
:101CB800E86FC00EFC6F3850060DF3503226F45012
:101CC8003322010E451A36C5F6F437C5F7F4000E6F
:101CD800F86E240EF76403D00800F55005D0F6C45A
:101CE800E9F4F7C4EAF4EF500009D8A47EEF0EF047
:101CF80080EF0EF0E0EF0DF0B0A885EF0EF087EF63
:101D08000EF080EF0EF000018AAF8DEF0EF08FEF2E
:101D18000EF087EF0EF00F0EB016000EE86FFC9F66
:101D28000DEC6EF0120021EE74F1070EDE6AE80683
:101D3800FDE2000E0501906F7C0E076E050E086E21
:101D48002BEC45F0000E0501916F9151020D7C0EB0
:101D5800F324D96E050EF420DA6EDEC472F5DDC404
:101D680073F59151020D740EF324D96E050EF4200B
:101D7800DA6E7251DE267351DD22912B030E9165C6
:101D8800C8EF0EF0CAEF0EF0A9EF0EF0902B070E79
:101D98009065D1EF0EF0D3EF0EF0A0EF0EF0000E2D
:101DA800916F9151020D740EF324D96E050EF42033
:101DB800DA6EDEC472F5DDC473F5D890733372330E
:101DC800D89073337233D890733372339151020DB4
:101DD800880EF324D96E050EF420DA6E72C5DEF48F
:101DE80073C5DDF4912B030E9165FDEF0EF0FFEF47
:101DF8000EF0D5EF0EF0000E176E000E186EC80E1E
:101E0800196E420E1A6E000E306E000E316E800E84
:101E1800326E450E336E88C505F589C506F5076A25
:101E2800086A000E8EEC36F005C52CF506C52DF5B2
:101E380007C52EF508C52FF5CBEC07F02CC513F513
:101E48002DC514F52EC515F52FC516F5F7ECFBF0C5
:101E580013C584F514C585F515C586F516C587F52A
:101E680084C517F585C518F586C519F587C51AF50A
:101E7800000E496E000E4A6E800E4B6EBF0E4C6E01
:101E88008CC505F58DC506F5076A086A000E8EEC47
:101E980036F005C530F506C531F507C532F508C574
:101EA80033F58EC505F58FC506F5076A086A000E75
:101EB8008EEC36F005C52CF506C52DF507C52EF5B3
:101EC80008C52FF5CBEC07F02CC545F52DC546F513
:101ED8002EC547F52FC548F55EECECF045C513F562
:101EE80046C514F547C515F548C516F5F7ECFBF0DA
:101EF80013C568F514C569F515C56AF516C56BF5FA
:101F0800E2EC49F0050120EE04F07051D926715138
:101F1800DA2268C5DEF469C5DDF420EE04F07051FC
:101F2800D9267151DA22010EDB5009E1330EDE5C4D
:101F3800D8A0A1EF0FF0A3EF0FF026EF10F020EEDE
:101F480004F07051D9267151DA22BC0EDE5C020E03
:101F5800DE58D8B0B2EF0FF0B4EF0FF026EF10F064
:101F68006BC917F56CC918F56DC919F56EC91AF55D
:101F78000A0E8825726FF10E8921736F72C505F5F7
:101F880073C506F5000E06BEFF0E076E086E010E3D
:101F98008EEC36F005C513F506C514F507C515F51D
:101FA80008C516F5F7ECFBF013C568F514C569F517
:101FB80015C56AF516C56BF5E2EC49F070C5D9F49C
:101FC80071C5DAF4050168C5DEF469C5DDF467C9D1
:101FD80017F568C918F569C919F56AC91AF5E20E3D
:101FE8008A25726FF00E8B21736F72C505F573C564
:101FF80006F5000E06BEFF0E076E086E010E8EEC8B
:1020080036F005C513F506C514F507C515F508C559
:1020180016F5F7ECFBF013C568F514C569F515C599
:102028006AF516C56BF5E2EC49F0050120EE02F001
:102038007051D9267151DA2268C5DEF469C5DDF41C
:1020480029EF10F0010E2AEF10F0000E1200750EA5
:10205800076E680EA0EC65F0680AD8B436EF10F089
:1020680038EF10F051EF10F0830E0501BD6FFD0E33
:10207800BE6F17EC6DF0C382C384520E0501C46FA6
:102088002B0EC36F000EE82EFED7C32FFCD7C42F2C
:10209800FAD70000010EBEEF11F0550E0501BD6F15
:1020A800FD0EBE6F17EC6DF06B0E076E800E086E9E
:1020B800680EE8EC6BF0090E0501C46F1E0EC36FC5
:1020C800E40EE82EFED7C32FFCD7C42FFAD70000A2
:1020D800680E076E070E086E680EE8EC6BF0090EC6
:1020E8000501C46F1E0EC36FE40EE82EFED7C32F82
:1020F800FCD7C42FFAD700006B0E076E000E086ECF
:10210800680EE8EC6BF0190E076E1F0E086E680E6D
:10211800E8EC6BF00F0E0601F46F730EF36F1A0EF6
:10212800076E000E086E680EE8EC6BF0000E0801F2
:10213800DB6F000EDA6F030ED96FD40ED86F1B0E4B
:10214800076E000E086E680EE8EC6BF01C0E076E4A
:10215800000E086E680EE8EC6BF0370E076EC00EC6
:10216800086E680EE8EC6BF0380E076E110E086EFC
:10217800680EE8EC6BF0230E076E780E086E680E9A
:10218800E8EC6BF06A0E076E040E086E680EE8EC59
:102198006BF06A0E076E400E086E680EE8EC6BF086
:1021A8005A0E056EC30E066E000E076EBBEC6FF07E
:1021B800000E596EFC0E0901206F540E1F6F010EA0
:1021C800226F680E216FFF0E246F200E236F020E00
:1021D8000801A36F990EA26FFF0EA56FB80EA46F2A
:1021E800F60EA76FAD0EA66F000E0501916F000EDB
:1021F800926F000E936F000E946F9AECE2F091C507
:10220800C5F592C5C6F593C5C7F594C5C8F5000EC2
:10221800176E400E186E800E196E460E1A6EC5C5E2
:1022280013F5C6C514F5C7C515F5C8C516F5F7ECF9
:10223800FBF013C568F514C569F515C56AF516C52B
:102248006BF5E2EC49F0050168510801A227050188
:1022580069510801A323100E0501916FAE0E926F0C
:10226800800E936FBC0E946F9AECE2F091C5C5F5A1
:1022780092C5C6F593C5C7F594C5C8F5000E176E87
:10228800100E186E7F0E196E460E1A6EC5C513F520
:10229800C6C514F5C7C515F5C8C516F5F7ECFBF0A6
:1022A80013C568F514C569F515C56AF516C56BF546
:1022B800E2EC49F0050168510801A42705016951BC
:1022C8000801A523570E0501916FD60E926F110EC6
:1022D800936FBC0E946F9AECE2F091C5C5F592C568
:1022E800C6F593C5C7F594C5C8F5000E176E440E1C
:1022F800186E840E196E460E1A6EC5C513F5C6C53E
:1023080014F5C7C515F5C8C516F5F7ECFBF013C5E8
:1023180068F514C569F515C56AF516C56BF5E2ECDF
:1023280049F0050168510801A65F050169510801D6
:10233800A75B000E09011A6F830E196F000E1C6F40
:10234800830E1B6F000E1E6F830E1D6F400E266FCF
:10235800200E256F3F0E286FC40E276F420E2A6F7E
:10236800220E296FA20E0501BD6FFF0EBE6F17EC7E
:102378006DF0000E1200DFC5D9F4E0C5DAF4DEC452
:10238800E9F5DDC4EAF5E1C5F6F4E2C5F7F4000EB7
:10239800F86E240EF76403D00800F55005D0F6C493
:1023A800E9F4F7C4EAF4EF502F0AD8B4DEEF11F0DD
:1023B800E0EF11F013EF12F0E1C5F6F4E2C5F7F41F
:1023C800000EF86E240EF76403D00800F55005D00F
:1023D800F6C4E9F4F7C4EAF4EF505C0AD8B4F7EFAE
:1023E80011F0F9EF11F013EF12F0050120EE13F0E0
:1023F800E951D926EA51DA2210EE06F0DF51E1263A
:10240800E051E222DEC4E6F4DEC4E6F4DEC4E6F41B
:10241800DEC4E6F450EF12F00501E14BE22BE1C512
:10242800F6F4E2C5F7F4000EF86E240EF76403D054
:102438000800F55005D0F6C4E9F4F7C4EAF4EF5003
:102448002F0AD8B42AEF12F02CEF12F010EF12F086
:10245800E1C5F6F4E2C5F7F4000EF86E240EF76451
:1024680003D00800F55005D0F6C4E9F4F7C4EAF43F
:10247800EF505C0AD8B443EF12F045EF12F010EFBA
:1024880012F0050120EE06F0DF51D926E051DA22DC
:10249800DE6ADE6ADE6ADD6AE1C5F6F4E2C5F7F4F3
:1024A800000EF86E240EF76403D00800F55005D02E
:1024B800F6C4E9F4F7C4EAF4EF500501E36F200E1F
:1024C800E36169EF12F06BEF12F085EF12F020EE86
:1024D80027F0DF51D926E051DA22800EDF6EDFC502
:1024E80099F5E0C59AF5000E9B6F000E9C6F000EE3
:1024F8009D6F000E9E6F98EC09F00501EC6F2EEFB2
:1025080013F0DFC50DF5E0C50EF5E10E0F6E050EF3
:10251800106E97ECE7F00501EC6FEC51D8B497EF2B
:1025280012F099EF12F09BEF12F02EEF13F0DFC5C7
:10253800D7F5E0C5D8F52FEC3CF00501EC6F20EE9F
:1025480027F0DF51D926E051DA22DF50EB6FEC514A
:10255800D8B4B1EF12F0B3EF12F0E3EF12F0040EBB
:10256800EC19D8A4BAEF12F0BCEF12F02EEF13F06A
:10257800EBABC1EF12F0C3EF12F0D8EF12F0EBB5EE
:10258800C8EF12F0CAEF12F0CCEF12F085EF12F09C
:1025980020EE27F0DF51D926E051DA22800EDF6ED7
:1025A800000EEC6F2EEF13F0EBB5DDEF12F0DFEF5E
:1025B80012F02EEF13F0050EEC6F2EEF13F0EBA5D3
:1025C800E8EF12F0EAEF12F0ECEF12F02EEF13F052
:1025D80020EE04F0DF51D926E051DA22DFB8F7EF18
:1025E80012F0F9EF12F0FBEF12F0DFEF12F0E9C58D
:1025F8000CF5EAC50DF520EE0EF0DF51D926E051B5
:10260800DA22DEC4E3F5DDC4E4F5FF0EE315E56F79
:10261800010EE415E66FE551E925E76FE651EA2179
:10262800E86F330EE7250E6E000EE8210F6E4BECB7
:102638005DF0050120EE06F0DF51D926E051DA22DF
:102648000CC5DEF40DC5DEF40EC5DEF40FC5DEF4F0
:1026580085EF12F0EC5112000601046F63EF14F0DD
:10266800C2800A0EE82EFED700D0210E21EC6FF0B2
:10267800AAEC6EF00009D8B444EF13F046EF13F05B
:102688003CEF13F0B5EC6EF005C5DCF806C5DDF8D7
:10269800C290020E0701F46F83EF14F05B0E176E01
:1026A800900E186E3F0E196E400E1A6EDCC805F5B6
:1026B800DDC806F5076A086A000E8EEC36F005C517
:1026C80013F506C514F507C515F508C516F5F7EC95
:1026D800FBF013C500F614C501F615C502F616C5BC
:1026E80003F6F30E176E5D0E186E040E196E400E8B
:1026F8001A6E00C613F501C614F502C615F503C611
:1027080016F5F7ECFBF013C52CF514C52DF515C51A
:102718002EF516C52FF5000E306E000E316E800EA8
:10272800326E450E336ECBEC07F02CC5BCF82DC5C8
:10273800BDF82EC5BEF82FC5BFF8030E0701F46F0C
:1027480083EF14F0CD0E2C6ECC0E2D6E4C0E2E6E2B
:10275800400E2F6EBCC830F5BDC831F5BEC832F585
:10276800BFC833F566EC4AF0D8A0BDEF13F0BFEF51
:1027780013F0C4EF13F0010E0801E46FC7EF13F074
:10278800000E0801E46F040E0701F46F83EF14F0E4
:1027980006010451D8B4D3EF13F0D5EF13F0FCEFD2
:1027A80013F0000E0501BD6F0B0EBE6F620EBF6FFA
:1027B800FE0EC06FBCC8C1F5BDC8C2F5BEC8C3F522
:1027C800BFC8C4F590EC64F0000E336E000E326E94
:1027D800010E356E360E346E000E366E0B0E376EE9
:1027E800010E386E3C0E396E010E3A6EFFEC0CF09D
:1027F800050E0701F46F83EF14F0000E0501BD6F9D
:102808000B0EBE6F8C0EBF6FFF0EC06FBCC8C1F53C
:10281800BDC8C2F5BEC8C3F5BFC8C4F590EC64F026
:10282800000E336E180E326E010E356E360E346E93
:10283800000E366E0B0E376E010E386E3C0E396E7A
:10284800010E3A6EFFEC0CF0060E0701F46F83EFF1
:1028580014F0CFBA32EF14F034EF14F04AEF14F05A
:10286800000E336E3C0E326E010E356E360E346E2F
:10287800A70E366EFF0E376E010E386E300E396EAB
:10288800010E3A6EFFEC0CF05EEF14F0000E336EA2
:102898003C0E326E010E356E360E346E410E366EBB
:1028A800FB0E376E010E386E000E396E010E3A6E51
:1028B800FFEC0CF0000E0701F46F83EF14F0070132
:1028C800F451000AD8B434EF13F0010AD8B434EF45
:1028D80013F0030AD8B452EF13F0010AD8B4A6EFE4
:1028E80013F0070AD8B4CCEF13F0010AD8B401EFFB
:1028F80014F0030AD8B42DEF14F083EF14F0060196
:102908000405D8A48AEF14F08CEF14F095EF14F0B6
:102918000701F451D8A493EF14F095EF14F032EFB7
:1029280013F01200000E526E000E536EEBEF15F00E
:102938005350080DF3C460F5F4C461F50501605106
:102948004F24626F61515020636F62C5F6F463C50E
:10295800F7F4000EF86E240EF76407D00900F5C4EA
:1029680064F50900F5C465F508D0F6C4E9F4F7C4C0
:10297800EAF4EEC464F5EEC465F5050164514B5CF8
:1029880065514C58D8A0CBEF14F0CDEF14F0EAEF16
:1029980015F05350080DF3C460F5F4C461F56051A7
:1029A8004F24626F61515020636F040E6227000E3E
:1029B800632362C5F6F463C5F7F4000EF86E240EBF
:1029C800F76407D00900F5C464F50900F5C465F596
:1029D80008D0F6C4E9F4F7C4EAF4EEC464F5EEC42A
:1029E80065F55350080DF3C466F5F4C467F50501A1
:1029F80066514F24686F67515020696F68C5F6F4B7
:102A080069C5F7F4000EF86E240EF76407D00900C4
:102A1800F5C46AF50900F5C46BF508D0F6C4E9F405
:102A2800F7C4EAF4EEC46AF5EEC46BF50501645127
:102A38006A256C6F65516B216D6F4B506C5D4C5006
:102A48006D59D8A02AEF15F02CEF15F0EAEF15F024
:102A58005350080DF3C460F5F4C461F560514F2478
:102A6800626F61515020636F020E6227000E63236C
:102A780062C5F6F463C5F7F4000EF86E240EF76429
:102A880007D00900F5C464F50900F5C465F508D058
:102A9800F6C4E9F4F7C4EAF4EEC464F5EEC465F5E7
:102AA800050164514D5C65514E58D8A05EEF15F094
:102AB80060EF15F0EAEF15F05350080DF3C460F518
:102AC800F4C461F560514F24626F61515020636F07
:102AD800060E6227000E632362C5F6F463C5F7F499
:102AE800000EF86E240EF76407D00900F5C464F5EB
:102AF8000900F5C465F508D0F6C4E9F4F7C4EAF4AA
:102B0800EEC464F5EEC465F55350080DF3C466F5DC
:102B1800F4C467F5050166514F24686F675150206A
:102B2800696F020E6827000E692368C5F6F469C547
:102B3800F7F4000EF86E240EF76407D00900F5C408
:102B48006AF50900F5C46BF508D0F6C4E9F4F7C4D2
:102B5800EAF4EEC46AF5EEC46BF5050164516A2522
:102B68006C6F65516B216D6F4D506C5D4E506D599A
:102B7800D8A0C1EF15F0C3EF15F0EAEF15F053C573
:102B880052F5010E1E6E4FC51FF550C520F551C5F3
:102B980021F552509BEC1CF0090E0501616F1E0EC9
:102BA800606FE40EE82EFED7602FFCD7612FFAD7AE
:102BB8000000000E1E6E4FC51FF550C520F551C50B
:102BC80021F552509BEC1CF0F4EF15F0532A5150AC
:102BD800535CD8A0F2EF15F0F4EF15F09CEF14F069
:102BE80052501200000E066E060E056E62EC6EF074
:102BF8000601FE6FFEBF03EF16F005EF16F00FEFAC
:102C080016F0FE51800A1C0FD8A00DEF16F00FEF3A
:102C180016F011EF16F00A0EFE6F000E066E070E84
:102C2800056E62EC6EF0576E57500601F76FF86B41
:102C3800000E066E080E056E62EC6EF00601F827AF
:102C4800F8BF29EF16F02BEF16F039EF16F0F8BFA2
:102C580037EF16F0E80EF75D030EF859D8A037EFF6
:102C680016F039EF16F03DEF16F0000EF86F000E73
:102C7800F76F000E066E090E056E62EC6EF0060127
:102C8800FD6FFD51D8B44BEF16F04DEF16F055EF30
:102C980016F0100EFD6553EF16F055EF16F057EFCE
:102CA80016F0010EFD6F000E066E0A0E056E62EC40
:102CB8006EF0576E57500601F96FFA6B000E066EEC
:102CC8000B0E056E62EC6EF00601FA27FABF76EF7E
:102CD80016F0FA5109E1640EF95DD8A076EF16F006
:102CE80078EF16F086EF16F0FABF84EF16F0F50EBF
:102CF800F95D010EFA59D8A084EF16F086EF16F0A8
:102D08008AEF16F0010EFA6F180EF96F000E066EB4
:102D18000C0E056E62EC6EF00601FC6FFC51D8B427
:102D280098EF16F09AEF16F0A2EF16F0080EFC6571
:102D3800A0EF16F0A2EF16F0A4EF16F0010EFC6F4C
:102D4800000E066E0D0E056E62EC6EF0576E575053
:102D58000601F56FF66B000E066E0E0E056E62EC40
:102D68006EF00601F627F6BFBCEF16F0BEEF16F0C0
:102D7800CCEF16F0F6BFCAEF16F0590EF55D020E4D
:102D8800F659D8A0CAEF16F0CCEF16F0D0EF16F02F
:102D9800000EF66F960EF56F000E066E0F0E056E9E
:102DA80062EC6EF00801FB6FFB51D8B4DEEF16F051
:102DB800E0EF16F0E8EF16F0020EFB65E6EF16F00E
:102DC800E8EF16F0EAEF16F0010EFB6F000E066E44
:102DD800100E056E62EC6EF00801FA6FFA51800A67
:102DE800A80FD8A0FAEF16F0FCEF16F006EF17F0D0
:102DF800FA51800A5C0FD8A004EF17F006EF17F01D
:102E080008EF17F0F10EFA6F000E066E110E056E40
:102E180062EC6EF00801F96FF951800A620FD8A0D0
:102E280018EF17F01AEF17F024EF17F0F951800A8E
:102E3800070FD8A022EF17F024EF17F026EF17F0AE
:102E48004A0EF96F000E066E120E056E62EC6EF0F9
:102E5800576E57500801F76FF86B000E066E130E89
:102E6800056E62EC6EF00801F827F8BF3EEF17F028
:102E780040EF17F04EEF17F0F8BF4CEF17F0F8518E
:102E880009E1FB0EF75DD8A04CEF17F04EEF17F0F5
:102E980052EF17F0000EF86F5A0EF76FFBEC33F095
:102EA8001200C1EC5FF0DBEC6FF027EC67F0190E55
:102EB8000A01D36F5A0ED26FB10EE82EFED7D22F69
:102EC800FCD7D32FFAD700D0CEB86DEF17F06FEF3D
:102ED80017F071EF17F0C39EC38CC382C384110E21
:102EE8000A01D36F3C0ED26FCB0EE82EFED7D22F3D
:102EF800FCD7D32FFAD7C080820E056EE00E066E7F
:102F0800000E076EADEC6FF027EC59F0D68E000E70
:102F18000601E16F000EE66F000E0801E46F9DECFC
:102F280055F0030E066EE80E056ED0EC6BF0F5EC6E
:102F380005F0E8EC4AF00009D8A4A5EF17F0A8EFCF
:102F480017F0010EA9EF17F0000E0801E76F0DEC5E
:102F580052F00009D8A4B3EF17F0B6EF17F0010E3E
:102F6800B7EF17F0000E0801E66F2BEC10F0080120
:102F7800E56FEEEC67F07AEC5EF0010E30EC13F0E2
:102F8800010EFDECE9F0010E56EC1BF0FD0E0501FB
:102F9800BD6FF90EBE6F17EC6DF0C70E0501BD6F62
:102FA800FA0EBE6F17EC6DF0850E0501BD6FFA0EB7
:102FB800BE6F17EC6DF0CA0E0501BD6FFC0EBE6F3B
:102FC800FA0EBF6FF50EC06F17EC6DF09B0E050182
:102FD800BD6FFA0EBE6F17EC6DF06F0E0501BD6F79
:102FE800FA0EBE6F17EC6DF0B10E0501BD6FFA0E4B
:102FF800BE6F17EC6DF0C70E0501BD6FFA0EBE6F00
:1030080017EC6DF0A6EC51F0C392C3941FEC33F0AB
:10301800F4EC5BF00009D8A414EF18F016EF18F0E0
:103028001BEF18F0010E0601E56F67EF18F0000EB0
:103038000601E56F000E0501BD6F0B0EBE6FDA0EBF
:10304800BF6FFD0EC06F90EC64F0000E336E0A0E79
:10305800326E000E356E5F0E346E000E366E0B0E3D
:10306800376E010E386E330E396E000E3A6EFFEC75
:103078000CF0000E0601DF6FC382C384190E0A012B
:10308800D36F5A0ED26FB10EE82EFED7D22FFCD7CF
:10309800D32FFAD700D0C392C394110E0A01D36F6D
:1030A8003C0ED26FCB0EE82EFED7D22FFCD7D32FF3
:1030B800FAD70601DF2B030EDF6565EF18F067EF1F
:1030C80018F040EF18F0CEA86CEF18F06EEF18F07B
:1030D80067EF18F0000E0601E16FDDEC6EF0F6EC1C
:1030E80015F03CEC5CF0000E0601DF6F020E0A01E1
:1030F800D36F380ED26FAD0EE82EFED7D22FFCD785
:10310800D32FFAD7010EEAEC41F05EEC5BF0C9EC84
:103118006FF00601DF2BC70EDF6595EF18F097EF0C
:1031280018F07AEF18F06AEC67F024EC3FF079ECCD
:1031380059F000EC80F00601E46F000EEAEC41F073
:103148000601E451D8A4ABEF18F0ADEF18F09DEFED
:1031580018F0B7EC4EF09DEF18F00DEF00F0E4EF2B
:1031680019F00601D55183EC5CF00009D8B4BFEF23
:1031780018F0C1EF18F0FAEF18F0020E0601FB196B
:10318800D8A4C9EF18F0CBEF18F0DFEF18F0B00EA5
:103198000501BD6FFD0EBE6FA60E0601D525D96EC1
:1031A800DA6A0D0EDA22DF500501D26FD251BF6FF5
:1031B800C06B17EC6DF0A60E0601D525D96EDA6A3C
:1031C8000D0EDA22420EDE18D8A4EDEF18F0EFEF5C
:1031D80018F0F5EF18F0D52B010E0701E76F07EF90
:1031E8001AF0000ED56F000E0701E76F010E0501FA
:1031F800D66F07EF1AF00601D55183EC5CF0000991
:10320800D8B409EF19F00BEF19F0FAEF18F0A60E81
:103218000601D525D96EDA6A0D0EDA22490EDE18B6
:10322800D8A419EF19F01BEF19F0F5EF18F0D52B0A
:10323800020E0701E76F07EF1AF00601D55183EC7C
:103248005CF00009D8B42BEF19F02DEF19F0FAEF64
:1032580018F0A60E0601D525D96EDA6A0D0EDA2207
:103268004E0EDE18D8A43BEF19F03DEF19F0F5EF3C
:1032780018F0D52B030E0701E76F07EF1AF00601C8
:10328800D55183EC5CF00009D8B44DEF19F04FEF3D
:1032980019F0FAEF18F00601D52BA50ED525D96E31
:1032A800DA6A0D0EDA222C0EDE18D8B45EEF19F0A9
:1032B80060EF19F068EF19F0290ED56566EF19F07F
:1032C80068EF19F0FAEF18F0A60ED525D96EDA6A6C
:1032D8000D0EDA22DF6A020EFB19D8A476EF19F078
:1032E80078EF19F083EF19F02D0E0501BD6FFA0E76
:1032F800BE6FA60EBF6F0D0EC06F17EC6DF0040EFB
:103308000701E76FFAEF18F0A60EB66F0D0EB76F4C
:10331800870EB86FF90EB96FD0C5BAF5D1C5BBF530
:10332800040ED025BC6F000ED121BD6F080ED0252C
:10333800BE6F000ED121BF6F68EC64F0B6C5D4F53E
:10334800B7C5D5F5030E0501D419D511D8B4AFEF1B
:1033580019F0B1EF19F0B5EF19F0030ED66FDCEFE5
:1033680019F020EE08F0D051D926D151DA22DEC466
:1033780005F5DEC406F5DEC407F5DEC408F5000E63
:10338800096E000E0A6E000E0B6E000E0C6ED2EC6B
:1033980058F0D8A0D2EF19F0D4EF19F0D9EF19F0FE
:1033A800020E0501D66FDCEF19F0000E0501D66F8D
:1033B800000E0601D56F000E0701E76F07EF1AF040
:1033C8000701E7510501D26FD36BD351000AD8B476
:1033D800F0EF19F007EF1AF0D251000AD8B4B5EFA0
:1033E80018F0010AD8B4FFEF18F0030AD8B421EF97
:1033F80019F0010AD8B443EF19F0070AD8B488EFD6
:1034080019F007EF1AF00501D651120070EC6CF0B4
:103418000CC527F50DC528F5285007E10C0E275CCB
:10342800D8B019EF1AF01BEF1AF027EF1AF0000EB8
:103438002710276E100E2810286E27C512F528C5EC
:1034480013F555EF1BF0C0EC6EF00009D8B42FEF60
:103458001AF031EF1AF039EF1AF0000E2710276E24
:10346800300E2810286E21EF1AF0740E076E1A0E0F
:10347800086E050E096E0C0E0A6E680EB2EC5EF050
:103488001B501AC514F5156A14C515F5146A1426C7
:10349800000E15225950020D000EF324D96E0C0EA1
:1034A800F420DA6E14C5DEF415C5DDF41D501CC514
:1034B80014F5156A14C515F5146A1426000E15229C
:1034C8005950020D220EF324D96E0C0EF420DA6E38
:1034D80014C5DEF415C5DDF41F501EC514F5156AB4
:1034E80014C515F5146A1426000E15225950020D3C
:1034F800440EF324D96E0C0EF420DA6E14C5DEF4F3
:1035080015C5DDF4215020C514F5156A14C515F547
:10351800146A1426000E15225950020D000EF324C9
:10352800D96E0D0EF420DA6E14C5DEF415C5DDF47F
:10353800235022C514F5156A14C515F5146A142606
:10354800000E15225950020D220EF324D96E0D0ECD
:10355800F420DA6E14C5DEF415C5DDF4255024C553
:1035680014F5156A14C515F5146A1426000E1522EB
:103578005950020D440EF324D96E0D0EF420DA6E64
:1035880014C5DEF415C5DDF4000E266E5950020D83
:10359800F3C414F5F4C415F52650220D000EF324D7
:1035A800166E0C0EF420176E14501624D96E155092
:1035B8001720DA6EDEC418F5DDC419F52650040D9F
:1035C8000D0EF324D96E090EF420DA6E1850DE269B
:1035D8001950DE22000E19BEFF0EDE22DE225950DF
:1035E800020DF3C414F5F4C415F52650220D000E8F
:1035F800F324166E0D0EF420176E14501624D96E8F
:1036080015501720DA6EDEC418F5DDC419F52650FA
:10361800040D360EF324D96E0A0EF420DA6E185013
:10362800DE261950DE22000E19BEFF0EDE22DE2233
:10363800262A020E266423EF1BF025EF1BF0CAEFA3
:103648001AF00701F22B0C0E275E000E285A59506B
:10365800020D000EF324D96E0A0EF420DA6E27C587
:10366800DEF428C5DDF40601DE07020E285CD8A0CA
:1036780040EF1BF042EF1BF048EF1BF0000E271045
:10368800276E200E2810286E592A0F0E59644FEF06
:103698001BF051EF1BF021EF1AF0000E596E21EFCD
:1036A8001AF012000601026F100E076E050E086E62
:1036B800060E096E070E0A6E320EB2EC5EF00601B7
:1036C8000205D8A46AEF1BF06CEF1BF09FEF1BF00C
:1036D800000E0501BD6F0B0EBE6FFB0EBF6FF80E1F
:1036E800C06F0BC6C1F5C26B0AC6C3F5C46B09C669
:1036F800C5F5C66B07C6C7F5C86B06C6C9F5CA6B5C
:1037080005C6CBF5CC6B90EC64F0000E336E6E0EF4
:10371800326E010E356E360E346E000E366E0B0E9E
:10372800376E010E386E3F0E396E010E3A6EFFECA1
:103738000CF072EF1CF0000E0C6F050E0C25D96E04
:10374800DA6A060EDA224A0E0C25E16EE26A0A0EE1
:10375800E222DE50E618D8B4B4EF1BF0B6EF1BF047
:10376800F2EF1BF0000E0501BD6F0B0EBE6F300EA1
:10377800BF6FFD0EC06F050E06010C25D96EDA6A03
:10378800060EDA22DF50006F00510501C16FC26BCF
:1037980090EC64F00CC605F5066AFF0E086EEE0E96
:1037A800076E3EEC6DF0DA0E05240601036F000E7D
:1037B8000620046F03C632F504C633F5010E356ED4
:1037C800360E346E000E366E0B0E376E010E386EE6
:1037D8003F0E396E010E3A6EFFEC0CF006010C2B11
:1037E800020E0C65FAEF1BF0FCEF1BF0A1EF1BF0CB
:1037F800040E0C6F050E0C25D96EDA6A060EDA2255
:103808004A0E0C25E16EE26A0A0EE222DE50E61844
:10381800D8B411EF1CF013EF1CF04FEF1CF0000EA2
:103828000501BD6F0B0EBE6F300EBF6FFD0EC06F72
:10383800050E06010C25D96EDA6A060EDA22DF506B
:10384800006F00510501C16FC26B90EC64F00CC6AB
:1038580005F5066AFF0E086EEE0E076E3EEC6DF07B
:10386800E60E05240601036F000E0620046F03C64A
:1038780032F504C633F5010E356E360E346E000E81
:10388800366E0B0E376E010E386E3F0E396E010E16
:103898003A6EFFEC0CF006010C2B060E0C6557EF88
:1038A8001CF059EF1CF0FEEF1BF0000E0C6F050E1C
:1038B8000C25D96EDA6A060EDA224A0E0C25E16E5C
:1038C800E26A0A0EE222DFC4E7F40C2B060E0C654E
:1038D80070EF1CF072EF1CF05BEF1CF0300E05016E
:1038E800BD6F230EBE6F240EBF6FFD0EC06F0BC6DB
:1038F800C1F5C26B0AC6C3F5C46B09C6C5F5C66B6C
:1039080090EC64F03F0E0501BD6F230EBE6F0D0EE7
:10391800BF6FF90EC06F07C6C1F5C26B06C6C3F507
:10392800C46B05C6C5F5C66B90EC64F012004A6E10
:103938004A50D8B4A2EF1CF0A4EF1CF0D5EF1DF04C
:1039480021504A5CD8A0ABEF1CF0ADEF1CF0AFEFF4
:103958001CF0D5EF1DF01E04D8A4B5EF1CF0B7EF8E
:103968001CF0C0EF1CF0FF0E056E000E066EFF0E79
:1039780092EC6EF0C7EF1CF0600E056E600E066EDE
:10398800600E92EC6EF04A50080DF3C422F5F4C4B0
:1039980023F522501F24246E23502020256E24C591
:1039A800F6F425C5F7F4000EF86E240EF76407D078
:1039B8000900F5C426F50900F5C427F508D0F6C4B2
:1039C800E9F4F7C4EAF4EEC426F5EEC427F5FC0ED4
:1039D8002624146EFF0E2720156E4A50080DF3C4D6
:1039E80028F5F4C429F528501F242A6E29502020D0
:1039F8002B6E020E2A26000E2B222AC5F6F42BC5A2
:103A0800F7F4000EF86E240EF76407D00900F5C429
:103A18002CF50900F5C42DF508D0F6C4E9F4F7C46F
:103A2800EAF4EEC42CF5EEC42DF5FC0E2C24166E2B
:103A3800FF0E2D20176E4A50080DF3C42EF5F4C45E
:103A48002FF52E501F24306E2F502020316E040E7B
:103A58003026000E312230C5F6F431C5F7F4000ED9
:103A6800F86E240EF76407D00900F5C432F5090092
:103A7800F5C433F508D0F6C4E9F4F7C4EAF4EEC4A3
:103A880032F5EEC433F54A50080DF3C434F5F4C4E6
:103A980035F534501F24366E35502020376E36C524
:103AA800F6F437C5F7F4000EF86E240EF76407D065
:103AB8000900F5C438F50900F5C439F508D0F6C48D
:103AC800E9F4F7C4EAF4EEC438F5EEC439F5325037
:103AD80038243A6E335039203B6E010E3A24186E62
:103AE800000E3B20196E4A50080DF3C43CF5F4C48F
:103AF8003DF53C501F243E6E3D5020203F6E060E83
:103B08003E26000E3F223EC5F6F43FC5F7F4000EF0
:103B1800F86E240EF76407D00900F5C440F50900D3
:103B2800F5C441F508D0F6C4E9F4F7C4EAF4EEC4E4
:103B380040F5EEC441F54A50080DF3C442F5F4C40B
:103B480043F542501F24446E43502020456E020E18
:103B58004426000E452244C5F6F445C5F7F4000E88
:103B6800F86E240EF76407D00900F5C446F509007D
:103B7800F5C447F508D0F6C4E9F4F7C4EAF4EEC48E
:103B880046F5EEC447F540504624486E415047205C
:103B9800496E010E48241A6E000E49201B6E1DEC5A
:103BA8005AF012002104D8A4DCEF1DF0DEEF1DF05E
:103BB8004AEF1EF020C505F5066A2050080DF3C42B
:103BC80007F5F4C408F53EEC6DF005C528F506C503
:103BD80029F528C505F529C506F5000E086E120E4B
:103BE800076E3EEC6DF005C526F506C527F520C520
:103BF8000BF5000E0C6E1F5099EC2FF02050060D9F
:103C0800F3C422F5F4C423F51B5022261C502322AA
:103C1800FF0E22242C6EFF0E23202D6E2050226EC4
:103C2800236AD89022362336D89022362336D89065
:103C3800223623361D5022261E502322FF0E222410
:103C48002E6EFF0E23202F6E9EEC6EF01BC508F51E
:103C58001CC509F52CC50AF52DC50BF51DC50CF5B8
:103C68001EC50DF52EC50EF52FC50FF5E3EC66F054
:103C7800CC0E086E190E096E26C50AF527C50BF578
:103C8800C2EC60F00DEC6EF010EF1FF09EEC6EF0E1
:103C9800000E316E050E316054EF1EF056EF1EF027
:103CA80073EF1EF01F50050DA90EF324226EEF0EC0
:103CB800F420236E31502226000E2322600E222487
:103CC800246EFF0E2320256E24C5F6F425C5F7F4CF
:103CD800000EF86E0800F5C42BF575EF1EF0000E07
:103CE8002B6E000E306E31502002F3C422F5F4C45E
:103CF80023F51B5022242C6E1C5023202D6E30508F
:103D08002002F3C422F5F4C423F51D5022242E6E9C
:103D18001E5023202F6E2CC508F52DC509F52050FF
:103D28002C24226E000E2D20236EFF0E22240A6EF4
:103D3800FF0E23200B6E2EC50CF52FC50DF5205058
:103D48002E24246E000E2F20256EFF0E24240E6EC6
:103D5800FF0E25200F6EE3EC66F0000E2A6EE8EFEA
:103D68001EF030C522F52BC523F5222ABEEF1EF022
:103D7800D8902332222EBCEF1EF023A0C6EF1EF0EF
:103D8800C8EF1EF0D6EF1EF00701FB51E4EC6DF012
:103D98000701FC51E4EC6DF00701FD51E4EC6DF016
:103DA800E7EF1EF02104D8A4DCEF1EF0DEEF1EF0D2
:103DB800E7EF1EF0000EE4EC6DF0000EE4EC6DF0A1
:103DC800000EE4EC6DF02A2A205020022A50226EC0
:103DD800236AF350225C2350800A246EF450800A30
:103DE8002458D8A0FAEF1EF0FCEF1EF0B5EF1EF035
:103DF800302A070E306403EF1FF005EF1FF077EF4E
:103E08001EF0312A050E31640CEF1FF00EEF1FF083
:103E18004EEF1EF046EF1EF01200FAC403F5FBC485
:103E280004F59FAA1AEF1FF01CEF1FF025EF1FF0F3
:103E3800AFAA21EF1FF023EF1FF025EF1FF039EC99
:103E480070F09FAC2AEF1FF02CEF1FF035EF1FF03A
:103E5800AFAC31EF1FF033EF1FF035EF1FF031EC4F
:103E680070F0A4A23AEF1FF03CEF1FF045EF1FF0EF
:103E7800B4A241EF1FF043EF1FF045EF1FF055ECE0
:103E880070F09EAA4AEF1FF04CEF1FF055EF1FF09D
:103E9800AEAA51EF1FF053EF1FF055EF1FF05DEC86
:103EA80070F0AAA25AEF1FF05CEF1FF071EF1FF03D
:103EB800BAA261EF1FF063EF1FF071EF1FF002D895
:103EC80071EF1FF00500FA6E0901B251FD6EB35192
:103ED800FE6EB451FF6EFA501200AAA076EF1FF0E2
:103EE80078EF1FF08DEF1FF0BAA07DEF1FF07FEF86
:103EF8001FF08DEF1FF002D88DEF1FF00500FA6E4E
:103F08000901B551FD6EB651FE6EB751FF6EFA50FC
:103F18001200A3A892EF1FF094EF1FF09DEF1FF07F
:103F2800B3A899EF1FF09BEF1FF09DEF1FF02EEC49
:103F380068F0A3AAA2EF1FF0A4EF1FF0ADEF1FF0E7
:103F4800B3AAA9EF1FF0ABEF1FF0ADEF1FF03AECEB
:103F58006BF0A1A8B2EF1FF0B4EF1FF0BDEF1FF098
:103F6800B1A8B9EF1FF0BBEF1FF0BDEF1FF04EEC8B
:103F780068F0A1AAC2EF1FF0C4EF1FF0CDEF1FF049
:103F8800B1AAC9EF1FF0CBEF1FF0CDEF1FF054EC33
:103F98006BF0A5AAD2EF1FF0D4EF1FF0DDEF1FF0F2
:103FA800B5AAD9EF1FF0DBEF1FF0DDEF1FF04DECE6
:103FB80070F0A7AAE2EF1FF0E4EF1FF0EDEF1FF09B
:103FC800B7AAE9EF1FF0EBEF1FF0EDEF1FF045EC9C
:103FD80070F0A1AEF2EF1FF0F4EF1FF0FDEF1FF04D
:103FE800B1AEF9EF1FF0FBEF1FF0FDEF1FF06EEC25
:103FF80068F09EAE02EF20F004EF20F00DEF20F005
:10400800AEAE09EF20F00BEF20F00DEF20F08EECB4
:1040180068F0A6A212EF20F014EF20F029EF20F0AC
:10402800B6A219EF20F01BEF20F029EF20F002D8FC
:1040380029EF20F00500FA6E0901AC51FD6EAD5173
:10404800FE6EAE51FF6EFA501200A6A02EEF20F0C1
:1040580030EF20F045EF20F0B6A035EF20F037EF35
:1040680020F045EF20F002D845EF20F00500FA6E69
:104078000901AF51FD6EB051FE6EB151FF6EFA509D
:10408800120004C5FBF403C5FAF411000B0E156EFB
:104098000701DC51166EDD51176E186A196AD8903F
:1040A80016341A6E17341B6E18341C6E19341D6EB4
:1040B800030E1E6E11C51FF512C520F513C521F597
:1040C80014C522F51E666BEF20F073EF20F0223442
:1040D8002232213220321F321E2E66EF20F01A5073
:1040E8001F5C056E1B502058066E1C502158076E29
:1040F8001D502258086ED4C909F5D5C90AF5000E15
:104108000ABEFF0E0B6E0C6E8CEC5FF015668FEF1F
:1041180020F097EF20F008340832073206320532D3
:10412800152E8AEF20F005C528F506C529F507C51F
:104138002AF508C52BF50C0E156E0701DC51166E15
:10414800DD51176E186A196A040E1A6E11C51BF52F
:1041580012C51CF513C51DF514C51EF51A66B7EF73
:1041680020F0BFEF20F01E341E321D321C321B32ED
:104178001A2EB2EF20F016501B5C056E17501C5813
:10418800066E18501D58076E19501E58086E070104
:10419800DC511F6EDD51206E216A226A040E236EE7
:1041A80011C524F512C525F513C526F514C527F53F
:1041B8002366E1EF20F0E9EF20F02734273226329A
:1041C80025322432232EDCEF20F01F50245C096EA8
:1041D800205025580A6E215026580B6E2250275819
:1041E8000C6E8CEC5FF01566FCEF20F004EF21F00C
:1041F80008340832073206320532152EF7EF20F060
:1042080005C534F506C535F507C536F508C537F5CE
:104218000E0E156E34C505F535C506F536C507F518
:1042280037C508F5D2C909F5D3C90AF5000E0ABE83
:10423800FF0E0B6E0C6E8CEC5FF0156626EF21F00E
:104248002EEF21F008340832073206320532152ED7
:1042580021EF21F005C52CF506C52DF507C52EF56E
:1042680008C52FF52C5028240801A86F2D502920A7
:10427800A96F2E502A20AA6F2F502B20AB6FA8C8E9
:1042880005F5A9C806F5AAC807F5ABC808F5050ECF
:10429800096E000E0A6E000E0B6E000E0C6E8CEC92
:1042A8005FF0800E0524156E000E0620166E000EB7
:1042B8000720176E000E0820186E16C515F517C5CD
:1042C80016F518C517F5186A17BE186815C530F51C
:1042D80016C531F517C532F518C533F530C511F5D2
:1042E80031C512F532C513F533C514F51200ECC902
:1042F8001DF5EDC91EF5EEC91FF5EFC920F5030E32
:104308001524196E000E16201A6E1950175C1850D5
:10431800800A1B6E1A50800A1B58D8B096EF21F0FD
:1043280098EF21F09EEF21F0000E136E000E126E32
:104338009CEF22F015C529F516C52AF514C519F5FF
:10434800BF0E1926190E1964ACEF21F0AEEF21F05B
:10435800B3EF21F014C523F5246ABBEF21F0200E3A
:1043680014C519F51A6A1910236E1A50246E690EAD
:1043780023182410D8A4C3EF21F0C6EF21F0010EB2
:10438800C7EF21F0000E216E226A790E2924D96E1A
:104398000E0E2A20DA6E14C5DFF4294A2A2A3DEFC8
:1043A80022F012C509F513C50AF5CDEC48F009C588
:1043B80027F50AC528F5272806E12828D8A4E7EF15
:1043C80021F0E9EF21F0EFEF21F027C512F528C51C
:1043D80013F59CEF22F027C519F5BF0E1926190E03
:1043E8001964F9EF21F0FBEF21F001EF22F027C566
:1043F80025F528C526F506EF22F0200E2710256E94
:104408002850266ED8902134D96E2234DA6E1D0ECB
:10441800D926050EDA22DEC419F5DDC41AF51550C1
:10442800195E16501A5A295019262A501A2219C5E7
:10443800F6F41AC5F7F4000EF86E0800F5501B6E76
:104448001C6A25501B1809E126501C18D8B42FEFF8
:1044580022F031EF22F033EF22F052EF22F0790E02
:104468002924D96E0E0E2A20DA6E27C5DFF4D1EF83
:1044780021F0030E1524196E000E16201A6E19501D
:10448800295C2A50800A1B6E1A50800A1B58D8A033
:1044980050EF22F052EF22F0D5EF21F0030E152451
:1044A800196E000E16201A6E1950295C2A50800ABF
:1044B8001B6E1A50800A1B58D8B065EF22F067EFC0
:1044C80022F098EF22F027C505F528C506F512C594
:1044D80007F513C508F5C2EC56F087EF22F0290658
:1044E800D8A02A06790E2924D96E0E0E2A20DA6E53
:1044F800DF50196E1950056E066A12C507F513C507
:1045080008F5C2EC56F02950155C1650800A196E51
:104518002A50800A1958D8A094EF22F096EF22F07A
:1045280073EF22F098EF21F0000E136E030E126E57
:104538001200A0C5D9F4A1C5DAF4DEC4B7F5DDC40C
:10454800B8F50501A551A411A31109E1020EA25D58
:10455800D8A0B1EF22F0B3EF22F0C8EF22F020EE9E
:1045680017F0B751D926B851DA22DE50A25DDE50D5
:10457800A359DE50A459DE50A559D8A0C6EF22F0A1
:10458800C8EF22F0CBEF22F0020EB5EF23F0A651D0
:10459800A711A811A911D8B4D4EF22F0D6EF22F0B0
:1045A800F9EF22F0B7C57FF5B8C580F5A6C581F546
:1045B800A7C582F5A8C583F5A9C584F5FF0E856F43
:1045C800FF0E866FFF0E876FFF0E886F21ECE5F0F8
:1045D8000501B66FB651D8B4F4EF22F0F6EF22F029
:1045E800F9EF22F0B651B5EF23F0A0C57FF5A1C5CC
:1045F80080F5A2C581F5A3C582F5A4C583F5A5C537
:1046080084F51AEC02F07FC5B2F580C5B3F581C513
:10461800B4F582C5B5F50501B251B311B411B511A0
:10462800D8A419EF23F01BEF23F01DEF23F0B4EF0C
:1046380023F0B205B311B411B511D8A426EF23F0B5
:1046480028EF23F02AEF23F0C8EF22F0B2290AE17D
:10465800B32908E1B42906E1B529D8A436EF23F037
:1046680038EF23F03BEF23F0010EB5EF23F0B7C589
:104678007FF5B8C580F5A2C581F5A3C582F5A4C5A7
:1046880083F5A5C584F5000E856F000E866F000EB4
:10469800876F000E886F21ECE5F00501B66FB65103
:1046A800D8B459EF23F05BEF23F05DEF23F0F6EF7A
:1046B80022F020EE17F0B751D926B851DA22FE0EB3
:1046C800DE24AA6FFF0EDE20AB6FFF0EDE20AC6F7C
:1046D800FF0EDE20AD6F20EE0FF0B751D926B8518E
:1046E800DA22AA51DE5CAB51DE58AC51DE58AD512E
:1046F800DE58D8B082EF23F084EF23F097EF23F051
:1047080020EE0FF0B751D926B851DA22DE2A000E72
:10471800DE22DE22DE2220EE04F0B751D926B8517F
:10472800DA22000EDB80B2C5A2F5B3C5A3F5B4C585
:10473800A4F5B5C5A5F520EE17F0B751D926B8519F
:10474800DA22DE50A25DDE50A359DE50A459DE50B5
:10475800A559D8A0B2EF23F0B4EF23F0F9EF22F077
:10476800000E120060C513F561C514F562C515F594
:1047780063C516F560C517F561C518F562C519F565
:1047880063C51AF5F7ECFBF013C57CF514C57DF588
:1047980015C57EF516C57FF57CC513F57DC514F5E1
:1047A8007EC515F57FC516F57CC517F57DC518F5C9
:1047B8007EC519F57FC51AF5F7ECFBF013C568F54A
:1047C80014C569F515C56AF516C56BF53C0E176E67
:1047D8006C0E186E360E196E360E1A6E7CC513F5F1
:1047E8007DC514F57EC515F57FC516F5F7ECFBF00C
:1047F80013C545F514C546F515C547F516C548F55D
:10480800CF0E496E070E4A6E500E4B6EB90E4C6EA7
:104818005EECECF045C564F546C565F547C566F53B
:1048280048C567F57CC513F57DC514F57EC515F536
:104838007FC516F560C517F561C518F562C519F588
:1048480063C51AF5F7ECFBF013C578F514C579F5CF
:1048580015C57AF516C57BF5AB0E496EAA0E4A6EDC
:104868002A0E4B6EBE0E4C6E840E176E880E186E96
:10487800080E196E3C0E1A6E7CC513F57DC514F52D
:104888007EC515F57FC516F5F7ECFBF013C545F5A4
:1048980014C546F515C547F516C548F55EECECF0A8
:1048A80045C56CF546C56DF547C56EF548C56FF548
:1048B80068C517F569C518F56AC519F56BC51AF500
:1048C80078C513F579C514F57AC515F57BC516F5C0
:1048D800F7ECFBF013C570F514C571F515C572F545
:1048E80016C573F560C549F561C54AF562C54BF54E
:1048F80063C54CF578C517F579C518F57AC519F566
:104908007BC51AF56CC513F56DC514F56EC515F59F
:104918006FC516F5F7ECFBF013C545F514C546F55C
:1049280015C547F516C548F55EECECF045C574F5B8
:1049380046C575F547C576F548C577F574C545F597
:1049480075C546F576C547F577C548F564C517F5C5
:1049580065C518F566C519F567C51AF570C513F567
:1049680071C514F572C515F573C516F5F7ECFBF0AE
:1049780013C549F514C54AF515C54BF516C54CF5CB
:104988005EECECF045C560F546C561F547C562F5D6
:1049980048C563F512000601086F990E0501BD6F41
:1049A800230EBE6FE50EBF6FF90EC06F650EC16FA7
:1049B8000A0EC26F90EC64F0D50E0501BD6F230E90
:1049C800BE6F3F0EBF6FFB0EC06F90EC64F0E40E3D
:1049D8000501BD6F230EBE6F3C0EBF6FFB0EC06F8F
:1049E80090EC64F006010851D8A4FDEF24F0FFEF25
:1049F80024F00CEF25F0000E0501BD6F0B0EBE6F05
:104A0800120EBF6FFF0EC06F90EC64F0C8EF25F078
:104A18005850330DD20EF324D96E150EF420DA6EE9
:104A2800DE50DE10DE10DE10D8A41DEF25F01FEFDB
:104A380025F02FEF25F0000E0501BD6F0B0EBE6FA0
:104A4800190EBF6FFF0EC06F90EC64F0300E0601B8
:104A5800086FC8EF25F0000E2C6EC00E2D6E790E73
:104A68002E6E440E2F6E5850330DDA0EF324D96E85
:104A7800150EF420DA6EDEC430F5DEC431F5DEC47E
:104A880032F5DEC433F566EC4AF0D8B04EEF25F0C7
:104A980050EF25F05DEF25F0000E0501BD6F0B0E00
:104AA800BE6FB10EBF6FFE0EC06F90EC64F02AEFC0
:104AB80025F05850330DD60EF324D96E150EF42078
:104AC800DA6EDEC413F5DEC414F5DEC415F5DEC4F3
:104AD80016F5000E176E240E186E740E196E490E18
:104AE8001A6EF7ECFBF013C504F614C505F615C5E8
:104AF80006F616C507F6D50E0501BD6F230EBE6F67
:104B0800500EBF6FFF0EC06F04C6C1F505C6C2F5D3
:104B180006C6C3F507C6C4F590EC64F0000E05019F
:104B2800BD6F0B0EBE6F500EBF6FFF0EC06F58509B
:104B3800330DDA0EF324D96E150EF420DA6EDEC4C6
:104B4800C1F5DEC4C2F5DEC4C3F5DEC4C4F590EC1D
:104B580064F0E40E0501BD6F230EBE6F860EBF6FB5
:104B6800FF0EC06F5850330DDA0EF324D96E150EB0
:104B7800F420DA6EDEC4C1F5DEC4C2F5DEC4C3F5C6
:104B8800DEC4C4F590EC64F0000E336E240E326E71
:104B9800000E356E140E346E000E366E0B0E376E28
:104BA800020E386E08C639F5010E3A6EFFEC0CF0AD
:104BB80012002FC966F530C967F531C968F532C9E1
:104BC80069F545C566F546C567F547C568F548C53D
:104BD80069F5810E496EFF0E4A6E66C54BF567C5CD
:104BE8004CF568C54DF569C54EF5180E01EF26F070
:104BF800D8904E324D324C324B32E82EFCEF25F035
:104C08004B5049240501646F000E4A20656F65BF4B
:104C180017EF26F0655109E1170E645DD8A017EF6C
:104C280026F019EF26F023EF26F045C545F546C5D1
:104C380046F547C547F548C548F5E7EF26F065BF8F
:104C480028EF26F02AEF26F09BEF26F064C549F5F9
:104C5800FF0E4A6EFF0E4B6E7F0E4C6E000E4D6EB1
:104C6800496639EF26F041EF26F04D344D324C328B
:104C78004B324A32492E34EF26F04AC560F54BC50F
:104C880061F54CC562F54DC563F5050160516615C2
:104C9800496E615167154A6E625168154B6E6351D2
:104CA80069154C6E49504A104B104C10D8A45FEF50
:104CB80026F061EF26F063EF26F019EF26F066C5BF
:104CC80049F567C54AF568C54BF569C54CF5200E29
:104CD80073EF26F0D8904C324B324A324932E82EE4
:104CE8006EEF26F049504A104B104C10D8B47FEFA5
:104CF80026F081EF26F089EF26F060516627615192
:104D080067236251682363516923601D496E611DE1
:104D18004A6E621D4B6E631D4C6E495066174A50B1
:104D280067174B5068174C506917DFEF26F066C5B8
:104D380049F567C54AF568C54BF569C54CF5200EB8
:104D4800ABEF26F0D8904C324B324A324932E82E3B
:104D5800A6EF26F049504A104B104C10D8A4B7EFD4
:104D680026F0B9EF26F0C3EF26F0000E666F000EAE
:104D7800676F000E686F000E696FDFEF26F0D8903E
:104D88006635496E67354A6E68354B6E69354C6EC7
:104D980049504A104B104C10D8B4D5EF26F0D7EF35
:104DA80026F0DFEF26F0000E666F000E676F800EAC
:104DB800686FBF0E696F66C545F567C546F568C576
:104DC80047F569C548F512007FC507F580C508F5A0
:104DD800880E096E050E0A6EE9EC4BF00501856F29
:104DE8008551D8A4FAEF26F0FCEF26F0F0EF27F073
:104DF80020EE0EF07F51D9268051DA22DFAC07EF82
:104E080027F009EF27F0F0EF27F020EE0EF07F51A2
:104E1800D9268051DA22DFAE14EF27F016EF27F0FB
:104E28004BEF27F0220E7F254F6E000E8021506E2B
:104E380020EE18F07F51D9268051DA22DEC451F5D0
:104E4800DEC452F5DEC453F5DEC454F5000E566ECA
:104E5800010E556E20EE01F08851D9268951DA22CB
:104E6800DF505EEC60F00009D8B43DEF27F03FEF6B
:104E780027F042EF27F0010EF1EF27F0050120EEB1
:104E88000EF07F51D9268051DA227F0EDF160FEC03
:104E98005BF014C581F515C582F516C583F517C5F0
:104EA80084F588C574F589C575F5050120EE1CF0F3
:104EB8007F51D9268051DA22DEC476F5DEC477F533
:104EC800DEC478F5DEC479F541EC53F00501856F51
:104ED8008551D8A472EF27F074EF27F0F0EF27F090
:104EE80020EE20F07F51D9268051DA22DEC486F5E3
:104EF800DDC487F520EE0BF08651D9268751DA22DA
:104F0800000EDB8A7FC5D9F480C5DAF4DEC409F562
:104F1800DDC40AF586C50BF587C50CF520EE06F04D
:104F28007F51D9268051DA22DEC40DF5DEC40EF594
:104F3800DEC40FF5DEC410F52EEC65F01C0E05017D
:104F48008625226E000E8721236E20EE0AF07F51FF
:104F5800D9268051DA22DEC424F5DEC425F5DEC464
:104F680026F5DEC427F521EC5FF0160E050186252F
:104F7800226E000E8721236E81C524F582C525F592
:104F880083C526F584C527F521EC5FF0120E0501CF
:104F98008625056E000E8721066E000E086E000E2F
:104FA800076E03EC6DF0050120EE03F08851D92659
:104FB8008951DA22010EDF6E88C574F589C575F549
:104FC800F2EC27F00501856F20EE0EF07F51D9260F
:104FD8008051DA22BF0EDF168551120074C562F5C2
:104FE80075C563F50BEC39F005017E6F7E51D8A4C9
:104FF80000EF28F002EF28F0F6EF28F074C5D9F496
:1050080075C5DAF4030EDE18D8A40DEF28F00FEFFB
:1050180028F0DCEF28F020EE04F07451D926755101
:10502800DA22DE04D8A41BEF28F01DEF28F0DCEF0D
:1050380028F0330E7425056E000E7521066E000EDD
:10504800086E000E076E020E0A6E000E096E6EECF8
:105058006BF0310E05017425056E020E7521066E82
:10506800AA0E086E550E076E03EC6DF0330E05019F
:105078007425226E000E7521236E520E246E520E78
:10508800256E610E266E410E276E21EC5FF0170E1D
:1050980005017425226E020E7521236E720E246E90
:1050A800720E256E410E266E610E276E21EC5FF0A2
:1050B8001B0E05017425226E020E7521236E20EE4B
:1050C8000FF07451D9267551DA22DEC424F5DEC4F6
:1050D80025F5DEC426F5DEC427F521EC5FF01F0EAA
:1050E80005017425226E020E7521236E20EE0BF049
:1050F8007451D9267551DA22DEC424F5DEC425F5AB
:10510800DEC426F5DEC427F521EC5FF0050120EEAC
:105118001FF07451D9267551DA22DEC476F5DEC443
:1051280077F5DEC478F5DEC479F5010E76257A6F59
:10513800000E77217B6F000E78217C6F000E79219D
:105148007D6F20EE2FF07451D9267551DA227AC579
:10515800DEF47BC5DEF47CC5DEF47DC5DEF4330EFB
:1051680074254F6E000E7521506E20EE2FF074518D
:10517800D9267551DA22DEC451F5DEC452F5DEC4F3
:1051880053F5DEC454F5000E566E010E556E20EE32
:1051980001F07451D9267551DA22DF505EEC60F0C7
:1051A800050120EE04F07451D9267551DA22DF6A20
:1051B800000E056E000E066E000E076E20EE01F062
:1051C8007451D9267551DA22DF50B7EC6DF0000919
:1051D800D8B4F1EF28F0F3EF28F0F6EF28F0010E3D
:1051E80005017E6F05017E51120060C513F561C58A
:1051F80014F562C515F563C516F560C517F561C5E3
:1052080018F562C519F563C51AF5F7ECFBF013C577
:1052180078F514C579F515C57AF516C57BF578C501
:1052280013F579C514F57AC515F57BC516F578C556
:1052380017F579C518F57AC519F57BC51AF5F7EC90
:10524800FBF013C574F514C575F515C576F516C5C7
:1052580077F5170E176E9A0E186ECC0E196E370E5C
:105268001A6E78C513F579C514F57AC515F57BC599
:1052780016F5F7ECFBF013C545F514C546F515C54D
:1052880047F516C548F53F0E496E040E4A6EB60E30
:105298004B6EBA0E4C6E5EECECF045C564F546C537
:1052A80065F547C566F548C567F5000E496E000EF9
:1052B8004A6E800E4B6E3F0E4C6E000E176E000E3F
:1052C800186E000E196EBF0E1A6E78C513F579C5E3
:1052D80014F57AC515F57BC516F5F7ECFBF013C583
:1052E80045F514C546F515C547F516C548F55EECF0
:1052F800ECF045C568F546C569F547C56AF548C582
:105308006BF578C517F579C518F57AC519F57BC514
:105318001AF574C513F575C514F576C515F577C571
:1053280016F5F7ECFBF013C56CF514C56DF515C54E
:105338006EF516C56FF59F0E176EAA0E186E2A0E1B
:10534800196E3D0E1A6E74C513F575C514F576C53C
:1053580015F577C516F5F7ECFBF013C549F514C537
:105368004AF515C54BF516C54CF568C545F569C52B
:1053780046F56AC547F56BC548F55EECECF045C5E2
:1053880070F546C571F547C572F548C573F570C522
:1053980045F571C546F572C547F573C548F564C549
:1053A80017F565C518F566C519F567C51AF56CC50D
:1053B80013F56DC514F56EC515F56FC516F5F7EC43
:1053C800FBF013C549F514C54AF515C54BF516C5C7
:1053D8004CF55EECECF045C560F546C561F547C592
:1053E80062F548C563F512000601116FD1EF2AF086
:1053F800F051F15DD8A003EF2AF005EF2AF0F1EFA4
:105408002AF0020EEE6FF1EF2AF0000E0601126F7D
:105418001251040D0D0EF324D96E090EF420DA6E24
:10542800DEC405F5DEC406F5DEC407F5DEC408F5FE
:105438000701F251096E0A6A0B6A0C6A5CEC49F0C2
:1054480006011251220D200EF324D96E0C0EF42001
:10545800DA6E05C5DEF406C5DDF41251040D360E0C
:10546800F324D96E0A0EF420DA6EDEC405F5DEC424
:1054780006F5DEC407F5DEC408F50701F251096E2A
:105488000A6A0B6A0C6A5CEC49F006011251220D9B
:10549800200EF324D96E0D0EF420DA6E05C5DEF465
:1054A80006C5DDF4122B020E12655DEF2AF05FEFE0
:1054B8002AF00CEF2AF0030E0701EE6FF1EF2AF045
:1054C800000E0601076F100EFBECDFF00009D8A4F0
:1054D80070EF2AF072EF2AF0F1EF2AF0040E0701BC
:1054E800EE6FF1EF2AF006011105D8A47EEF2AF03D
:1054F80080EF2AF085EF2AF0050E0701EE6FF1EF35
:105508002AF0060E0701EE6FF1EF2AF0000E0601F1
:10551800006F000E016F000E026F000E036F000E89
:10552800046F000E056F100EEEECD1F00009D8A440
:10553800A0EF2AF0A2EF2AF0F1EF2AF085EF2AF087
:10554800000E0601126F1251040D0D0EF324D96ED0
:10555800090EF420DA6EDE6ADE6ADE6ADD6A12514E
:10556800040D360EF324D96E0A0EF420DA6EDE6AC4
:10557800DE6ADE6ADD6A122B020E1265C6EF2AF0B9
:10558800C8EF2AF0A7EF2AF0000E0701F26F000E0D
:10559800F16F000EEE6FF1EF2AF00701EE51000AED
:1055A800D8B4FCEF29F0010AD8B4FCEF29F0030ABB
:1055B800D8B409EF2AF0010AD8B464EF2AF0070A30
:1055C800D8B477EF2AF0010AD8B48AEF2AF0030A90
:1055D800D8B4A4EF2AF0F1EF2AF01200576E200E8B
:1055E8000501BD6F240EBE6F3D0EBF6FFB0EC06F71
:1055F80090EC64F02F0E0501BD6F240EBE6F3D0EBA
:10560800BF6FFB0EC06F90EC64F05750D8A40FEF3B
:105618002BF011EF2BF01EEF2BF0000E0501BD6FE4
:105628000B0EBE6F330EBF6FFB0EC06F90EC64F0B5
:10563800CEEF2BF05850330DF60EF324D96E150E1D
:10564800F420DA6EDEC42CF5DEC42DF5DEC42EF5AA
:10565800DEC42FF5330E306EF30E316EC70E326E88
:10566800430E336E66EC4AF0D8B03DEF2BF03FEFB7
:105678002BF060EF2BF05850330DFA0EF324D96E4F
:10568800150EF420DA6EDEC42CF5DEC42DF5DEC46A
:105698002EF5DEC42FF5330E306EF30E316EC70EC5
:1056A800326E430E336E66EC4AF0D8A05EEF2BF0F4
:1056B80060EF2BF06DEF2BF0000E0501BD6F0B0EA8
:1056C800BE6F0C0EBF6FFC0EC06F90EC64F0CEEF97
:1056D8002BF0000E0501BD6F0B0EBE6F350EBF6FB0
:1056E800FD0EC06F5850330DF60EF324D96E150E0B
:1056F800F420DA6EDEC4C1F5DEC4C2F5DEC4C3F53B
:10570800DEC4C4F55850330DFA0EF324D96E150EC5
:10571800F420DA6EDEC4C5F5DEC4C6F5DEC4C7F50E
:10572800DEC4C8F590EC64F0200E0501BD6F240EB0
:10573800BE6F620EBF6FFF0EC06F5850330DF60E6E
:10574800F324D96E150EF420DA6EDEC4C1F5DEC47A
:10575800C2F5DEC4C3F5DEC4C4F590EC64F02F0EC8
:105768000501BD6F240EBE6F620EBF6FFF0EC06FC6
:105778005850330DFA0EF324D96E150EF420DA6E54
:10578800DEC4C1F5DEC4C2F5DEC4C3F5DEC4C4F5AB
:1057980090EC64F0000E336E020E326E000E356E21
:1057A800280E346E000E366E0B0E376E010E386EF4
:1057B80057C539F5010E3A6EFFEC0CF0120018507F
:1057C8000108206E1950D8A0E82A0008216E000EA2
:1057D8001D6E010E1C6E18C51AF519C51BF5D8905B
:1057E8001A361B361A1E1B1E1A4A1B2A1AC51EF504
:1057F8001BC51FF5000E236E000E226E18C524F57A
:1058080019C525F514C510F515C511F51850162438
:10581800126E19501720136E08EC62F014C510F5BB
:1058280015C511F51850165C126E19501758136EDD
:1058380008EC62F018501424106E19501520116EDF
:1058480016C512F517C513F508EC62F01850145C6C
:10585800106E19501558116E16C512F517C513F5A7
:1058680008EC62F0C4EF2CF021BE3DEF2CF03FEFC6
:105878002CF04AEF2CF02406D8A02506020E1E268E
:10588800000E1F221E5020261F502122224A232AA2
:10589800020E1C26000E1D221C5020261D502122FF
:1058A80014502224106E15502320116E16502424F3
:1058B800126E17502520136E08EC62F02250145C0B
:1058C800106E23501558116E16502424126E17505E
:1058D8002520136E08EC62F014502224106E155027
:1058E8002320116E2450165C126E25501758136E23
:1058F80008EC62F02250145C106E23501558116E9B
:105908002450165C126E25501758136E08EC62F07E
:1059180014502424106E15502520116E1650222480
:10592800126E17502320136E08EC62F02450145C9A
:10593800106E25501558116E16502224126E1750ED
:105948002320136E08EC62F014502424106E1550B6
:105958002520116E2250165C126E23501758136EB4
:1059680008EC62F02450145C106E25501558116E26
:105978002250165C126E23501758136E08EC62F012
:105988002450225C2350800A1A6E2550800A1A5827
:10599800D8A0D1EF2CF0D3EF2CF038EF2CF0120078
:1059A800A9EF2DF00801E405D8A4DDEF2CF0DFEF16
:1059B8002CF0C1EF2DF0010E0701F36F000E080166
:1059C800E46FC1EF2DF00A0E0601E36F020E070126
:1059D800F36FC1EF2DF00801E451D8A4F6EF2CF0D5
:1059E800F8EF2CF0FBEF2CF0030E0701F36F000E1D
:1059F8000501BD6F0B0EBE6F920EBF6FFD0EC06F1F
:105A08000601E3510501C16FC26BC1BFC20790EC2B
:105A180064F0000E336E000E326E010E356E2C0EE1
:105A2800346E000E366E0B0E376E010E386E310E68
:105A3800396E010E3A6EFFEC0CF00601E307E351F4
:105A4800800A7F0FD8B02BEF2DF02DEF2DF0C1EF8E
:105A58002DF0040E0701F36FC1EF2DF0000E0501C4
:105A6800BD6F0B0EBE6F370EBF6FFB0EC06F90EC95
:105A780064F0000E336E000E326E010E356E2C0E81
:105A8800346E000E366E0B0E376E010E386E000E39
:105A9800396E010E3A6EFFEC0CF0000E0701F36F41
:105AA800070ED3ECD4F0C1EF2DF0000E056E000EFA
:105AB800066E000E92EC6EF0000E116E0A0E106E5D
:105AC800000E136E800E126E000E156EE50E146E2B
:105AD800000E176ECF0E166E25EC4FF0000E050166
