:040000000DEF00F010
:0400080046EF28F0A7
:10001800FF005BEF13F0E9EC48F00CC527F50DC5C0
:1000280028F528500FE10C0E275CD8B00BD0000E35
:100038002710276E100E2810286E27C512F528C520
:1000480013F512000DEC4CF00009D8B405D0000EE1
:100058002710276E300EEFD7740E076E1A0E086E33
:10006800050E096E0C0E0A6E680E03EC3FF01B506D
:100078001AC514F5156A14C515F5146A1426000E68
:1000880015225950020D000EF324D96E0C0EF420DF
:10009800DA6E14C5DEF415C5DDF41D501CC514F563
:1000A800156A14C515F5146A1426000E1522595040
:1000B800020D220EF324D96E0C0EF420DA6E14C54C
:1000C800DEF415C5DDF41F501EC514F5156A14C5F8
:1000D80015F5146A1426000E15225950020D440E07
:1000E800F324D96E0C0EF420DA6E14C5DEF415C5AF
:1000F800DDF4215020C514F5156A14C515F5146AE8
:100108001426000E15225950020D000EF324D96E44
:100118000D0EF420DA6E14C5DEF415C5DDF4235097
:1001280022C514F5156A14C515F5146A1426000EAF
:1001380015225950020D220EF324D96E0D0EF4200B
:10014800DA6E14C5DEF415C5DDF4255024C514F5A2
:10015800156A14C515F5146A1426000E152259508F
:10016800020D440EF324D96E0D0EF420DA6E14C578
:10017800DEF415C5DDF4000E266E5950020DF3C4E9
:1001880014F5F4C415F52650220D000EF324166E4E
:100198000C0EF420176E14501624D96E1550172023
:1001A800DA6EDEC418F5DDC419F52650040D0D0EFF
:1001B800F324D96E090EF420DA6E1850DE26195091
:1001C800DE22000E19BEFF0EDE22DE225950020D7D
:1001D800F3C414F5F4C415F52650220D000EF324CB
:1001E800166E0D0EF420176E14501624D96E155085
:1001F8001720DA6EDEC418F5DDC419F52650040D93
:10020800360EF324D96E0A0EF420DA6E1850DE2664
:100218001950DE22000E19BEFF0EDE22DE22262A2B
:10022800020E2664AAD70701F22B0C0E275E000ED9
:10023800285A5950020D000EF324D96E0A0EF420E4
:10024800DA6E27C5DEF428C5DDF40601DE07020EE6
:10025800285CD8A006D0000E2710276E200E281084
:10026800286E592A0F0E5964E8D6000E596EE5D645
:100278000601046F07D1C2800A0EE82EFED700D00F
:10028800210EBAEC4CF0C1EC4CF00009D8B4FBD705
:10029800F7EC4BF005C5DCF806C5DDF8C290020E98
:1002A800EED05B0E176E900E186E3F0E196E400E54
:1002B8001A6EDCC805F5DDC806F5076A086A000E7F
:1002C800FCEC22F005C513F506C514F507C515F5B0
:1002D80008C516F53DECF1F013C500F614C501F696
:1002E80015C502F616C503F6F30E176E5D0E186EE9
:1002F800040E196E400E1A6E00C613F501C614F5E9
:1003080002C615F503C616F53DECF1F013C52CF53C
:1003180014C52DF515C52EF516C52FF5000E306E32
:10032800000E316E800E326E450E336E2CECFDF0F1
:100338002CC5BCF82DC5BDF82EC5BEF82FC5BFF815
:10034800030E9DD0CD0E2C6ECC0E2D6E4C0E2E6E47
:10035800400E2F6EBCC830F5BDC831F5BEC832F5A9
:10036800BFC833F5F5EC2EF0D8A002D0010E01D0AD
:10037800000E0801E46F040E82D006010451D8B4BF
:1003880027D0000E0501BD6F0B0EBE6F620EBF6F4A
:10039800FE0EC06FBCC8C1F5BDC8C2F5BEC8C3F566
:1003A800BFC8C4F56EEC41F0000E336E000E326E1D
:1003B800010E356E360E346E000E366E0B0E376E2D
:1003C800010E386E3C0E396E010E3A6E8FECFAF063
:1003D800050E55D0000E0501BD6F0B0EBE6F8C0EBD
:1003E800BF6FFF0EC06FBCC8C1F5BDC8C2F5BEC89F
:1003F800C3F5BFC8C4F56EEC41F0000E336E180E9D
:10040800326E010E356E360E346E000E366E0B0EE1
:10041800376E010E386E3C0E396E010E3A6E8FEC57
:10042800FAF0060E2CD0CFBA15D0000E336E3C0E63
:10043800326E010E356E360E346EA70E366EFF0E16
:10044800376E010E386E300E396E010E3A6E8FEC33
:10045800FAF014D0000E336E3C0E326E010E356E7B
:10046800360E346E410E366EFB0E376E010E386E48
:10047800000E396E010E3A6E8FECFAF0000E07018D
:10048800F46F17D00701F451000AD8B4F4D6010A62
:10049800D8B4F1D6030AD8B404D7010AD8B452D7CD
:1004A800070AD8B46AD7010AD8B494D7030AD8B4CB
:1004B800BAD706010405D8A412000701F451D8B42C
:1004C8001200E0D74A6E4A50D8B4120021504A5C54
:1004D800D8B012001E04D8A408D0FF0E056E000E76
:1004E800066EFF0EDFEC4BF007D0600E056E600E57
:1004F800066E600EDFEC4BF04A50080DF3C422F58F
:10050800F4C423F522501F24246E23502020256E86
:1005180024C5F6F425C5F7F4000EF86E240EF7642A
:1005280007D00900F5C426F50900F5C427F508D059
:10053800F6C4E9F4F7C4EAF4EEC426F5EEC427F5E8
:10054800FC0E2624146EFF0E2720156E4A50080D47
:10055800F3C428F5F4C429F528501F242A6E29501D
:1005680020202B6E020E2A26000E2B222AC5F6F416
:100578002BC5F7F4000EF86E240EF76407D00900B7
:10058800F5C42CF50900F5C42DF508D0F6C4E9F436
:10059800F7C4EAF4EEC42CF5EEC42DF5FC0E2C24B9
:1005A800166EFF0E2D20176E4A50080DF3C42EF557
:1005B800F4C42FF52E501F24306E2F502020316E9A
:1005C800040E3026000E312230C5F6F431C5F7F49A
:1005D800000EF86E240EF76407D00900F5C432F552
:1005E8000900F5C433F508D0F6C4E9F4F7C4EAF411
:1005F800EEC432F5EEC433F54A50080DF3C434F5B1
:10060800F4C435F534501F24366E35502020376E2B
:1006180036C5F6F437C5F7F4000EF86E240EF76405
:1006280007D00900F5C438F50900F5C439F508D034
:10063800F6C4E9F4F7C4EAF4EEC438F5EEC439F5C3
:10064800325038243A6E335039203B6E010E3A242A
:10065800186E000E3B20196E4A50080DF3C43CF585
:10066800F4C43DF53C501F243E6E3D5020203F6EA3
:10067800060E3E26000E3F223EC5F6F43FC5F7F4AF
:10068800000EF86E240EF76407D00900F5C440F593
:100698000900F5C441F508D0F6C4E9F4F7C4EAF452
:1006A800EEC440F5EEC441F54A50080DF3C442F5D6
:1006B800F4C443F542501F24446E43502020456E35
:1006C800020E4426000E452244C5F6F445C5F7F44B
:1006D800000EF86E240EF76407D00900F5C446F53D
:1006E8000900F5C447F508D0F6C4E9F4F7C4EAF4FC
:1006F800EEC446F5EEC447F540504624486E4150D6
:100708004720496E010E48241A6E000E49201B6EC0
:100718008FEC3AF012000601026F100E076E050EFC
:10072800086E060E096E070E0A6E320E03EC3FF0D5
:1007380006010205D8A432D0000E0501BD6F0B0ECC
:10074800BE6FFB0EBF6FF80EC06F0BC6C1F5C26B54
:100758000AC6C3F5C46B09C6C5F5C66B07C6C7F597
:10076800C86B06C6C9F5CA6B05C6CBF5CC6B6EEC73
:1007780041F0000E336E6E0E326E010E356E360E7F
:10078800346E000E366E0B0E376E010E386E3F0E4D
:10079800396E010E3A6E8FECFAF0BAD0000E0C6F7B
:1007A800050E0C25D96EDA6A060EDA224A0E0C25D9
:1007B800E16EE26A0A0EE222DE50E618D8B43CD0B6
:1007C800000E0501BD6F0B0EBE6F300EBF6FFD0E24
:1007D800C06F050E06010C25D96EDA6A060EDA22FC
:1007E800DF50006F00510501C16FC26B6EEC41F024
:1007F8000CC605F5066AFF0E086EEE0E076EF1ECE4
:1008080049F0DA0E05240601036F000E0620046F76
:1008180003C632F504C633F5010E356E360E346E56
:10082800000E366E0B0E376E010E386E3F0E396EA7
:10083800010E3A6E8FECFAF006010C2B020E0C65D5
:10084800AFD7040E0C6F050E0C25D96EDA6A060EAA
:10085800DA224A0E0C25E16EE26A0A0EE222DE5026
:10086800E618D8B43CD0000E0501BD6F0B0EBE6F64
:10087800300EBF6FFD0EC06F050E06010C25D96E38
:10088800DA6A060EDA22DF50006F00510501C16FE7
:10089800C26B6EEC41F00CC605F5066AFF0E086ED9
:1008A800EE0E076EF1EC49F0E60E05240601036F23
:1008B800000E0620046F03C632F504C633F5010E98
:1008C800356E360E346E000E366E0B0E376E010E18
:1008D800386E3F0E396E010E3A6E8FECFAF0060153
:1008E8000C2B060E0C65AFD7000E0C6F050E0C25F1
:1008F800D96EDA6A060EDA224A0E0C25E16EE26A31
:100908000A0EE222DFC4E7F40C2B060E0C65EED7C4
:10091800300E0501BD6F230EBE6F240EBF6FFD0E96
:10092800C06F0BC6C1F5C26B0AC6C3F5C46B09C656
:10093800C5F5C66B6EEC41F03F0E0501BD6F230E89
:10094800BE6F0D0EBF6FF90EC06F07C6C1F5C26B43
:1009580006C6C3F5C46B05C6C5F5C66B6EEC41F09B
:100968001200DFC5D9F4E0C5DAF4DEC4E9F5DDC468
:10097800EAF5E1C5F6F4E2C5F7F4000EF86E240EC8
:10098800F76403D00800F55005D0F6C4E9F4F7C4BD
:10099800EAF4EF502F0AD8B42DD0E1C5F6F4E2C539
:1009A800F7F4000EF86E240EF76403D00800F55033
:1009B80005D0F6C4E9F4F7C4EAF4EF505C0AD8B4F9
:1009C80019D0050120EE13F0E951D926EA51DA22AF
:1009D80010EE06F0DF51E126E051E222DEC4E6F433
:1009E800DEC4E6F4DEC4E6F4DEC4E6F436D005017F
:1009F800E14BE22BE1C5F6F4E2C5F7F4000EF86E20
:100A0800240EF76403D00800F55005D0F6C4E9F4C5
:100A1800F7C4EAF4EF502F0AD8B4E9D7E1C5F6F4E1
:100A2800E2C5F7F4000EF86E240EF76403D0080050
:100A3800F55005D0F6C4E9F4F7C4EAF4EF505C0ABF
:100A4800D8B4D5D7050120EE06F0DF51D926E051FC
:100A5800DA22DE6ADE6ADE6ADD6AE1C5F6F4E2C53C
:100A6800F7F4000EF86E240EF76403D00800F55072
:100A780005D0F6C4E9F4F7C4EAF4EF500501E36FD2
:100A8800200EE36118D020EE27F0DF51D926E0517F
:100A9800DA22800EDF6EDFC599F5E0C59AF5000E03
:100AA8009B6F000E9C6F000E9D6F000E9E6F97EC63
:100AB800F7F0050137D0DFC50DF5E0C50EF5E10EFD
:100AC8000F6E050E106EACECE8F00501EC6FEC5102
:100AD800D8A466D0DFC5D7F5E0C5D8F5DAEC24F0A0
:100AE8000501EC6F20EE27F0DF51D926E051DA221C
:100AF800DF50EB6FEC51D8B417D0040EEC19D8A422
:100B08004FD0EBAB0CD0EBA5D6D720EE27F0DF51BA
:100B1800D926E051DA22800EDF6E000E03D0EBB545
:100B28003FD0050EEC6F3CD0EBB53AD020EE04F088
:100B3800DF51D926E051DA22DFA8F3D7E9C50CF551
:100B4800EAC50DF520EE0EF0DF51D926E051DA2284
:100B5800DEC4E3F5DDC4E4F5FF0EE315E56F010E31
:100B6800E415E66FE551E925E76FE651EA21E86FFC
:100B7800330EE7250E6E000EE8210F6E18EC3DF0DF
:100B8800050120EE06F0DF51D926E051DA220CC526
:100B9800DEF40DC5DEF40EC5DEF40FC5DEF48BD72A
:100BA800EC5112000B0E156E0701DC51166EDD516B
:100BB800176E186A196AD89016341A6E17341B6E95
:100BC80018341C6E19341D6E030E1E6E11C51FF5E8
:100BD80012C520F513C521F514C522F51E6601D0EE
:100BE80007D022342232213220321F321E2EF6D76D
:100BF8001A501F5C056E1B502058066E1C50215859
:100C0800076E1D502258086ED4C909F5D5C90AF5D2
:100C1800000E0ABEFF0E0B6E0C6E78EC40F01566E7
:100C280001D007D008340832073206320532152EB3
:100C3800F6D705C528F506C529F507C52AF508C557
:100C48002BF50C0E156E0701DC51166EDD51176E73
:100C5800186A196A040E1A6E11C51BF512C51CF51F
:100C680013C51DF514C51EF51A6601D007D01E342C
:100C78001E321D321C321B321A2EF6D716501B5C40
:100C8800056E17501C58066E18501D58076E1950DF
:100C98001E58086E0701DC511F6EDD51206E216A57
:100CA800226A040E236E11C524F512C525F513C555
:100CB80026F514C527F5236601D007D02734273237
:100CC800263225322432232EF6D71F50245C096E93
:100CD800205025580A6E215026580B6E225027584E
:100CE8000C6E78EC40F0156601D007D00834083255
:100CF800073206320532152EF6D705C534F506C576
:100D080035F507C536F508C537F50E0E156E34C529
:100D180005F535C506F536C507F537C508F5D2C951
:100D280009F5D3C90AF5000E0ABEFF0E0B6E0C6E4C
:100D380078EC40F0156601D007D008340832073245
:100D480006320532152EF6D705C52CF506C52DF544
:100D580007C52EF508C52FF52C5028240801A86FC3
:100D68002D502920A96F2E502A20AA6F2F502B20F2
:100D7800AB6FA8C805F5A9C806F5AAC807F5ABC89A
:100D880008F5050E096E000E0A6E000E0B6E000EB9
:100D98000C6E78EC40F0800E0524156E000E0620CF
:100DA800166E000E0720176E000E0820186E16C566
:100DB80015F517C516F518C517F5186A17BE18687A
:100DC80015C530F516C531F517C532F518C533F513
:100DD80030C511F531C512F532C513F533C514F513
:100DE800120060C513F561C514F562C515F563C534
:100DF80016F560C517F561C518F562C519F563C51F
:100E08001AF53DECF1F013C57CF514C57DF515C553
:100E18007EF516C57FF57CC513F57DC514F57EC531
:100E280015F57FC516F57CC517F57DC518F57EC582
:100E380019F57FC51AF53DECF1F013C568F514C531
:100E480069F515C56AF516C56BF53C0E176E6C0E7F
:100E5800186E360E196E360E1A6E7CC513F57DC5E2
:100E680014F57EC515F57FC516F53DECF1F013C5F3
:100E780045F514C546F515C547F516C548F5CF0E11
:100E8800496E070E4A6E500E4B6EB90E4C6E11EC41
:100E9800F6F045C564F546C565F547C566F548C528
:100EA80067F57CC513F57DC514F57EC515F57FC5B9
:100EB80016F560C517F561C518F562C519F563C55E
:100EC8001AF53DECF1F013C578F514C579F515C59B
:100ED8007AF516C57BF5AB0E496EAA0E4A6E2A0E38
:100EE8004B6EBE0E4C6E840E176E880E186E080E72
:100EF800196E3C0E1A6E7CC513F57DC514F57EC5BA
:100F080015F57FC516F53DECF1F013C545F514C58B
:100F180046F515C547F516C548F511ECF6F045C573
:100F28006CF546C56DF547C56EF548C56FF568C5DE
:100F380017F569C518F56AC519F56BC51AF578C5A9
:100F480013F579C514F57AC515F57BC516F53DEC8D
:100F5800F1F013C570F514C571F515C572F516C510
:100F680073F560C549F561C54AF562C54BF563C5BA
:100F78004CF578C517F579C518F57AC519F57BC507
:100F88001AF56CC513F56DC514F56EC515F56FC565
:100F980016F53DECF1F013C545F514C546F515C534
:100FA80047F516C548F511ECF6F045C574F546C584
:100FB80075F547C576F548C577F574C545F575C522
:100FC80046F576C547F577C548F564C517F565C58F
:100FD80018F566C519F567C51AF570C513F571C515
:100FE80014F572C515F573C516F53DECF1F013C58A
:100FF80049F514C54AF515C54BF516C54CF511EC60
:10100800F6F045C560F546C561F547C562F548C5C2
:1010180063F512002104D8A46BD020C505F5066A33
:101028002050080DF3C407F5F4C408F5F1EC49F0B5
:1010380005C528F506C529F528C505F529C506F508
:10104800000E086E120E076EF1EC49F005C526F584
:1010580006C527F520C50BF5000E0C6E1F50A3EC36
:101068001DF02050060DF3C422F5F4C423F51B50DF
:1010780022261C502322FF0E22242C6EFF0E232032
:101088002D6E2050226E236AD89022362336D890AF
:1010980022362336D890223623361D5022261E505B
:1010A8002322FF0E22242E6EFF0E23202F6EEBEC40
:1010B8004BF01BC508F51CC509F52CC50AF52DC54F
:1010C8000BF51DC50CF51EC50DF52EC50EF52FC566
:1010D8000FF54EEC43F0CC0E086E190E096E26C5BE
:1010E8000AF527C50BF579EC44F087EC4CF01200B3
:1010F800EBEC4BF0000E316E050E31601CD01F502A
:10110800050DA90EF324226EEF0EF420236E315044
:101118002226000E2322600E2224246EFF0E232096
:10112800256E24C5F6F425C5F7F4000EF86E080000
:10113800F5C42BF502D0000E2B6E000E306E315028
:101148002002F3C422F5F4C423F51B5022242C6E8C
:101158001C5023202D6E30502002F3C422F5F4C415
:1011680023F51D5022242E6E1E5023202F6E2CC5D1
:1011780008F52DC509F520502C24226E000E2D20CF
:10118800236EFF0E22240A6EFF0E23200B6E2EC53F
:101198000CF52FC50DF520502E24246E000E2F209F
:1011A800256EFF0E24240E6EFF0E25200F6E4EECCA
:1011B80043F0000E2A6E26D030C522F52BC523F544
:1011C800222A02D0D8902332222EFCD723A00DD079
:1011D8000701FB513DEC4CF00701FC513DEC4CF094
:1011E8000701FD513DEC4CF00CD02104D8A409D0E6
:1011F800000E3DEC4CF0000E3DEC4CF0000E3DECCA
:101208004CF02A2A205020022A50226E236AF350DA
:10121800225C2350800A246EF450800A2458D8A0F7
:10122800CBD7302A070E30648AD7312A050E3164AD
:1012380063D75BD760C513F561C514F562C515F5AD
:1012480063C516F560C517F561C518F562C519F5CA
:1012580063C51AF53DECF1F013C578F514C579F5B9
:1012680015C57AF516C57BF578C513F579C514F556
:101278007AC515F57BC516F578C517F579C518F53E
:101288007AC519F57BC51AF53DECF1F013C574F56F
:1012980014C575F515C576F516C577F5170E176ECD
:1012A8009A0E186ECC0E196E370E1A6E78C513F595
:1012B80079C514F57AC515F57BC516F53DECF1F041
:1012C80013C545F514C546F515C547F516C548F5C2
:1012D8003F0E496E040E4A6EB60E4B6EBA0E4C6E39
:1012E80011ECF6F045C564F546C565F547C566F5E4
:1012F80048C567F5000E496E000E4A6E800E4B6EAB
:101308003F0E4C6E000E176E000E186E000E196E12
:10131800BF0E1A6E78C513F579C514F57AC515F59B
:101328007BC516F53DECF1F013C545F514C546F53A
:1013380015C547F516C548F511ECF6F045C568F52D
:1013480046C569F547C56AF548C56BF578C517F50B
:1013580079C518F57AC519F57BC51AF574C513F55D
:1013680075C514F576C515F577C516F53DECF1F09C
:1013780013C56CF514C56DF515C56EF516C56FF575
:101388009F0E176EAA0E186E2A0E196E3D0E1A6E53
:1013980074C513F575C514F576C515F577C516F535
:1013A8003DECF1F013C549F514C54AF515C54BF5E3
:1013B80016C54CF568C545F569C546F56AC547F5CE
:1013C8006BC548F511ECF6F045C570F546C571F5E5
:1013D80047C572F548C573F570C545F571C546F53D
:1013E80072C547F573C548F564C517F565C518F5A1
:1013F80066C519F567C51AF56CC513F56DC514F5FD
:101408006EC515F56FC516F53DECF1F013C549F538
:1014180014C54AF515C54BF516C54CF511ECF6F093
:1014280045C560F546C561F547C562F548C563F52C
:1014380012000601086F990E0501BD6F230EBE6FDD
:10144800E50EBF6FF90EC06F650EC16F0A0EC26F51
:101458006EEC41F0D50E0501BD6F230EBE6F3F0E39
:10146800BF6FFB0EC06F6EEC41F0E40E0501BD6F5F
:10147800230EBE6F3C0EBF6FFB0EC06F6EEC41F0CB
:1014880006010851D8A40CD0000E0501BD6F0B0E43
:10149800BE6F120EBF6FFF0EC06F6EEC41F0B0D082
:1014A8005850330DD20EF324D96E150EF420DA6E8F
:1014B800DE50DE10DE10DE10D8A40FD0000E0501BD
:1014C800BD6F0B0EBE6F190EBF6FFF0EC06F6EECB7
:1014D80041F0300E0601086F93D0000E2C6EC00E3E
:1014E8002D6E790E2E6E440E2F6E5850330DDA0E77
:1014F800F324D96E150EF420DA6EDEC430F5DEC49E
:1015080031F5DEC432F5DEC433F5F5EC2EF0D8B093
:101518000CD0000E0501BD6F0B0EBE6FB10EBF6F74
:10152800FE0EC06F6EEC41F0D4D75850330DD60E76
:10153800F324D96E150EF420DA6EDEC413F5DEC47A
:1015480014F5DEC415F5DEC416F5000E176E240E6C
:10155800186E740E196E490E1A6E3DECF1F013C533
:1015680004F614C505F615C506F616C507F6D50E14
:101578000501BD6F230EBE6F500EBF6FFF0EC06F0B
:1015880004C6C1F505C6C2F506C6C3F507C6C4F547
:101598006EEC41F0000E0501BD6F0B0EBE6F500ED4
:1015A800BF6FFF0EC06F5850330DDA0EF324D96E9B
:1015B800150EF420DA6EDEC4C1F5DEC4C2F5DEC451
:1015C800C3F5DEC4C4F56EEC41F0E40E0501BD6F51
:1015D800230EBE6F860EBF6FFF0EC06F5850330DBF
:1015E800DA0EF324D96E150EF420DA6EDEC4C1F5D6
:1015F800DEC4C2F5DEC4C3F5DEC4C4F56EEC41F04A
:10160800000E336E240E326E000E356E140E346EDC
:10161800000E366E0B0E376E020E386E08C639F5A0
:10162800010E3A6E8FECFAF01200DBD00601D551AC
:101638002FEC42F00009D8B42CD0020E0601FB1999
:10164800D8A414D0B00E0501BD6FFD0EBE6FA60E56
:101658000601D525D96EDA6A0D0EDA22DF500501AA
:10166800D26FD251BF6FC06B8FEC49F0A60E060146
:10167800D525D96EDA6A0D0EDA22420EDE18D8A404
:1016880003D0D52B010EAAD0000ED56F000E07018E
:10169800E76F010E0501D66FBDD00601D5512FECBD
:1016A80042F00009D8B4F5D7A60E0601D525D96EA3
:1016B800DA6A0D0EDA22490EDE18D8A4E5D7D52B42
:1016C800020E8CD00601D5512FEC42F00009D8B497
:1016D800E0D7A60E0601D525D96EDA6A0D0EDA22F4
:1016E8004E0EDE18D8A4D0D7D52B030E77D006011E
:1016F800D5512FEC42F00009D8B4CBD70601D52B31
:10170800A50ED525D96EDA6A0D0EDA222C0EDE1852
:10171800D8B403D0290ED565BCD7A60ED525D96E69
:10172800DA6A0D0EDA22DF6A020EFB19D8A40BD092
:101738002D0E0501BD6FFA0EBE6FA60EBF6F0D0E02
:10174800C06F8FEC49F0040EA2D7A60EB66F0D0E2F
:10175800B76F870EB86FF90EB96FD0C5BAF5D1C596
:10176800BBF5040ED025BC6F000ED121BD6F080E4D
:10177800D025BE6F000ED121BF6FF6EC40F0B6C584
:10178800D4F5B7C5D5F5030E0501D419D511D8B4CC
:1017980002D0030E1ED020EE08F0D051D926D15128
:1017A800DA22DEC405F5DEC406F5DEC407F5DEC4BC
:1017B80008F5000E096E000E0A6E000E0B6E000E84
:1017C8000C6ED4EC3AF0D8A002D0020E01D0000E74
:1017D8000501D66F000E0601D56F000E0701E76FF1
:1017E80019D00701E7510501D26FD36BD351000A15
:1017F800D8A410D0D251000AD8B418D7010AD8B446
:101808004CD7030AD8B45ED7010AD8B470D7070AF0
:10181800D8B49BD70501D6511200000E066E060EED
:10182800056EAFEC4BF00601FE6FFEBF05D0FE5112
:10183800800A1C0FD8A002D00A0EFE6F000E066E9A
:10184800070E056EAFEC4BF0576E57500601F76F59
:10185800F86B000E066E080E056EAFEC4BF0060135
:10186800F827F8BF08D0F8BF0AD0E80EF75D030ED6
:10187800F859D8A004D0000EF86F000EF76F000ECC
:10188800066E090E056EAFEC4BF00601FD6FFD51BB
:10189800D8B403D0100EFD6502D0010EFD6F000E06
:1018A800066E0A0E056EAFEC4BF0576E57500601E8
:1018B800F96FFA6B000E066E0B0E056EAFEC4BF06F
:1018C8000601FA27FABF0ED0FA5104E1640EF95D59
:1018D800D8A008D0FABF0AD0F50EF95D010EFA5962
:1018E800D8A004D0010EFA6F180EF96F000E066E1C
:1018F8000C0E056EAFEC4BF00601FC6FFC51D8B432
:1019080003D0080EFC6502D0010EFC6F000E066EB7
:101918000D0E056EAFEC4BF0576E57500601F56F84
:10192800F66B000E066E0E0E056EAFEC4BF0060160
:10193800F627F6BF08D0F6BF0AD0590EF55D020E9D
:10194800F659D8A004D0000EF66F960EF56F000E6B
:10195800066E0F0E056EAFEC4BF00801FB6FFB51E6
:10196800D8B403D0020EFB6502D0010EFB6F000E47
:10197800066E100E056EAFEC4BF00801FA6FFA51C7
:10198800800AA80FD8A005D0FA51800A5C0FD8A009
:1019980002D0F10EFA6F000E066E110E056EAFEC56
:1019A8004BF00801F96FF951800A620FD8A005D0F1
:1019B800F951800A070FD8A002D04A0EF96F000E1D
:1019C800066E120E056EAFEC4BF0576E57500801BD
:1019D800F76FF86B000E066E130E056EAFEC4BF04A
:1019E8000801F827F8BF08D0F8BF0AD0F85104E179
:1019F800FB0EF75DD8A004D0000EF86F5A0EF76FF3
:101A080015EC15F0120074C562F575C563F531EC77
:101A18001CF005017E6F7E51D8A4E5D074C5D9F4B9
:101A280075C5DAF4030EDE18D8A4C8D020EE04F089
:101A38007451D9267551DA22DE04D8A4BFD0330EEA
:101A48007425056E000E7521066E000E086E000ED8
:101A5800076E020E0A6E000E096E67EC49F0310E31
:101A680005017425056E020E7521066EAA0E086E14
:101A7800550E076E7BEC49F0330E05017425226E76
:101A8800000E7521236E520E246E520E256E610EC5
:101A9800266E410E276EFDEC3DF0170E05017425EC
:101AA800226E020E7521236E720E246E720E256E42
:101AB800410E266E610E276EFDEC3DF01B0E0501F2
:101AC8007425226E020E7521236E20EE0FF07451DC
:101AD800D9267551DA22DEC424F5DEC425F5DEC424
:101AE80026F5DEC427F5FDEC3DF01F0E0501742533
:101AF800226E020E7521236E20EE0BF07451D9264A
:101B08007551DA22DEC424F5DEC425F5DEC426F5D7
:101B1800DEC427F5FDEC3DF0050120EE1FF0745101
:101B2800D9267551DA22DEC476F5DEC477F5DEC42F
:101B380078F5DEC479F5010E76257A6F000E7721E7
:101B48007B6F000E78217C6F000E79217D6F20EE6F
:101B58002FF07451D9267551DA227AC5DEF47BC587
:101B6800DEF47CC5DEF47DC5DEF4330E74254F6EDD
:101B7800000E7521506E20EE2FF07451D926755144
:101B8800DA22DEC451F5DEC452F5DEC453F5DEC4F4
:101B980054F5000E566E010E556E20EE01F074518C
:101BA800D9267551DA22DF5096EC41F0050120EE76
:101BB80004F07451D9267551DA22DF6A000E056ED9
:101BC800000E066E000E076E20EE01F07451D92645
:101BD8007551DA22DF5017EC4CF00009D8B403D065
:101BE800010E05017E6F05017E5112007FC507F5C4
:101BF80080C508F5880E096E050E0A6E81EC32F074
:101C08000501856F8551D8A4DFD020EE0EF07F51F5
:101C1800D9268051DA22DFACD7D020EE0EF07F51E2
:101C2800D9268051DA22DFAE2FD0220E7F254F6EC3
:101C3800000E8021506E20EE18F07F51D926805179
:101C4800DA22DEC451F5DEC452F5DEC453F5DEC433
:101C580054F5000E566E010E556E20EE01F08851B7
:101C6800D9268951DA22DF5096EC41F00009D8B420
:101C780002D0010E1200050120EE0EF07F51D92688
:101C88008051DA227F0EDF1628EC39F014C581F571
:101C980015C582F516C583F517C584F588C574F58D
:101CA80089C575F5050120EE1CF07F51D9268051B4
:101CB800DA22DEC476F5DEC477F5DEC478F5DEC454
:101CC80079F507EC35F00501856F8551D8A47CD0EE
:101CD80020EE20F07F51D9268051DA22DEC486F525
:101CE800DDC487F520EE0BF08651D9268751DA221C
:101CF800000EDB8A7FC5D9F480C5DAF4DEC409F5A5
:101D0800DDC40AF586C50BF587C50CF520EE06F08F
:101D18007F51D9268051DA22DEC40DF5DEC40EF5D6
:101D2800DEC40FF5DEC410F5D4EC43F01C0E05013B
:101D38008625226E000E8721236E20EE0AF07F5141
:101D4800D9268051DA22DEC424F5DEC425F5DEC4A6
:101D580026F5DEC427F5FDEC3DF0160E05018625B7
:101D6800226E000E8721236E81C524F582C525F5D4
:101D780083C526F584C527F5FDEC3DF0120E050157
:101D88008625056E000E8721066E000E086E000E71
:101D9800076E7BEC49F0050120EE03F08851D92647
:101DA8008951DA22010EDF6E88C574F589C575F58B
:101DB80007EC0DF00501856F20EE0EF07F51D92656
:101DC8008051DA22BF0EDF1685511200ECC91DF5CD
:101DD800EDC91EF5EEC91FF5EFC920F5030E152450
:101DE800196E000E16201A6E1950175C1850800ACA
:101DF8001B6E1A50800A1B58D8B005D0000E136EFF
:101E0800000E126E120015C529F516C52AF514C55F
:101E180019F5BF0E1926190E196404D014C523F537
:101E2800246A08D0200E14C519F51A6A1910236EF1
:101E38001A50246E690E23182410D8B402D0010E4B
:101E480001D0000E216E226A790E2924D96E0E0E59
:101E58002A20DA6E14C5DFF4294A2A2A54D012C57A
:101E680009F513C50AF5A6EC2DF009C527F50AC52D
:101E780028F5272808E12828D8A405D027C512F571
:101E880028C513F5120027C519F5BF0E1926190E16
:101E9800196405D027C525F528C526F505D0200ED7
:101EA8002710256E2850266ED8902134D96E2234FA
:101EB800DA6E1D0ED926050EDA22DEC419F5DDC448
:101EC8001AF51550195E16501A5A295019262A5013
:101ED8001A2219C5F6F41AC5F7F4000EF86E0800B0
:101EE800F5501B6E1C6A25501B181DE126501C1846
:101EF800D8A419D0790E2924D96E0E0E2A20DA6EAC
:101F080027C5DFF4A9D7030E1524196E000E162075
:101F18001A6E1950295C2A50800A1B6E1A50800AC2
:101F28001B58D8A09CD7030E1524196E000E162036
:101F38001A6E1950295C2A50800A1B6E1A50800AA2
:101F48001B58D8B02AD027C505F528C506F512C5EF
:101F580007F513C508F54AEC3AF014D02906D8A0BD
:101F68002A06790E2924D96E0E0E2A20DA6EDF5041
:101F7800196E1950056E066A12C507F513C508F5DE
:101F88004AEC3AF02950155C1650800A196E2A500E
:101F9800800A1958D8B032D7E1D7000E136E030E55
:101FA800126E120018500108206E1950D8A0E82AA5
:101FB8000008216E000E1D6E010E1C6E18C51AF564
:101FC80019C51BF5D8901A361B361A1E1B1E1A4A3D
:101FD8001B2A1AC51EF51BC51FF5000E236E000E21
:101FE800226E18C524F519C525F514C510F515C5B3
:101FF80011F518501624126E19501720136E1FEC85
:1020080040F014C510F515C511F51850165C126E80
:1020180019501758136E1FEC40F018501424106E06
:1020280019501520116E16C512F517C513F51FECBA
:1020380040F01850145C106E19501558116E16C5E2
:1020480012F517C513F51FEC40F087D021BE0BD051
:102058002406D8A02506020E1E26000E1F221E509A
:1020680020261F502122224A232A020E1C26000E57
:102078001D221C5020261D50212214502224106E8F
:1020880015502320116E16502424126E1750252047
:10209800136E1FEC40F02250145C106E235015583C
:1020A800116E16502424126E17502520136E1FEC43
:1020B80040F014502224106E15502320116E245025
:1020C800165C126E25501758136E1FEC40F0225004
:1020D800145C106E23501558116E2450165C126E45
:1020E80025501758136E1FEC40F014502424106E1E
:1020F80015502520116E16502224126E17502320D9
:10210800136E1FEC40F02450145C106E25501558C7
:10211800116E16502224126E17502320136E1FECD6
:1021280040F014502424106E15502520116E2250B2
:10213800165C126E23501758136E1FEC40F0245093
:10214800145C106E25501558116E2250165C126ED4
:1021580023501758136E1FEC40F02450225C235074
:10216800800A1A6E2550800A1A58D8B012006ED705
:10217800880E076E0F0E086E050E096E180E0A6E91
:10218800760E03EC3FF00F5010C50CF50D6A0CC528
:102198000DF50C6A0C100701DC6F0D50DD6F115046
:1021A80012C50CF50D6A0CC50DF50C6A0C10090169
:1021B800D46F0D50D56F135014C50CF50D6A0CC5AE
:1021C8000DF50C6A0C10D26F0D50D36F155016C553
:1021D8000CF50D6A0CC50DF50C6A0C10EA6F0D5064
:1021E800EB6F175018C50CF50D6A0CC50DF50C6A88
:1021F8000C10D06F0D50D16F19501AC50CF50D6A1F
:102208000CC50DF50C6A0C10CE6F0D50CF6F1B501E
:102218001CC50CF50D6A0CC50DF50C6A0C10CC6FBD
:102228000D50CD6F1D501EC50CF50D6A0CC50DF572
:102238000C6A0C10CA6F0D50CB6F1F5020C50CF5DF
:102248000D6A0CC50DF50C6A0C10C86F0D50C96FDE
:10225800215022C50CF50D6A0CC50DF50C6A0C1041
:10226800C66F0D50C76F235024C50CF50D6A0CC5F9
:102278000DF50C6A0C10C46F0D50C56F255026C59E
:102288000CF50D6A0CC50DF50C6A0C10C26F0D50DB
:10229800C36FA10E076E760E09EC42F00701ED6FD1
:1022A800E10E076E0F0E086E050E096E070E0A6E18
:1022B800760E03EC3FF00F5010C50CF50D6A0CC5F7
:1022C8000DF50C6A0C100901C06F0D50C16F11C5D6
:1022D800ECF712500C6E0D6A0C3A0D3AF00E0D1612
:1022E8000C500F0B0D12F00E0C1613C50EF50F0E39
:1022F8000E160E500C10BE6F0D50BF6F14500C6EA2
:102308000D6A0C3A0D3AF00E0D160C500F0B0D120B
:10231800F00E0C1613C50EF50E3A0F0E0E160F0E14
:102328000E160E500C10BC6F0D50BD6F15C5EBF797
:102338001200576E200E0501BD6F240EBE6F3D0EB4
:10234800BF6FFB0EC06F6EEC41F02F0E0501BD6F25
:10235800240EBE6F3D0EBF6FFB0EC06F6EEC41F0DA
:102368005750D8A40CD0000E0501BD6F0B0EBE6FE0
:10237800330EBF6FFB0EC06F6EEC41F0A5D0585006
:10238800330DF60EF324D96E150EF420DA6EDEC482
:102398002CF5DEC42DF5DEC42EF5DEC42FF5330E84
:1023A800306EF30E316EC70E326E430E336EF5EC9F
:1023B8002EF0D8B01CD05850330DFA0EF324D96E35
:1023C800150EF420DA6EDEC42CF5DEC42DF5DEC45D
:1023D8002EF5DEC42FF5330E306EF30E316EC70EB8
:1023E800326E430E336EF5EC2EF0D8A00CD0000EF2
:1023F8000501BD6F0B0EBE6F0C0EBF6FFC0EC06FDC
:102408006EEC41F061D0000E0501BD6F0B0EBE6F82
:10241800350EBF6FFD0EC06F5850330DF60EF32406
:10242800D96E150EF420DA6EDEC4C1F5DEC4C2F52D
:10243800DEC4C3F5DEC4C4F55850330DFA0EF324D8
:10244800D96E150EF420DA6EDEC4C5F5DEC4C6F505
:10245800DEC4C7F5DEC4C8F56EEC41F0200E0501F8
:10246800BD6F240EBE6F620EBF6FFF0EC06F585057
:10247800330DF60EF324D96E150EF420DA6EDEC491
:10248800C1F5DEC4C2F5DEC4C3F5DEC4C4F56EEC26
:1024980041F02F0E0501BD6F240EBE6F620EBF6F97
:1024A800FF0EC06F5850330DFA0EF324D96E150E77
:1024B800F420DA6EDEC4C1F5DEC4C2F5DEC4C3F5AD
:1024C800DEC4C4F56EEC41F0000E336E020E326EBF
:1024D800000E356E280E346E000E366E0B0E376EFB
:1024E800010E386E57C539F5010E3A6E8FECFAF0C9
:1024F8001200A0C5D9F4A1C5DAF4DEC4B7F5DDC46D
:10250800B8F50501A551A411A31104E1020EA25DBD
:10251800D8A010D020EE17F0B751D926B851DA223A
:10252800DE50A25DDE50A359DE50A459DE50A559F5
:10253800D8A002D0020E1200A651A711A811A91105
:10254800D8B41DD0B7C57FF5B8C580F5A6C581F547
:10255800A7C582F5A8C583F5A9C584F5FF0E856FC3
:10256800FF0E866FFF0E876FFF0E886F0FECD9F096
:102578000501B66FB651D8B402D0B6511200A0C545
:102588007FF5A1C580F5A2C581F5A3C582F5A4C5CF
:1025980083F5A5C584F52FECECF07FC5B2F580C5B1
:1025A800B3F581C5B4F582C5B5F50501B251B311CE
:1025B800B411B511D8B479D0B205B311B411B511AD
:1025C800D8B4B8D7B22909E1B32907E1B42905E19C
:1025D800B529D8A402D0010E1200B7C57FF5B8C539
:1025E80080F5A2C581F5A3C582F5A4C583F5A5C567
:1025F80084F5000E856F000E866F000E876F000E43
:10260800886F0FECD9F00501B66FB651D8A4B5D7CD
:1026180020EE17F0B751D926B851DA22FE0EDE2483
:10262800AA6FFF0EDE20AB6FFF0EDE20AC6FFF0E31
:10263800DE20AD6F20EE0FF0B751D926B851DA225F
:10264800AA51DE5CAB51DE58AC51DE58AD51DE58B4
:10265800D8B013D020EE0FF0B751D926B851DA22EE
:10266800DE2A000EDE22DE22DE2220EE04F0B75142
:10267800D926B851DA22000EDB80B2C5A2F5B3C55F
:10268800A3F5B4C5A4F5B5C5A5F520EE17F0B75167
:10269800D926B851DA22DE50A25DDE50A359DE50A9
:1026A800A459DE50A559D8A06AD7000E12001A0EF8
:1026B800F66E5D0EF76E000EF86E05EE00F110EE88
:1026C800D0F00900F5C4EEF4E550E150FAE1D00E7F
:1026D800F66E7C0EF76E000EF86E04EE00F310EE48
:1026E80068F00900F5C4EEF4E550E150FAE1980EFF
:1026F800F66E800EF76E000EF86E02EE7AF210EEAD
:1027080058F00900F5C4EEF4E550E150FAE10D0E79
:10271800F66E9B0EF76E000EF86E02EEECF110EE00
:102728000AF00900F5C4EEF4E550E150FAE1560E5E
:10273800F66E980EF76E000EF86E02EEEEF010EEE2
:1027480012F00900F5C4EEF4E550E150FAE1900EFC
:10275800F66E9C0EF76E000EF86E0900F5C4FEF7D3
:10276800020EF66E9B0EF76E000EF86E01EEF5F295
:1027780010EE0BF00900F5C4EEF4E550E150FAE173
:1027880005EED0F113EEC8F2EE6AE550E150FCE137
:10279800E250FAE105EE00F0A20EEE6AE806FDE16D
:1027A80004EE00F2A20EEE6AE806FDE104EE00F186
:1027B800A20EEE6AE806FDE104EE00F010EE00F16C
:1027C800EE6AE550E150FCE1E250FAE103EE00F375
:1027D800F00EEE6AE806FDE103EE00F2C90EEE6ABD
:1027E800E806FDE103EE00F1F70EEE6AE806FDE10A
:1027F80003EE00F0F60EEE6AE806FDE102EE00F3E5
:1028080010EE00F1EE6AE550E150FCE1E250FAE129
:1028180002EE00F27A0EEE6AE806FDE102EE00F141
:10282800EC0EEE6AE806FDE102EE78F0760EEE6A4E
:10283800E806FDE101EEC3F33B0EEE6AE806FDE1B2
:1028480001EEBDF2380EEE6AE806FDE15B6A5A6AEF
:10285800596A586A0401080E5D6F000E5E6F000E1B
:102868005F6F000170EFFEF02FC966F530C967F59C
:1028780031C968F532C969F545C566F546C567F5D4
:1028880047C568F548C569F5810E496EFF0E4A6E61
:1028980066C54BF567C54CF568C54DF569C54EF578
:1028A800180E05D0D8904E324D324C324B32E82EAD
:1028B800F9D74B5049240501646F000E4A20656F13
:1028C80065BF0FD0655104E1170E645DD8A009D02B
:1028D80045C545F546C546F547C547F548C548F5D4
:1028E800120065BF5FD064C549F5FF0E4A6EFF0E42
:1028F8004B6E7F0E4C6E000E4D6E496601D007D0B0
:102908004D344D324C324B324A32492EF6D74AC5F5
:1029180060F54BC561F54CC562F54DC563F505011C
:1029280060516615496E615167154A6E62516815A6
:102938004B6E635169154C6E49504A104B104C1040
:10294800D8B4C6D766C549F567C54AF568C54BF515
:1029580069C54CF5200E05D0D8904C324B324A321E
:102968004932E82EF9D749504A104B104C10D8B4C8
:1029780008D060516627615167236251682363510B
:102988006923601D496E611D4A6E621D4B6E631D91
:102998004C6E495066174A5067174B5068174C5091
:1029A800691736D066C549F567C54AF568C54BF558
:1029B80069C54CF5200E05D0D8904C324B324A32BE
:1029C8004932E82EF9D749504A104B104C10D8A478
:1029D80008D0000E666F000E676F000E686F000E5D
:1029E80016D0D8906635496E67354A6E68354B6E95
:1029F80069354C6E49504A104B104C10D8B408D069
:102A0800000E666F000E676F800E686FBF0E696FED
:102A180066C545F567C546F568C547F569C548F50E
:102A28001200000E306E000E316E7A0E326E440EB9
:102A3800336EF7C605F5F8C606F5000E06BEFF0E9E
:102A4800076E086E010EFCEC22F005C52CF506C5D4
:102A58002DF507C52EF508C52FF52CECFDF02CC576
:102A680045F52DC546F52EC547F52FC548F5060190
:102A7800FE51056E000E05BEFF0E066E076E086E4F
:102A8800010EFCEC22F005C549F506C54AF507C557
:102A98004BF508C54CF511ECF6F045C500F646C5F2
:102AA80001F647C502F648C503F67B0E0501BD6F62
:102AB800230EBE6F620EBF6FFF0EC06F00C6C1F55A
:102AC80001C6C2F502C6C3F503C6C4F56EEC41F0F3
:102AD8008A0E0501BD6F230EBE6FE50EBF6FF90E9E
:102AE800C06F0601FD510D0D000EF3240501C16FE5
:102AF800150EF420C26F6EEC41F0F9C605F5FAC662
:102B080006F5000E06BEFF0E076E086E010EFCEC01
:102B180022F005C52CF506C52DF507C52EF508C507
:102B28002FF5000E306E000E316E7A0E326E440EA6
:102B3800336E2CECFDF02CC504F62DC505F62EC51C
:102B480006F62FC507F6A80E0501BD6F230EBE6F4A
:102B58005C0EBF6FFF0EC06F04C6C1F505C6C2F597
:102B680006C6C3F507C6C4F56EEC41F0B70E0501FD
:102B7800BD6F230EBE6FE50EBF6FF90EC06F060165
:102B8800FC510D0D000EF3240501C16F130EF42046
:102B9800C26F6EEC41F0C60E0501BD6F230EBE6F0D
:102BA800C00EBF6FFF0EC06FF5C6C1F5F6C6C2F501
:102BB8006EEC41F0110E0501BD6F240EBE6FBC0E08
:102BC800BF6FFF0EC06F0801F9510501C16FC26BDD
:102BD800C1BFC2076EEC41F01200BFD00801E40586
:102BE800D8A41200010E0701F36F000E0801E46F6C
:102BF80012000A0E0601E36F020E0701F36F1200BE
:102C08000801E451D8A403D0030E0701F36F000EA6
:102C18000501BD6F0B0EBE6F920EBF6FFD0EC06F2C
:102C28000601E3510501C16FC26BC1BFC2076EEC5B
:102C380041F0000E336E000E326E010E356E2C0E12
:102C4800346E000E366E0B0E376E010E386E310E76
:102C5800396E010E3A6E8FECFAF00601E307E35184
:102C6800800A7F0FD8B01200040E0701F36F12001C
:102C7800000E0501BD6F0B0EBE6F370EBF6FFB0E4A
:102C8800C06F6EEC41F0000E336E000E326E010E16
:102C9800356E2C0E346E000E366E0B0E376E010E2E
:102CA800386E000E396E010E3A6E8FECFAF0000E97
:102CB8000701F36F070EEBECBDF01200000E056E76
:102CC800000E066E000EDFEC4BF0000E116E0A0EC1
:102CD800106E000E136E800E126E000E156EE50E4D
:102CE800146E000E176ECF0E166EC0EC31F0000E8B
:102CF8000501BD6F0B0EBE6F1C0EBF6FFE0EC06FC1
:102D08006EEC41F0000E336E140E326E000E356E0E
:102D18009C0E346E000E366E0B0E376E030E386E38
:102D2800310E396E000E3A6E8FECFAF0F40E060191
:102D3800376F820E366F050EE82EFED7362FFCD77A
:102D4800372FFAD7000E066E000E056E87EC4AF094
:102D5800000E02EC37F0C39CFFD70701F351000ABD
:102D6800D8B43CD7010AD8B444D7030AD8B448D752
:102D7800010AD8B47DD7070AD8A412009FD70DEC52
:102D88004EF00601366F080E3619D8B404D00B0E73
:102D98003619D8A41200000E0501BD6F0B0EBE6FC8
:102DA800580EBF6FFC0EC06F6EEC41F0000E336E14
:102DB800000E326E010E356E2C0E346E000E366E1D
:102DC8000B0E376E010E386E310E396E010E3A6EEB
:102DD8008FECFAF0000E0601376F090E0601356F09
:102DE8001E0E346FE40EE82EFED7342FFCD7352F95
:102DF800FAD70000D2A420D0000E0501BD6F0B0E3B
:102E0800BE6F330EBF6FFB0EC06F6EEC41F0000E4D
:102E1800336E000E326E010E356E2C0E346E000EBF
:102E2800366E0B0E376E010E386E000E396E010EBF
:102E38003A6E8FECFAF012000601372B090E37654F
:102E4800CCD755EC47F0000E0601016F000E006F5D
:102E5800000E026F000E036F000E046F000E056F68
:102E6800000E066F000E076F000E086F000E096F48
:102E7800000E0A6F010E0B6F25ECCBF00BEC1FF068
:102E8800000E0501BD6F0B0EBE6F450EBF6FFC0E29
:102E9800C06F6EEC41F0000E336E000E326E010E04
:102EA800356E2C0E346E000E366E0B0E376E010E1C
:102EB800386E310E396E010E3A6E8FECFAF0520E02
:102EC8000601356F2B0E346F000EE82EFED7342F17
:102ED800FCD7352FFAD70000000E0501BD6F0B0E89
:102EE800BE6F330EBF6FFB0EC06F6EEC41F0000E6D
:102EF800336E000E326E010E356E2C0E346E000EDF
:102F0800366E0B0E376E010E386E000E396E010EDE
:102F18003A6E8FECFAF0D2B41200FDD706010B6FAF
:102F2800030E0601006103D00B070C0E0027000EEC
:102F3800086E040E076E0BC605F5066A5DEC3BF0DD
:102F480006010B510524026F000E0620036F010EC7
:102F5800086E900E076E0BC605F5066A5DEC3BF031
:102F6800055006010225046F06500321056F000E67
:102F7800086E050E076E00510D0DF3C406F6F4C475
:102F880007F6080E0625056E000E0721066E5DEC95
:102F98003BF0055006010425086F06500521096F0E
:102FA80001510827000E0923000E086E640E076EF3
:102FB8000BC605F5066A5DEC3BF005500601085D99
:102FC8000D6E065009590E6E000E106E070E0F6E2C
:102FD800C5EC3DF00D5006010A6F54D0E80E05010E
:102FE800BD6F080EBE6FDC0EBF6FFF0EC06F6EECBC
:102FF80041F05ED0E80E0501BD6F080EBE6FD80E19
:10300800BF6FFF0EC06F6EEC41F052D0E80E0501A5
:10301800BD6F080EBE6FD00EBF6FFF0EC06F6EEC97
:1030280041F046D0E80E0501BD6F080EBE6FCC0E0C
:10303800BF6FFF0EC06F6EEC41F03AD0E80E05018D
:10304800BD6F080EBE6FE40EBF6FFF0EC06F6EEC53
:1030580041F02ED0E80E0501BD6F080EBE6FD40EEC
:10306800BF6FFF0EC06F6EEC41F022D0E80E050175
:10307800BD6F080EBE6FE00EBF6FFF0EC06F6EEC27
:1030880041F016D00A51000AD8B4A8D7010AD8B41A
:10309800B1D7030AD8B4BAD7010AD8B4C3D7070A34
:1030A800D8B4CCD7010AD8B4D5D7030AD8B4DED758
:1030B80006010A5112000601116FB0D0F051F15DFE
:1030C800D8A01200020EEE6F1200000E0601126F59
:1030D8001251040D0D0EF324D96E090EF420DA6E88
:1030E800DEC405F5DEC406F5DEC407F5DEC408F562
:1030F8000701F251096E0A6A0B6A0C6A92EC30F009
:1031080006011251220D200EF324D96E0C0EF42064
:10311800DA6E05C5DEF406C5DDF41251040D360E6F
:10312800F324D96E0A0EF420DA6EDEC405F5DEC487
:1031380006F5DEC407F5DEC408F50701F251096E8D
:103148000A6A0B6A0C6A92EC30F006011251220DE1
:10315800200EF324D96E0D0EF420DA6E05C5DEF4C8
:1031680006C5DDF4122B020E1265B2D7030E070155
:10317800EE6F1200000E0601076F100EA3ECCDF0E3
:103188000009D8A41200040E0701EE6F1200060110
:103198001105D8A404D0050E0701EE6F1200060E23
:1031A8000701EE6F1200000E0601006F000E016F9E
:1031B800000E026F000E036F000E046F000E056F05
:1031C800100EB2ECC0F00009D8A41200E8D7000E27
:1031D8000601126F1251040D0D0EF324D96E090E5B
:1031E800F420DA6EDE6ADE6ADE6ADD6A1251040DE8
:1031F800360EF324D96E0A0EF420DA6EDE6ADE6A21
:10320800DE6ADD6A122B020E1265E4D7000E070192
:10321800F26F000EF16F000EEE6F12000701EE5113
:10322800000AD8B44BD7010AD8B448D7030AD8B48F
:103238004CD7010AD8B49ED7070AD8B4A8D7010A30
:10324800D8B4B1D7030AD8A41200C1D717501B5C51
:10325800136E18501C58146EA3EC49F013C51FF5D3
:1032680014C520F519501D5C136E1A501E58146EA3
:10327800A3EC49F013501F5C2050800A216E1450B3
:10328800800A2158D8B002D0010E01D0000E2A6E53
:103298002A50D8B418D017C52FF518C530F519C558
:1032A80017F51AC518F52FC519F530C51AF51BC538
:1032B8002FF51CC530F51DC51BF51EC51CF52FC502
:1032C8001DF530C51EF517501B5C18501C58D8B09A
:1032D80018D017C52FF518C530F51BC517F51CC52F
:1032E80018F52FC51BF530C51CF519C52FF51AC5DE
:1032F80030F51DC519F51EC51AF52FC51DF530C5C4
:103308001EF517501B5C286E18501C58296E195052
:103318001D5C136E1A501E58146EA3EC49F013C5A9
:1033280022F514C523F5000E276E000E266E19C56A
:103338002DF51AC52EF51D50195C1E501A58D8B017
:1033480005D0000E256E010E246E02D02468256873
:1033580017C52BF518C52CF539D02A50D8B40BD081
:103368002DC510F52EC511F52BC512F52CC513F575
:103378001FEC40F00AD02BC510F52CC511F52DC552
:1033880012F52EC513F51FEC40F0225026262350C7
:10339800272226C51FF527C520F5D8901F362036C9
:1033A80028501F5C2050800A216E2950800A21581D
:1033B800D8A00AD024502D242D6E25502E202E6EF4
:1033C8002850265E2950275A2B4A2C2A2B501B5C42
:1033D8002C501C58D8A01200C0D7020E0601396F15
:1033E800580E386FC392C394010E0701F56F000E93
:1033F800056E000E066E000EDFEC4BF0000E116E2F
:103408000A0E106E000E136E800E126E000E156EF0
:10341800E50E146E000E176ECF0E166EC0EC31F06E
:10342800000E0501BD6F0B0EBE6F350EBF6FFE0E91
:10343800C06F6EEC41F0000E336E140E326E000E4B
:10344800356E880E346E000E366E0B0E376E030E18
:10345800386E310E396E000E3A6E8FECFAF0000EAF
:103468000501BD6F0B0EBE6F570EBF6FFE0EC06F0E
:1034780038C605F539C606F5000E086E0A0E076E41
:10348800CDEC40F005C5C1F506C5C2F56EEC41F0BE
:10349800000E336E460E326E000E356EB40E346E6C
:1034A800000E366E0B0E376E020E386E3C0E396EFD
:1034B800010E3A6E8FECFAF0000E8FEC03F0000E5E
:1034C800E3ECD6F0000E3CEC01F0070E0601376F76
:1034D8007F0E366F4F0EE82EFED7362FFCD7372FCC
:1034E800FAD700D00601E105D8B402D0D0BA07D087
:1034F800000E0701F56F000E0601E16F09D03807CD
:10350800D8A039073951ABE1070E385DD8B0A7D735
:103518000701F505D8A405D0000E02EC37F0C39CCE
:10352800FFD7000E056E000E066E000EDFEC4BF0A6
:10353800000E116E000E106E000E136E780E126ED5
:10354800000E156EEF0E146E010E176E080E166E35
:10355800C0EC31F0CBEC49F0070EEBECBDF0B0EC71
:1035680036F01200000E4F6E500E4E6E000E4D6E6D
:10357800B40E4C6E000E4B6EF00E4A6EB9EC46F06F
:10358800800E056E800E066E800EDFEC4BF0000E8E
:10359800156E780E146E000E176E360E166E000E2F
:1035A800196E780E186E010E1B6E120E1A6E8FECC5
:1035B8003AF0000E156E000E146E000E176EA00E77
:1035C800166E000E196EF00E186E000E1B6EA00E11
:1035D8001A6E8FEC3AF0400E056E400E066E400EE5
:1035E800DFEC4BF0000E156E3C0E146E000E176EDD
:1035F800500E166E000E196EB40E186E000E1B6E6D
:10360800F00E1A6E8FEC3AF0000E156E5A0E146E0C
:10361800000E176E780E166E000E196E960E186E46
:10362800000E1B6EC80E1A6E8FEC3AF0000E336E49
:10363800900E326E000E356E4D0E346EC40E366E20
:10364800FF0E376E010E386E3F0E396E010E3A6E60
:103658008FECFAF0000E336EAE0E326E000E356E41
:103668004D0E346E270E366EFF0E376E010E386E15
:103678003F0E396E010E3A6E8FECFAF0000E336E83
:10368800300E326E000E356E750E346EC80E366E04
:10369800FF0E376E010E386E3F0E396E010E3A6E10
:1036A8008FECFAF0000E336E300E326E000E356E6F
:1036B8004D0E346E2E0E366EFF0E376E010E386EBE
:1036C8003F0E396E010E3A6E8FECFAF0000E0701CC
:1036D800DB6F780EDA6F000ED96FA00ED86F12006C
:1036E800000E066E010E056EAFEC4BF00601006F82
:1036F800000E066E020E056EAFEC4BF00601016F70
:10370800000E066E030E056EAFEC4BF00601026F5D
:10371800000E066E040E056EAFEC4BF006010A6F44
:10372800000E066E050E056EAFEC4BF00009D8B41E
:1037380002D0010E01D0000E0601DB6F030E0C6EE5
:10374800060E0D6EA3EC4BF0060100510919D8A422
:1037580011D001510819D8A40DD002510719D8A4C5
:1037680009D0DB05D8A408D00A2B5A0E0A6504D064
:103778005A0E01D0410E0A6FC30E0501BD6F0A0E25
:10378800BE6F970EBF6FFB0EC06F09C6C1F5C26B47
:1037980008C6C3F5C46B07C6C5F5C66B0AC6C7F528
:1037A800C86B6EEC41F0B40E0501BD6F0A0EBE6F1A
:1037B800AB0EBF6FFB0EC06F09C6C1F5C26B08C662
:1037C800C3F5C46B07C6C5F5C66B0AC6C7F5C86B93
:1037D8006EEC41F0A50E0501BD6F0A0EBE6FBF0E5F
:1037E800BF6FFB0EC06F09C6C1F5C26B08C6C3F533
:1037F800C46B07C6C5F5C66B0AC6C7F5C86B6EECC1
:1038080041F0000E0601DB6F000E066E010E056E1C
:1038180009C607F52CEC43F0000E066E020E056E85
:1038280008C607F52CEC43F0000E066E030E056E75
:1038380007C607F52CEC43F0000E066E040E056E65
:103848000AC607F52CEC43F0000E066E050E056E51
:10385800DBC607F52CEC43F01200000E576E05018D
:1038680020EE03F06251D9266351DA22DF50D8B432
:10387800ACD0330E62254F6E000E6321506E20EEE1
:103888002FF06251D9266351DA22DEC451F5DEC425
:1038980052F5DEC453F5DEC454F5000E566E010E23
:1038A800556E20EE01F06251D9266351DA22DF50BD
:1038B80096EC41F00009D8A486D0050120EE03F06B
:1038C8006251D9266351DA22DF6A20EE1BF0625179
:1038D800D9266351DA2210EE23F06251E1266351B2
:1038E800E222E6C468F5E6C469F5E6C46AF5E6C40A
:1038F8006BF510EE2FF06251E1266351E222E6C427
:103908006CF5E6C46DF5E6C46EF5E6C46FF568516E
:103918006C5D706F69516D59716F6A516E59726F34
:103928006B516F59736FDE50705DDE507159DE5008
:103938007259DE507359D8B048D020EE02F0625167
:10394800D9266351DA22020EDE18D8A43ED0330EEF
:1039580062254F6E000E6321506E20EE1BF06251FF
:10396800D9266351DA22DEC464F5DEC465F5DEC407
:1039780066F5DEC467F520EE2FF06251D926635153
:10398800DA22DEC468F5DEC469F5DEC46AF5DEC491
:103998006BF564516825516E65516921526E665107
:1039A8006A21536E67516B21546E000E566E010EDC
:1039B800556E20EE01F06251D9266351DA22DF50AC
:1039C80096EC41F002D0010E576E57501200576E18
:1039D800020E0501BD6F240EBE6F390EBF6FFB0EC0
:1039E800C06F6EEC41F05750D8A40CD0000E050102
:1039F800BD6F0B0EBE6FA60EBF6FFE0EC06F6EECD6
:103A080041F088D05850330DF20EF324D96E150EBC
:103A1800F420DA6EDEC405F5DEC406F5DEC407F56B
:103A2800DEC408F5000E096E000E0A6E000E0B6E5D
:103A3800000E0C6ED4EC3AF0D8A00ED0000E0501A2
:103A4800BD6F0B0EBE6FA60EBF6FFE0EC06F6EEC85
:103A580041F0300E576E5ED0000E2C6E3C0E2D6E6F
:103A68001C0E2E6E460E2F6E5850330DF20EF32498
:103A7800D96E150EF420DA6EDEC430F5DEC431F5E9
:103A8800DEC432F5DEC433F5F5EC2EF0D8B00CD038
:103A9800000E0501BD6F0B0EBE6FAF0EBF6FFE0EA1
:103AA800C06F6EEC41F0D5D7000E0501BD6F0B0E4F
:103AB800BE6F620EBF6FFF0EC06F5850330DF20E0F
:103AC800F324D96E150EF420DA6EDEC4C1F5DEC417
:103AD800C2F5DEC4C3F5DEC4C4F56EEC41F0020ED7
:103AE8000501BD6F240EBE6F200EBF6FFF0EC06FA5
:103AF8005850330DF20EF324D96E150EF420DA6EF9
:103B0800DEC4C1F5DEC4C2F5DEC4C3F5DEC4C4F547
:103B18006EEC41F0000E336EA20E326E000E356E62
:103B2800280E346E000E366E0B0E376E010E386E90
:103B380057C539F5010E3A6E8FECFAF01200116E86
:103B4800020E0B6402D0020E0B6E000E186E050EEC
:103B580018601CD01150050DA90EF3240D6EEF0E40
:103B6800F4200E6E18500D26000E0E22600E0D2445
:103B78000F6EFF0E0E20106E0FC5F6F410C5F7F489
:103B8800000EF86E0800F5C414F502D0000E146E8D
:103B9800000E176E000E166E7CD0000E156E74D0D7
:103BA80017500B02F3C40DF5F4C40EF516500D248E
:103BB800056E000E0E20066E0B50060DF3C407F5B9
:103BC800F4C408F5F1EC49F018500B02F3C40FF5F2
:103BD800F4C410F515500F26000E102205500F24BE
:103BE800126E06501020136E12C505F513C506F5A2
:103BF800000E086E030E076EF1EC49F005C519F5C5
:103C080006C51AF50C04D8A404D0800E1926020E95
:103C18001A2217C50DF514C50EF50D2A02D0D89035
:103C28000E320D2EFCD70EA019D0CC0E1924D96E49
:103C3800190E1A20DA6EFBC7DFF4CD0E1924D96EDF
:103C4800190E1A20DA6EFCC7DFF4CE0E1924D96ECD
:103C5800190E1A20DA6EFDC7DFF415D0CC0E192420
:103C6800D96E190E1A20DA6EDF6ACD0E1924D96EB4
:103C7800190E1A20DA6EDF6ACE0E1924D96E190EC3
:103C88001A20DA6EDF6A152A0B50155CD8A088D77F
:103C9800162A0B50165CD8A080D7172A070E17646F
:103CA80079D7182A050E186452D71200576EF30EEA
:103CB8000501BD6F230EBE6F3C0EBF6FFB0EC06FBC
:103CC8006EEC41F00F0E0601D819D8B402D0000EE0
:103CD800576E5750D8A40CD0000E0501BD6F0B0EBF
:103CE800BE6F120EBF6FFF0EC06F6EEC41F07AD040
:103CF8005850330DDE0EF324D96E150EF420DA6E0B
:103D0800DE50DE10DE10DE10D8A40ED0000E050145
:103D1800BD6F0B0EBE6F190EBF6FFF0EC06F6EEC3E
:103D280041F0300E576E5ED0000E2C6EC00E2D6E18
:103D3800790E2E6E440E2F6E5850330DE60EF32476
:103D4800D96E150EF420DA6EDEC430F5DEC431F516
:103D5800DEC432F5DEC433F5F5EC2EF0D8B00CD065
:103D6800000E0501BD6F0B0EBE6FB10EBF6FFE0ECC
:103D7800C06F6EEC41F0D5D7000E0501BD6F0B0E7C
:103D8800BE6F500EBF6FFF0EC06F5850330DE60E5A
:103D9800F324D96E150EF420DA6EDEC4C1F5DEC444
:103DA800C2F5DEC4C3F5DEC4C4F56EEC41F0F30E13
:103DB8000501BD6F230EBE6F860EBF6FFF0EC06F6D
:103DC8005850330DE60EF324D96E150EF420DA6E32
:103DD800DEC4C1F5DEC4C2F5DEC4C3F5DEC4C4F575
:103DE8006EEC41F0000E336EAE0E326E000E356E84
:103DF8001E0E346E000E366E0B0E376E010E386EC8
:103E080057C539F5010E3A6E8FECFAF0120022EE22
:103E18007AF211EE23F20F0EDBC4E3F4E806FCE2BB
:103E28009FEC46F0FF0E056EFF0E066EFF0EDFECF0
:103E38004BF0000E116E410E106E000E136E4E0EFA
:103E4800126E000E156EAE0E146E000E176EE90E91
:103E5800166EC0EC31F0800E056E800E066E800E78
:103E6800DFEC4BF0000E156E780E146E000E176E18
:103E7800360E166E000E196E780E186E010E1B6E39
:103E8800120E1A6E8FEC3AF0000E156E000E146EBC
:103E9800000E176EA00E166E000E196EF00E186E3C
:103EA800000E1B6EA00E1A6E8FEC3AF0000E060183
:103EB800336F000E056E000E066E000EDFEC4BF041
:103EC800000E156E780E146E000E176EA00E166E8C
:103ED80006013351020D230EF324D96E060EF42089
:103EE800DA6EDEC41FF6DDC420F6D8902031216FCB
:103EF8001F31186E21C619F5D6EC0FF00601332BC9
:103F0800070E3365D6D7000E336E760E326E000E6E
:103F1800356E9C0E346E330E366EFD0E376E010E06
:103F2800386E000E396E000E3A6E8FECFAF0000E05
:103F38000601016F000E006F000E026F000E036F86
:103F4800000E046F000E056F000E066F000E076F5F
:103F5800000E086F000E096F010E0A6F000E0B6F3E
:103F680025ECCBF019EC3BF0C1EC2BF01200030E62
:103F78000601D819D8A41200000E0501BD6F0B0E5A
:103F8800BE6F320EBF6FFC0EC06F6EEC41F0000EBC
:103F9800336E000E326E010E356E2C0E346E000E2E
:103FA800366E0B0E376E010E386E310E396E010EFD
:103FB8003A6E8FECFAF0000E576E090E0601176F75
:103FC8001E0E166FE40EE82EFED7162FFCD7172FFD
:103FD800FAD70000D2A420D0000E0501BD6F0B0E49
:103FE800BE6F330EBF6FFB0EC06F6EEC41F0000E5C
:103FF800336E000E326E010E356E2C0E346E000ECE
:10400800366E0B0E376E010E386E000E396E010ECD
:104018003A6E8FECFAF01200572A090E5764CDD782
:10402800010EFEECBAF0B9EC46F0000E0501BD6FCA
:104038000B0EBE6F450EBF6FFC0EC06F6EEC41F0ED
:10404800000E336E000E326E010E356E2C0E346E7D
:10405800000E366E0B0E376E010E386E310E396E4D
:10406800010E3A6E8FECFAF0520E0601176F2B0E06
:10407800166F000EE82EFED7162FFCD7172FFAD78B
:104088000000000E0501BD6F0B0EBE6F330EBF6F33
:10409800FB0EC06F6EEC41F0000E336E000E326EF8
:1040A800010E356E2C0E346E000E366E0B0E376E0A
:1040B800010E386E000E396E010E3A6E8FECFAF072
:1040C800D2B41200FDD70601006FF0C901F6F1C99C
:1040D80002F606010005D8B41DD07DD0010EE26FAE
:1040E800000E0501BD6F0B0EBE6FF90EBF6FFB0E04
:1040F800C06F6EEC41F014D0000EE26F000E0501A7
:10410800BD6F0B0EBE6F1F0EBF6FFC0EC06F6EEC47
:1041180041F006D0E251000AD8B4E0D7010AECD742
:10412800000E066E000E056EE2C607F52CEC43F095
:10413800000E336E000E326E010E356E2C0E346E8C
:10414800000E366E0B0E376E010E386E310E396E5C
:10415800010E3A6E8FECFAF03ED00C0E0701E86FB4
:10416800010E0501BD6F060EBE6FFB0EBF6FFF0E81
:10417800C06F6EEC41F0650E0501BD6F0A0EBE6F93
:104188009D0EBF6FFE0EC06F6EEC41F02DD0000E7D
:10419800E26F000E066E000E056EE2C607F52CEC07
:1041A80043F03E0E0701E86F010E0501BD6F060ED4
:1041B800BE6FFD0EBF6FFF0EC06F6EEC41F0650E57
:1041C8000501BD6F0A0EBE6FB80EBF6FFE0EC06F41
:1041D8006EEC41F009D00601E251000AD8B4E1D7EB
:1041E800010AD8B4BAD7D3D7000E336EE80E326EB0
:1041F800000E356E040E346E010E366E060E376EE6
:10420800010E386E3C0E396E010E3A6E8FECFAF0E4
:10421800D3B01200FDD70E680F6805C5D9F406C5DE
:10422800DAF4DEC410F5DDC411F510C50CF511C5BE
:104238000DF510501110D8A403D0056806681200B7
:104248000CC5F6F40DC5F7F4000EF86E240EF764ED
:1042580003D00800F55005D0F6C4E9F4F7C4EAF431
:10426800EF500B6E0C4A0D2A200E0B6404D03A0E48
:104278000B18D8A4E5D73A0E0B18D8A46BD0000EAB
:104288000A6E010E096E10C5F6F411C5F7F4000E9A
:10429800F86E240EF76403D00800F55005D0F6C474
:1042A800E9F4F7C4EAF4EF50076E2F0E07643AD02A
:1042B80010C5F6F411C5F7F4000EF86E240EF76475
:1042C80003D00800F55005D0F6C4E9F4F7C4EAF4C1
:1042D800EF50076E3A0E076025D0020E1024076EC5
:1042E800000E1120086E0C5007181CE10D5008181C
:1042F800D8A418D010C5F6F411C5F7F4000EF86E5E
:10430800240EF76403D00800F55005D0F6C4E9F48C
:10431800F7C4EAF4EF50076ED00E0724096E0A6A54
:10432800FF0E0A220ABE05D00A500FE10904D8B0D0
:104338000CD009C50EF50AC50FF505C5D9F406C593
:10434800DAF40CC5DEF40DC5DDF40EC505F50FC5B0
:1043580006F51200FAC70EF50F6A0EC505F50FC56A
:1043680006F51200000EC26E110EC16E000EBE6E72
:10437800100EC36E010EBF6EC00EC06E060ECA6E62
:10438800010ECB6EC668F20EC76E260EC86E4A0EB8
:10439800C96E000E0401186F020E106FD00E086F60
:1043A800020E206F000E286FC00E006F000E196FEE
:1043B800010E296F040E216F300E096F300E016F48
:1043C8003C0E116F000E0201896F000E886F610E9E
:1043D800876F610E866F000E0401226F000E2A6F30
:1043E800000E026F000E0A6F180E126F000E1A6F81
:1043F8000369300E0B6FBF0E136F8F0E1B6F070E06
:10440800236FEF0E2B6F04690C6914691C690F0E7A
:10441800246F2C690799079B0689068B0599059BCC
:104428001795168515958E0E056E9C0E066E000E58
:10443800076E4DEC4DF08C0E056E9C0E066E000E50
:10444800076E5BEC4DF08A0E056E9C0E066E000E34
:10445800076E54EC4DF09E8E1E0E0201746F370EDF
:10446800146F380E156F020E656F030E666F130E0C
:10447800716F170E206F2A0E1B6F0A0E6A6F140ECB
:10448800706F190E786F230E1E6F180E2C6F000EAA
:10449800616F310E0B6F320E0C6F290E196F1B0EE8
:1044A800636F010E626F090E6B6F1200C39A000EE4
:1044B8002BEC30F0910E02EC4CF0000E02EC4CF0BC
:1044C8000C6E000E02EC4CF00D6E0D500CC509F58B
:1044D8000A6A09C50AF5096A0926000E0A220A3479
:1044E8000A3209320A340A3209320A340A320932E3
:1044F80020EE02F00750D9260850DA2209C5DEF46A
:104508000AC5DDF4B10E02EC4CF0000E02EC4CF0E2
:104518000C6E000E02EC4CF00D6E0D500CC509F53A
:104528000A6A09C50AF5096A0926000E0A22070E51
:104538000B6E0A340A3209320B2EFBD720EE04F038
:104548000750D9260850DA2209C5DEF40AC5DDF479
:10455800C10E02EC4CF0000E02EC4CF00C6E000E9A
:1045680002EC4CF00D6E0D500CC509F50A6A09C530
:104578000AF5096A0926000E0A22070E0B6E0A348C
:104588000A3209320B2EFBD720EE06F00750D92647
:104598000850DA2209C5DEF40AC5DDF4D00E02ECB3
:1045A8004CF0000E02EC4CF00C6E000E02EC4CF0DD
:1045B8000D6E0D500CC509F50A6A09C50AF5096A98
:1045C8000926000E0A220A340A3209320A340A324B
:1045D80009320A340A32093207C5D9F408C5DAF4AF
:1045E80009C5DEF40AC5DDF42BEC4EF0C38A1200CF
:1045F8000D6E0D50D8A408AE1AD005C509F506C52C
:104608000AF507C50BF508C50CF5091E0A1E0B1E91
:104618000C1E092A000E0A220B220C2209C50FF5CE
:104628000AC510F50BC511F50CC512F508D005C55E
:104638000FF506C510F507C511F508C512F50550A3
:10464800061007100810D8A409D0000E056E000E39
:10465800066E000E076E000E086E1200960E0E6EA5
:1046680006D00E2AD8901232113210320F32000EB4
:104678000F14096E000E10140A6E000E11140B6E42
:10468800FE0E12140C6E09500A100B100C10D8B440
:104698000DD0E7D70E2A010E0F26000E1022112288
:1046A8001222D8901232113210320F32000E0F142B
:1046B800096E000E10140A6E000E11140B6EFF0E18
:1046C80012140C6E09500A100B100C10D8B407D035
:1046D800E1D70E06D8900F3610361136123611BEB5
:1046E80003D0020E0E60F5D70EA0119ED8900E32A0
:1046F8000EC509F50A6A0B6A0C6A09C50CF50B6A3E
:104708000A6A096A09500F120A5010120B50111246
:104718000C5012120D50D8A408AE01D0128E0FC53D
:1047280005F510C506F511C507F512C508F51200FF
:1047380012C51AF513C51BF51A501B10D8A404D0BE
:104748000B0E1A6EFF0E1B6E000E1D6E000E1C6EF9
:1047580002D01C4A1D2A1C501A24146E1D501B20FE
:10476800156E14C5F6F415C5F7F4000EF86E240E90
:10477800F76403D00800F55005D0F6C4E9F4F7C48F
:10478800EAF4EF500009D8A4E4D70601CCBF0ED054
:104798001C50CB5DCC51800A146E1D50800A1458F1
:1047A800D8B004D0CBC61CF5CCC61DF51CC516F573
:1047B8001DC517F5C9C618F5CAC619F5D4A10DD077
:1047C80034D0000E086E200E076E10C509F511C50D
:1047D8000AF552EC37F01C4A1D2A18501C5C1D5073
:1047E800800A146E1950800A1458D8B01ED0E9D720
:1047F8001AC5F6F41BC5F7F4000EF86E240EF7641C
:1048080003D00800F55005D0F6C4E9F4F7C4EAF47B
:10481800EF50146E1450076E086A10C509F511C5DB
:104828000AF552EC37F01A4A1B2A1606D8A01706C2
:104838001628DEE11728D8A4DBD70601D4A1120078
:104848000CD0000E086E200E076E10C509F511C5B4
:104858000AF552EC37F01C4A1D2A18501C5C1D50F2
:10486800800A146E1950800A1458D8B01200E9D77B
:1048780023AE02D0010E01D0000E2A6E0601CCAF85
:10488800D493CCAF05D0000E276E010E266E04D04F
:10489800CBC626F5CCC627F5C9C628F5CAC629F55C
:1048A8002A50D8B410D02806D8A029062A50D8A44F
:1048B80004D0000E256E2B0E03D0000E256E2D0E93
:1048C800246E24C52AF5000E2C6E4F0E2B6E000E9A
:1048D8000C01F56F30D02B06D8A02C06A60E2B2481
:1048E800D96E0C0E2C20DA6E22C50DF523C50EF5F7
:1048F800000E106E0A0E0F6EC5EC3DF00DC513F5D7
:104908000EC514F5A3EC49F01350300FDF6E2606E0
:10491800D8A027062806D8A0290622C505F523C54C
:1049280006F5000E086E0A0E076E5DEC3BF005C535
:1049380022F506C523F52CBE1AD02C5003E12B0412
:10494800D8A015D022502310D8A4C5D727BE05D08B
:104958002750C1E12604D8B0BED729BE08D02950B7
:1049680003E12804D8A003D00601D4B3B4D72A5051
:10497800D8B40BD02B06D8A02C06A60E2B24D96EA3
:104988000C0E2C20DA6E2AC5DFF420C517F521C5D8
:1049980018F5A60E2B24196E0C0E2C201A6E28C59D
:1049A8001BF529C51CF5DCEC3CF01200D7C5D9F481
:1049B800D8C5DAF4DEC4DBF5DDC4DCF5D7C599F576
:1049C800D8C59AF5000E05019B6F000E9C6F000E6E
:1049D8009D6F000E9E6F97ECF7F00501DE6FDE51BC
:1049E800D8B403D00501DE511200DBC574F5DCC56F
:1049F80075F520EE16F0D751D926D851DA22DEC443
:104A080076F5DEC477F5DEC478F5DEC479F507EC13
:104A180035F00501DE6FDE51D8A4E4D720EE1AF098
:104A2800D751D926D851DA22DEC4D9F5DDC4DAF552
:104A3800D9C5D9F4DAC5DAF4DF50DD6FDD51D8A471
:104A480003D0040EDE6FCED720EE04F0D751D9265E
:104A5800D851DA2210EE1AF0D751E126D851E222C5
:104A680000EE0BF0E650E926E550EA22EF503F0B46
:104A7800DF6E20EE1AF0D751D926D851DA2210EE7F
:104A88000BF0DE50E126DD50E222E7B61AD020EE28
:104A98001AF0D751D926D851DA22DEC405F5DDC47B
:104AA80006F51C0ED725076E000ED821086E000EDD
:104AB8000A6E0B0E096E53EC3DF005500610D8B483
:104AC80091D7D7C5BDF5D8C5BEF5000E0501C06F95
:104AD800000EBF6FE8ECEDF00501DE6FDE51D8A4E3
:104AE80081D783D70601E551D8A40AD020EC3CF041
:104AF8000009D8B402D0040E1200010E0601E56FB9
:104B0800C30E436F0A0E446F55EC34F00601456F2F
:104B18004551D8B403D0060145511200000E0501D5
:104B2800BD6F0B0EBE6FB20EBF6FF80EC06F210EB9
:104B3800C16F230EC26F300EC36F230EC46F3F0EBA
:104B4800C56F230EC66F4E0EC76F230EC86F5D0E5E
:104B5800C96F230ECA6F6C0ECB6F230ECC6F7B0E02
:104B6800CD6F230ECE6F8A0ECF6F230ED06F990EA6
:104B7800D16F230ED26FA80ED36F230ED46FB70E4A
:104B8800D56F230ED66FC60ED76F230ED86FD50EEE
:104B9800D96F230EDA6FE40EDB6F230EDC6FF30E92
:104BA800DD6F230EDE6F020EDF6F240EE06F110E35
:104BB800E16F240EE26F200EE36F240EE46F2F0ED8
:104BC800E56F240EE66F3E0EE76F240EE86F5C0E6D
:104BD800E96F240EEA6F4D0EEB6F240EEC6F7A0E20
:104BE800ED6F240EEE6F890EEF6F240EF06F6EECF2
:104BF80041F069EC46F013EC49F00601DB51D8A40A
:104C08008AD7010EDB6F000E066E050E056EDBC639
:104C180007F52CEC43F07FD718C505F519C506F53F
:104C280018C507F519C508F5F1EC49F005C527F5CC
:104C380006C528F5296A2A6A1850165C2D6E19507F
:104C480017582E6E6DD016502D5C056E17502E58C5
:104C5800066E16502D5C076E17502E58086EF1EC34
:104C680049F005C523F506C524F5000E24BEFF0E40
:104C7800256E266E1850145C2B6E195015582C6E24
:104C88003DD014502B5C056E15502C58066E1450F0
:104C98002B5C076E15502C58086EF1EC49F005C5D1
:104CA8001FF506C520F5000E20BEFF0E216E226EF0
:104CB80023501F241A6E245020201B6E25502120BB
:104CC8001C6E265022201D6E1A50275C1B50285837
:104CD8001C5029582A50800A1E6E1D50800A1E58E2
:104CE800D8A00AD02BC510F52CC511F52DC512F585
:104CF8002EC513F51FEC40F02B4A2C2A185014240B
:104D08001A6E195015201B6E1A502B5C2C50800AF5
:104D18001C6E1B50800A1C58D8A0B3D72D4A2E2AC7
:104D2800185016241A6E195017201B6E1A502D5C35
:104D38002E50800A1C6E1B50800A1C58D8B01200D6
:104D480082D774C562F575C563F531EC1CF00009AE
:104D5800D8B402D0010E120074C511F575C512F54C
:104D680076C513F577C514F578C515F579C516F523
:104D780021EC32F011C57EF512C57FF513C580F51B
:104D880014C581F5050120EE2FF07451D92675510F
:104D9800DA227EC5DEF47FC5DEF480C5DEF481C587
:104DA800DEF4330E7425056E000E7521066E000EB6
:104DB800086E000E076E020E0A6E000E096E67EC92
:104DC80049F0330E050174257C6F000E75217D6F47
:104DD800000E836F010E826F000E856F000E846FC8
:104DE80005D00501825184278351852320EE09F0DF
:104DF8007451D9267551DA22DE50845DDE5085590A
:104E0800D8B020D07CC54FF57DC550F584517E259E
:104E1800516E85517F21526E000E8021536E000E17
:104E28008121546E82C555F583C556F520EE01F0F3
:104E38007451D9267551DA22DF5096EC41F00009F9
:104E4800D8B4CFD7050120EE09F07451D926755191
:104E5800DA228451DE1804E18551DE18D8B402D074
:104E6800010E1200000E1200050120EE03F07F5122
:104E7800D9268051DA22DF6A20EE2FF07F51D92619
:104E88008051DA22FF0EDE6EFF0EDE6EFF0EDE6E42
:104E9800FF0EDD6E7FC574F580C575F581C576F5A5
:104EA80082C577F583C578F584C579F507EC35F0C3
:104EB8000009D8B402D0040E1200310E05017F2576
:104EC800056E020E8021066E52EC45F0550E05184F
:104ED80004E1AA0E0618D8B402D0030E1200050188
:104EE80020EE33F07F51D9268051DA22E90EDE1800
:104EF800D8B414D020EE33F07F51D9268051DA226D
:104F0800EB0EDE18D8B40AD020EE33F07F51D92644
:104F18008051DA22E80EDE18D8A42BD0690E7F253E
:104F2800056E000E8021066EE80E076EFF0E086EF5
:104F3800000E0A6E030E096E53EC3DF00550061084
:104F4800D8A402D0000E1200850E05017F25056E3B
:104F5800000E8021066E920E076EFF0E086E000E80
:104F68000A6E050E096E53EC3DF005500610D8B4D4
:104F7800E9D7020E1200CEA62FD0020E0601FB19A9
:104F8800D8A44BD0070E0001D56F800ED66F010E46
:104F98000601FB6F000E0501BD6F0B0EBE6FE60E1E
:104FA800BF6FFB0EC06F6EEC41F0000E336E000E4B
:104FB800326E010E356E2C0E346E000E366E0B0EF0
:104FC800376E010E386E310E396E010E3A6E8FEC67
:104FD800FAF0C1EC2BF021D00601FB05D8B4D1A61C
:104FE8001CD0070E0001D56F000ED66F020E060109
:104FF800FB6F000E0501BD6F0B0EBE6F5B0EBF6F22
:10500800FB0EC06F28EC4EF00601366F36510501D5
:10501800C16FC26B6EEC41F0C8D7CEA004D00601B8
:10502800366B362B02D00601366BCEA203D0020EA9
:10503800376F02D00601376BCEA403D0040E386F49
:1050480002D00601386B0001D4B704D00601396BD1
:10505800392B02D00601396BD8903937D8903937B7
:10506800D8903935381137113611D86F0701FE51EC
:105078000601D819D8B41200070EEBECBDF0D8C65B
:10508800FEF71200FAC403F5FBC404F59FBAAFAAF1
:1050980002D0D9EC4DF09FBCAFAC02D0D1EC4DF0B2
:1050A800A4B2B4A202D0F5EC4DF09EBAAEAA02D0DA
:1050B800FDEC4DF0AAB2BAA20DD001D80BD0050074
:1050C800FA6E0901B251FD6EB351FE6EB451FF6E16
:1050D800FA501200AAB0BAA00DD001D80BD0050022
:1050E800FA6E0901B551FD6EB651FE6EB751FF6EED
:1050F800FA501200A3B8B3A802D087EC47F0A3BABD
:10510800B3AA02D03DEC4AF0A1B8B1A802D0A0ECF5
:1051180047F0A1BAB1AA02D050EC4AF0A5BAB5AA94
:1051280002D0EDEC4DF0A7BAB7AA02D0E5EC4DF0ED
:10513800A1BEB1AE02D0B9EC47F09EBEAEAE02D071
:1051480088EC4BF0A6B2B6A20DD001D80BD0050062
:10515800FA6E0901AC51FD6EAD51FE6EAE51FF6E97
:10516800FA501200A6B0B6A00DD001D80BD0050099
:10517800FA6E0901AF51FD6EB051FE6EB151FF6E6E
:10518800FA50120004C5FBF403C5FAF41100000E2E
:105198000F6E000E106E000E116E000E126E000ED5
:1051A8000E6E1ED00E50020D220EF324D96E0C0E78
:1051B800F420DA6EDEC405F5DDC406F505C507F58D
:1051C80006C508F5000E08BEFF0E096E0A6E0750E8
:1051D8000F2608501022095011220A5012220E2AB6
:1051E8000701EF510E5CD8A0DDD7A4C805F5A5C806
:1051F80006F5000E06BEFF0E076E086E040E096E59
:105208000FC50AF510C50BF511C50CF512C50DF53E
:10521800096601D007D00D340D320C320B320A3238
:10522800092EF6D705500A5C0F6E06500B58106E03
:1052380007500C58116E08500D58126E560E0F2458
:10524800056E000E1020066E000E1120076E000E6F
:105258001220086E08BE07D008500710061006E195
:105268000504D8B003D0C392C3841200AA0E0F2439
:10527800056EFF0E1020066EFF0E1120076EFF0E42
:105288001220086E08BE03D0C382C3941200C392D2
:10529800C3941200D7C5D9F4D8C5DAF4DEC4DEF554
:1052A800DDC4DFF5D7C599F5D8C59AF5000E050117
:1052B8009B6F000E9C6F000E9D6F000E9E6F97EC0B
:1052C800F7F00501E26FE251D8A45DD0000EE16F5E
:1052D800000EE06FDEC574F5DFC575F520EE16F03B
:1052E800D751D926D851DA22DEC476F5DEC477F54F
:1052F800DEC478F5DEC479F507EC35F00501E26F18
:10530800E251D8A440D020EE1AF0D751D926D8516E
:10531800DA22DEC4DBF5DDC4DCF5DBC5D9F4DCC597
:10532800DAF4E50EDE18D8B411D020EE1AF0D75111
:10533800D926D851DA22DEC4DBF5DDC4DCF5DBC5BD
:10534800D9F4DCC5DAF4DF50D8A40AD0E04BE12B5D
:10535800D951E01909E1DA51E119D8B414D004D0CF
:10536800000EE16F000EE06FD7C5BDF5D8C5BEF5DC
:10537800000EC06F010EBF6FE8ECEDF00501E26FA3
:10538800E251D8B4A7D7040EE219D8A402D0070E68
:10539800E26FE2511200000E3E6E000E416E000EEA
:1053A800406E6ED0020E436E000E426E000E446ECA
:1053B800020E456E000E466E000E476E40C53CF567
:1053C80041C53DF5090ED8903C363D36E82EFBD751
:1053D8003C503824486E3D503920496E40503424A2
:1053E8004A6E415035204B6E000E36204C6E000E32
:1053F80037204D6E010E4E6E970EF66EEC0EF76E60
:10540800000EF86E01D80DD00500FA6E0900F550AF
:10541800FD6E0900F550FE6E0900F550FF6EFA505A
:1054280012000009D8A402D0000E1200C398420E40
:10543800256E050E266E68ECC3F03F6E3F50D8A46B
:1054480002D0010E04D03F28D8A4F1D7000E3E6E3A
:10545800C388940EF66EEC0EF76E000EF86E01D847
:105468000DD00500FA6E0900F550FD6E0900F550E3
:10547800FE6E0900F550FF6EFA501200404A412AAC
:105488003A50405C3B504158D8A08CD73E5012004F
:10549800000E3B6E000E3E6E000E3D6E6ED0020E8C
:1054A800406E000E3F6E000E416E020E426E000E00
:1054B800436E000E446E3DC539F53EC53AF5090EFA
:1054C800D89039363A36E82EFBD739503524456E10
:1054D8003A503620466E3D503124476E3E503220B9
:1054E800486E000E3320496E000E34204A6E010EBD
:1054F8004B6E970EF66EEC0EF76E000EF86E01D836
:105508000DD00500FA6E0900F550FD6E0900F55042
:10551800FE6E0900F550FF6EFA5012000009D8A47B
:1055280002D0000E1200C3983F0E256E050E266E9F
:1055380075ECEAF03C6E3C50D8A402D0010E04D0C1
:105548003C28D8A4F1D7000E3B6EC388940EF66EA3
:10555800EC0EF76E000EF86E01D80DD00500FA6E4D
:105568000900F550FD6E0900F550FE6E0900F55072
:10557800FF6EFA5012003D4A3E2A37503D5C3850C3
:105588003E58D8A08CD73B5012003E0E0501BD6F87
:10559800240EBE6F3D0EBF6FFB0EC06F6EEC41F068
:1055A8000601055104E1020E045DD8A0120006515F
:1055B800D8A434D000C605F501C606F502C607F51D
:1055C80003C608F5000E096E000E0A6E000E0B6E7B
:1055D800000E0C6ED4EC3AF0D8B01200000E0501A3
:1055E800BD6F0B0EBE6F330EBF6FFB0EC06F6EEC40
:1055F80041F0000E336E020E326E000E356E320E22
:10560800346E000E366E0B0E376E020E386E06C6FE
:1056180039F5010E3A6E8FECFAF01200000E050112
:10562800BD6F0B0EBE6F6F0EBF6FFB0EC06F00C657
:10563800C1F501C6C2F502C6C3F503C6C4F504C662
:10564800C5F505C6C6F56EEC41F03E0E0501BD6F09
:10565800240EBE6F620EBF6FFF0EC06F5850330D21
:10566800FE0EF324D96E150EF420DA6EDEC4C1F5F1
:10567800DEC4C2F5DEC4C3F5DEC4C4F56EEC41F089
:10568800B8D70BC50CF5D8900C320C50106E116AB7
:10569800126A136A0AC50CF50D6A0E6A0F6A050EBE
:1056A800D8900C360D360E360F36E82EF9D70C503A
:1056B80010120D5011120E5012120F50131209C56C
:1056C8000CF50D6A0E6A0F6A0B0ED8900C360D3663
:1056D8000E360F36E82EF9D70C5010120D50111255
:1056E8000E5012120F50131208C50CF50D6A0E6AEF
:1056F8000F6A0DC50FF50CC50EF50D6A0C6A0C5036
:1057080010120D5011120E5012120F50131207C51D
:105718000CF50D6A0E6A0F6A150ED8900C360D3608
:105728000E360F36E82EF9D70C5010120D50111204
:105738000E5012120F501312440E05240C6EF80E60
:1057480006200D6E0E6A0F6A190ED8900C360D36AB
:105758000E360F36E82EF9D70C5010120D501112D4
:105768000E5012120F50131210C505F511C506F58B
:1057780012C507F513C508F512006FEC4CF00009C7
:10578800D8B446D0020E0601FB19D8A407D0160ECD
:105798000501BD6FFA0EBE6F8FEC49F0000E0501D2
:1057A800C46F000EC56F000EC66F21D037EC44F0F1
:1057B8000501C36F020E0601FB19D8A40AD06A0EB0
:1057C8000501BD6FF90EBE6FC3C5BFF5C06B8FEC89
:1057D80049F0010E0501C427000EC523000EC6239B
:1057E800C651C51109E1FB0EC45DD8B005D06FECF8
:1057F8004CF00009D8A4DAD7020E0601FB19D8A488
:1058080007D0FF0E0501BD6FF90EBE6F8FEC49F092
:1058180067EC4CF00009D8B40CD0020E0601FB1955
:10582800D8A407D0E80E0501BD6FF90EBE6F8FEC46
:1058380049F0000E0501C46F000EC56F000EC66F5B
:1058480010D016EC44F0010E0501C427000EC52344
:10585800000EC623C651C5110AE1FB0EC45DD8B0BF
:10586800120067EC4CF00009D8B41200EAD7120015
:10587800090E06019D6F1E0E9C6FE40EE82EFED7E2
:105888009C2FFCD79D2FFAD70000020E0501BD6F93
:10589800FE0EBE6F8FEC49F01E0E076E320E09EC3D
:1058A80042F006019C6F9CA338D0350E0501BD6FF0
:1058B800FF0EBE6F8FEC49F01D0E076E000E086ECE
:1058C800320EEAEC47F01E0E076E000E086E320E1E
:1058D800EAEC47F01F0E076E610E086E320EEAEC16
:1058E80047F0100E076E9E0E086E060E096E070E24
:1058F8000A6E320E03EC3FF0520E06019D6F2B0E1E
:105908009C6F000EE82EFED79C2FFCD79D2FFAD750
:10591800000059EC9EF0010E12001D0E076E000EDD
:10592800086E320EEAEC47F01E0E076E000E086E87
:10593800320EEAEC47F01F0E076E600E086E320E4C
:10594800EAEC47F01E0E056E990E066E000E076E05
:1059580054EC4DF0A20E0501BD6FFF0EBE6F8FEC2B
:1059680049F0000E1200F30E0601006FF50E016FEC
:105978000801FA51056E000E05BEFF0E066E076E91
:10598800086E010EFCEC22F005C502F606C503F60A
:1059980007C504F608C505F6BBEC39F0110E06017B
:1059A8000F6F3C0E0E6FCB0EE82EFED70E2FFCD7D6
:1059B8000F2FFAD7E30E0601006FF50E016F0801ED
:1059C800F951056E000E05BEFF0E066E076E086ED5
:1059D800010EFCEC22F005C502F606C503F607C564
:1059E80004F608C505F6BBEC39F0110E06010F6F79
:1059F8003C0E0E6FCB0EE82EFED70E2FFCD70F2FC6
:105A0800FAD7EC0E0601006FF50E016FF7C805F521
:105A1800F8C806F5000E06BEFF0E076E086E010EEA
:105A2800FCEC22F005C502F606C503F607C504F628
:105A380008C505F6BBEC39F0110E06010F6F3C0ED8
:105A48000E6FCB0EE82EFED70E2FFCD70F2FFAD7EE
:105A580055EC47F01200000E066E060E056EFEC6E7
:105A680007F52CEC43F0000E066E070E056EF7C620
:105A780007F52CEC43F0000E066E080E056E0601C5
:105A8800F851076E2CEC43F0000E066E090E056EF9
:105A9800FDC607F52CEC43F0000E066E0A0E056EE7
:105AA800F9C607F52CEC43F0000E066E0B0E056EDA
:105AB8000601FA51076E2CEC43F0000E066E0C0E30
:105AC800056EFCC607F52CEC43F0000E066E0D0EB5
:105AD800056EF5C607F52CEC43F0000E066E0E0EAB
