:040000000DEF00F010
:04000800EFEF26F000
:10001800FF0030EF12F021EC3DF079EC4CF0E5EC0C
:1000280046F0190E0A01D36F5A0ED26FB10EE82EA0
:10003800FED7D22FFCD7D32FFAD700D0CEB802D014
:10004800C39EC38CC382C384110E0A01D36F3C0EB6
:10005800D26FCB0EE82EFED7D22FFCD7D32FFAD7EC
:10006800C080860E056E990E066E000E076E25EC92
:100078004CF087EC37F0D68E000E0601E16F000ECB
:10008800E66F000E0801E16FFBEC2FF0030E066E21
:10009800E80E056E44EC47F098ECE4F065EC2AF0C5
:1000A8000009D8B402D0010E01D0000E0801E56F96
:1000B8007EEC31F00009D8B402D0010E01D0000E58
:1000C8000801E46FE8ECF3F00801E36FFDEC44F09D
:1000D8007BEC3CF0010E3AEC01F0010E8BECD6F013
:1000E800010E8DEC03F0FD0EBD6FF90EBE6FD9EC5D
:1000F80048F0C70EBD6FFA0EBE6FD9EC48F0850EFA
:10010800BD6FFA0EBE6FD9EC48F0CA0EBD6FFC0E7B
:10011800BE6FFA0EBF6FF50EC06FD9EC48F09B0E9C
:10012800BD6FFA0EBE6FD9EC48F06F0EBD6FFA0EB8
:10013800BE6FD9EC48F0B10EBD6FFA0EBE6FD9ECA8
:1001480048F0C70EBD6FFA0EBE6FD9EC48F0FFEC51
:100158002DF0C392C39432EC1AF050EC3BF0000936
:10016800D8A404D0010E0601E56F47D0000E0601A1
:10017800E56F000E0501BD6F0B0EBE6FDA0EBF6F87
:10018800FD0EC06F59EC40F0000E336E0A0E326E51
:10019800000E356E5F0E346E000E366E0B0E376E27
:1001A800010E386E330E396E000E3A6EDFECF9F040
:1001B800000E0601E06FC382C384190E0A01D36FD3
:1001C8005A0ED26FB10EE82EFED7D22FFCD7D32FFE
:1001D800FAD700D0C392C394110E0A01D36F3C0E14
:1001E800D26FCB0EE82EFED7D22FFCD7D32FFAD75B
:1001F8000601E02B030EE065DED7CEA8FED7000E81
:100208000601E16F19EC4BF000EC0AF0AFEC38F0A6
:10021800000E0601E06F020E0A01D36F380ED26F8E
:10022800AD0EE82EFED7D22FFCD7D32FFAD7010E6A
:10023800F4EC32F08AEC3DF0FAECFFF00601E02B2A
:10024800C70EE065E8D720EC43F0E3EC25F0A6EC18
:1002580035F000EC80F00601E46F000EF4EC32F0AB
:10026800E451D8A4F6D767EC38F0F3D70601046F49
:1002780007D1C2800A0EE82EFED700D0210E99ECD5
:100288004BF0A0EC4BF00009D8B4FBD7FCEC4AF0DB
:1002980005C5D9F806C5DAF8C290020EEED05B0E95
:1002A800176E900E186E3F0E196E400E1A6ED9C852
:1002B80005F5DAC806F5076A086A000EAEEC21F003
:1002C80005C513F506C514F507C515F508C516F5D2
:1002D80052ECF2F013C500F614C501F615C502F686
:1002E80016C503F6F30E176E5D0E186E040E196E22
:1002F800400E1A6E00C613F501C614F502C615F5B0
:1003080003C616F552ECF2F013C52CF514C52DF5FD
:1003180015C52EF516C52FF5000E306E000E316E80
:10032800800E326E450E336E7AECFCF02CC5A2F8C6
:100338002DC5A3F82EC5A4F82FC5A5F8030E9DD08A
:10034800CD0E2C6ECC0E2D6E4C0E2E6E400E2F6EDA
:10035800A2C830F5A3C831F5A4C832F5A5C833F54D
:1003680097EC2DF0D8A002D0010E01D0000E0801A4
:10037800E16F040E82D006010451D8B427D0000ED4
:100388000501BD6F0B0EBE6F620EBF6FFE0EC06F14
:10039800A2C8C1F5A3C8C2F5A4C8C3F5A5C8C4F5C9
:1003A80059EC40F0000E336E000E326E010E356EC1
:1003B800360E346E000E366E0B0E376E010E386E2A
:1003C8003C0E396E010E3A6EDFECF9F0050E55D091
:1003D800000E0501BD6F0B0EBE6F8C0EBF6FFF0EBA
:1003E800C06FA2C8C1F5A3C8C2F5A4C8C3F5A5C803
:1003F800C4F559EC40F0000E336E180E326E010E43
:10040800356E360E346E000E366E0B0E376E010EDC
:10041800386E3C0E396E010E3A6EDFECF9F0060EBE
:100428002CD0CFBA15D0000E336E3C0E326E010EB2
:10043800356E360E346EA70E366EFF0E376E010E11
:10044800386E300E396E010E3A6EDFECF9F014D0CA
:10045800000E336E3C0E326E010E356E360E346E63
:10046800410E366EFB0E376E010E386E000E396E79
:10047800010E3A6EDFECF9F0000E0701F56F17D0A8
:100488000701F551000AD8B4F4D6010AD8B4F1D658
:10049800030AD8B404D7010AD8B452D7070AD8B483
:1004A8006AD7010AD8B494D7030AD8B4BAD70601D0
:1004B8000405D8A412000701F551D8B41200E0D7FA
:1004C8004A6E4A50D8B4120021504A5CD8B0120083
:1004D8001E04D8A408D0FF0E056E000E066EFF0E8F
:1004E800BAEC4AF007D0600E056E600E066E600E1C
:1004F800BAEC4AF04A50080DF3C422F5F4C423F5C7
:1005080022501F24246E23502020256E24C5F6F483
:1005180025C5F7F4000EF86E240EF76407D009001D
:10052800F5C426F50900F5C427F508D0F6C4E9F4A2
:10053800F7C4EAF4EEC426F5EEC427F5FC0E26242B
:10054800146EFF0E2720156E4A50080DF3C428F5C7
:10055800F4C429F528501F242A6E295020202B6E18
:10056800020E2A26000E2B222AC5F6F42BC5F7F414
:10057800000EF86E240EF76407D00900F5C42CF5B8
:100588000900F5C42DF508D0F6C4E9F4F7C4EAF477
:10059800EEC42CF5EEC42DF5FC0E2C24166EFF0EC1
:1005A8002D20176E4A50080DF3C42EF5F4C42FF50C
:1005B8002E501F24306E2F502020316E040E30260E
:1005C800000E312230C5F6F431C5F7F4000EF86E8E
:1005D800240EF76407D00900F5C432F50900F5C404
:1005E80033F508D0F6C4E9F4F7C4EAF4EEC432F5FA
:1005F800EEC433F54A50080DF3C434F5F4C435F5A8
:1006080034501F24366E35502020376E36C5F6F428
:1006180037C5F7F4000EF86E240EF76407D009000A
:10062800F5C438F50900F5C439F508D0F6C4E9F47D
:10063800F7C4EAF4EEC438F5EEC439F5325038247C
:100648003A6E335039203B6E010E3A24186E000E74
:100658003B20196E4A50080DF3C43CF5F4C43DF52F
:100668003C501F243E6E3D5020203F6E060E3E2615
:10067800000E3F223EC5F6F43FC5F7F4000EF86EB3
:10068800240EF76407D00900F5C440F50900F5C445
:1006980041F508D0F6C4E9F4F7C4EAF4EEC440F52D
:1006A800EEC441F54A50080DF3C442F5F4C443F5CD
:1006B80042501F24446E43502020456E020E4426AB
:1006C800000E452244C5F6F445C5F7F4000EF86E51
:1006D800240EF76407D00900F5C446F50900F5C4EF
:1006E80047F508D0F6C4E9F4F7C4EAF4EEC446F5D1
:1006F800EEC447F540504624486E41504720496EA5
:10070800010E48241A6E000E49201B6E82EC39F047
:1007180012000601026F100E076E050E086E060E17
:10072800096E070E0A6E320EF0EC3DF00601020566
:10073800D8A432D0000E0501BD6F0B0EBE6FFB0EA4
:10074800BF6FF80EC06F0BC6C1F5C26B0AC6C3F502
:10075800C46B09C6C5F5C66B07C6C7F5C86B06C620
:10076800C9F5CA6B05C6CBF5CC6B59EC40F0000E49
:10077800336E6E0E326E010E356E360E346E000E0E
:10078800366E0B0E376E010E386E3F0E396E010E47
:100798003A6EDFECF9F0BAD0000E0C6F050E0C259E
:1007A800D96EDA6A060EDA224A0E0C25E16EE26A82
:1007B8000A0EE222DE50E618D8B43CD0000E05013D
:1007C800BD6F0B0EBE6F300EBF6FFD0EC06F050EF6
:1007D80006010C25D96EDA6A060EDA22DF50006FA0
:1007E80000510501C16FC26B59EC40F00CC605F50C
:1007F800066AFF0E086EEE0E076EECEC48F0DA0E95
:1008080005240601036F000E0620046F03C632F5A7
:1008180004C633F5010E356E360E346E000E366E94
:100828000B0E376E010E386E3F0E396E010E3A6EA2
:10083800DFECF9F006010C2B020E0C65AFD7040EA5
:100848000C6F050E0C25D96EDA6A060EDA224A0EEE
:100858000C25E16EE26A0A0EE222DE50E618D8B4F0
:100868003CD0000E0501BD6F0B0EBE6F300EBF6F82
:10087800FD0EC06F050E06010C25D96EDA6A060E4C
:10088800DA22DF50006F00510501C16FC26B59ECCD
:1008980040F00CC605F5066AFF0E086EEE0E076EF0
:1008A800ECEC48F0E60E05240601036F000E062066
:1008B800046F03C632F504C633F5010E356E360EE5
:1008C800346E000E366E0B0E376E010E386E3F0E0C
:1008D800396E010E3A6EDFECF9F006010C2B060EAC
:1008E8000C65AFD7000E0C6F050E0C25D96EDA6AB1
:1008F800060EDA224A0E0C25E16EE26A0A0EE222A0
:10090800DFC4E7F40C2B060E0C65EED7300E05019C
:10091800BD6F230EBE6F240EBF6FFD0EC06F0BC6DA
:10092800C1F5C26B0AC6C3F5C46B09C6C5F5C66B6B
:1009380059EC40F03F0EBD6F230EBE6F0D0EBF6F1A
:10094800F90EC06F07C6C1F5C26B06C6C3F5C46B06
:1009580005C6C5F5C66B59EC40F01200DFC5D9F4E1
:10096800E0C5DAF4DEC4E9F5DDC4EAF5E1C5F6F47C
:10097800E2C5F7F4000EF86E240EF76403D0080001
:10098800F55005D0F6C4E9F4F7C4EAF4EF502F0A9D
:10099800D8B42DD0E1C5F6F4E2C5F7F4000EF86E30
:1009A800240EF76403D00800F55005D0F6C4E9F426
:1009B800F7C4EAF4EF505C0AD8B419D0050120EE68
:1009C80013F0E951D926EA51DA2210EE06F0DF5188
:1009D800E126E051E222DEC4E6F4DEC4E6F4DEC439
:1009E800E6F4DEC4E6F436D00501E14BE22BE1C5BE
:1009F800F6F4E2C5F7F4000EF86E240EF76403D09F
:100A08000800F55005D0F6C4E9F4F7C4EAF4EF504D
:100A18002F0AD8B4E9D7E1C5F6F4E2C5F7F4000E19
:100A2800F86E240EF76403D00800F55005D0F6C41C
:100A3800E9F4F7C4EAF4EF505C0AD8B4D5D7050155
:100A480020EE06F0DF51D926E051DA22DE6ADE6AAE
:100A5800DE6ADD6AE1C5F6F4E2C5F7F4000EF86E69
:100A6800240EF76403D00800F55005D0F6C4E9F465
:100A7800F7C4EAF4EF500501E36F200EE36117D0E5
:100A880020EE27F0DF51D926E051DA22800EDF6E02
:100A9800DFC599F5E0C59AF5000E9B6F000E9C6FB7
:100AA800000E9D6F000E9E6F6EECF8F036D0DFC51D
:100AB8000DF5E0C50EF5E10E0F6E050E106E35EC66
:100AC800E8F00501EC6FEC51D8A465D0DFC5D7F587
:100AD800E0C5D8F526EC24F0EC6F20EE27F0DF51C6
:100AE800D926E051DA22DF50EB6FEC51D8B417D099
:100AF800040EEC19D8A44FD0EBAB0CD0EBA5D7D78C
:100B080020EE27F0DF51D926E051DA22800EDF6E81
:100B1800000E03D0EBB53FD0050EEC6F3CD0EBB523
:100B28003AD020EE04F0DF51D926E051DA22DFA8CE
:100B3800F3D7E9C50CF5EAC50DF520EE0EF0DF5147
:100B4800D926E051DA22DEC4E3F5DDC4E4F5FF0E70
:100B5800E315E56F010EE415E66FE551E925E76F4A
:100B6800E651EA21E86F330EE7250E6E000EE82104
:100B78000F6E06EC3CF0050120EE06F0DF51D92699
:100B8800E051DA220CC5DEF40DC5DEF40EC5DEF444
:100B98000FC5DEF48CD7EC5112000B0E156E070151
:100BA800DC51166EDD51176E186A196AD890163422
:100BB8001A6E17341B6E18341C6E19341D6E030E12
:100BC8001E6E11C51FF512C520F513C521F514C5F4
:100BD80022F51E6601D007D022342232213220327B
:100BE8001F321E2EF6D71A501F5C056E1B50205858
:100BF800066E1C502158076E1D502258086ED3C827
:100C080009F5D4C80AF5000E0ABEFF0E0B6E0C6E6D
:100C180064EC3FF0156601D007D00834083207327B
:100C280006320532152EF6D705C528F506C529F56D
:100C380007C52AF508C52BF50C0E156E0701DC5102
:100C4800166EDD51176E186A196A040E1A6E11C5F0
:100C58001BF512C51CF513C51DF514C51EF51A663E
:100C680001D007D01E341E321D321C321B321A2E00
:100C7800F6D716501B5C056E17501C58066E185098
:100C88001D58076E19501E58086E0701DC511F6E5B
:100C9800DD51206E216A226A040E236E11C524F5E7
:100CA80012C525F513C526F514C527F5236601D009
:100CB80007D027342732263225322432232EF6D77E
:100CC8001F50245C096E205025580A6E2150265862
:100CD8000B6E225027580C6E64EC3FF0156601D05D
:100CE80007D008340832073206320532152EF6D7F7
:100CF80005C534F506C535F507C536F508C537F514
:100D08000E0E156E34C505F535C506F536C507F55D
:100D180037C508F5D1C809F5D2C80AF5000E0ABECC
:100D2800FF0E0B6E0C6E64EC3FF0156601D007D019
:100D380008340832073206320532152EF6D705C5B3
:100D48002CF506C52DF507C52EF508C52FF52C5031
:100D5800282408017E6F2D5029207F6F2E502A20CD
:100D6800806F2F502B20816F7EC805F57FC806F550
:100D780080C807F581C808F5050E096E000E0A6ED1
:100D8800000E0B6E000E0C6E64EC3FF0800E052416
:100D9800156E000E0620166E000E0720176E000E48
:100DA8000820186E16C515F517C516F518C517F5D8
:100DB800186A17BE186815C530F516C531F517C578
:100DC80032F518C533F530C511F531C512F532C500
:100DD80013F533C514F5120060C513F561C514F594
:100DE80062C515F563C516F560C517F561C518F533
:100DF80062C519F563C51AF552ECF2F013C57CF516
:100E080014C57DF515C57EF516C57FF57CC513F5AA
:100E18007DC514F57EC515F57FC516F57CC517F596
:100E28007DC518F57EC519F57FC51AF552ECF2F0A7
:100E380013C568F514C569F515C56AF516C56BF5CA
:100E48003C0E176E6C0E186E360E196E360E1A6E34
:100E58007CC513F57DC514F57EC515F57FC516F55A
:100E680052ECF2F013C545F514C546F515C547F51E
:100E780016C548F5CF0E496E070E4A6E500E4B6EDA
:100E8800B90E4C6E73ECF5F045C564F546C565F5CD
:100E980047C566F548C567F57CC513F57DC514F5E6
:100EA8007EC515F57FC516F560C517F561C518F53A
:100EB80062C519F563C51AF552ECF2F013C578F559
:100EC80014C579F515C57AF516C57BF5AB0E496ECF
:100ED800AA0E4A6E2A0E4B6EBE0E4C6E840E176E0C
:100EE800880E186E080E196E3C0E1A6E7CC513F526
:100EF8007DC514F57EC515F57FC516F552ECF2F0E3
:100F080013C545F514C546F515C547F516C548F585
:100F180073ECF5F045C56CF546C56DF547C56EF53E
:100F280048C56FF568C517F569C518F56AC519F597
:100F38006BC51AF578C513F579C514F57AC515F595
:100F48007BC516F552ECF2F013C570F514C571F5B2
:100F580015C572F516C573F560C549F561C54AF53D
:100F680062C54BF563C54CF578C517F579C518F515
:100F78007AC519F57BC51AF56CC513F56DC514F559
:100F88006EC515F56FC516F552ECF2F013C545F5AB
:100F980014C546F515C547F516C548F573ECF5F0C3
:100FA80045C574F546C575F547C576F548C577F561
:100FB80074C545F575C546F576C547F577C548F551
:100FC80064C517F565C518F566C519F567C51AF539
:100FD80070C513F571C514F572C515F573C516F509
:100FE80052ECF2F013C549F514C54AF515C54BF591
:100FF80016C54CF573ECF5F045C560F546C561F5C9
:1010080047C562F548C563F5120060C513F561C5AB
:1010180014F562C515F563C516F560C517F561C504
:1010280018F562C519F563C51AF552ECF2F013C547
:1010380078F514C579F515C57AF516C57BF578C523
:1010480013F579C514F57AC515F57BC516F578C578
:1010580017F579C518F57AC519F57BC51AF552EC57
:10106800F2F013C574F514C575F515C576F516C5F2
:1010780077F5170E176E9A0E186ECC0E196E370E7E
:101088001A6E78C513F579C514F57AC515F57BC5BB
:1010980016F552ECF2F013C545F514C546F515C51D
:1010A80047F516C548F53F0E496E040E4A6EB60E52
:1010B8004B6EBA0E4C6E73ECF5F045C564F546C53B
:1010C80065F547C566F548C567F5000E496E000E1B
:1010D8004A6E800E4B6E3F0E4C6E000E176E000E61
:1010E800186E000E196EBF0E1A6E78C513F579C505
:1010F80014F57AC515F57BC516F552ECF2F013C553
:1011080045F514C546F515C547F516C548F573ECFC
:10111800F5F045C568F546C569F547C56AF548C59A
:101128006BF578C517F579C518F57AC519F57BC536
:101138001AF574C513F575C514F576C515F577C593
:1011480016F552ECF2F013C56CF514C56DF515C51E
:101158006EF516C56FF59F0E176EAA0E186E2A0E3D
:10116800196E3D0E1A6E74C513F575C514F576C55E
:1011780015F577C516F552ECF2F013C549F514C507
:101188004AF515C54BF516C54CF568C545F569C54D
:1011980046F56AC547F56BC548F573ECF5F045C5E6
:1011A80070F546C571F547C572F548C573F570C544
:1011B80045F571C546F572C547F573C548F564C56B
:1011C80017F565C518F566C519F567C51AF56CC52F
:1011D80013F56DC514F56EC515F56FC516F552EC0A
:1011E800F2F013C549F514C54AF515C54BF516C5F2
:1011F8004CF573ECF5F045C560F546C561F547C596
:1012080062F548C563F512000601086F990E0501DD
:10121800BD6F230EBE6FE50EBF6FF90EC06F650E72
:10122800C16F0A0EC26F59EC40F0D50EBD6F230E88
:10123800BE6F3F0EBF6FFB0EC06F59EC40F0E40E5F
:10124800BD6F230EBE6F3C0EBF6FFB0EC06F59EC17
:1012580040F006010851D8A40CD0000E0501BD6F5E
:101268000B0EBE6F120EBF6FFF0EC06F59EC40F031
:10127800AED05850330DD20EF324D96E150EF4208B
:10128800DA6EDE50DE10DE10DE10D8A40FD0000EAD
:101298000501BD6F0B0EBE6F190EBF6FFF0EC06F3D
:1012A80059EC40F0300E0601086F91D0000E2C6EFC
:1012B800C00E2D6E790E2E6E440E2F6E5850330DC3
:1012C800DA0EF324D96E150EF420DA6EDEC430F58A
:1012D800DEC431F5DEC432F5DEC433F597EC2DF00B
:1012E800D8B00CD0000E0501BD6F0B0EBE6FB10E4D
:1012F800BF6FFE0EC06F59EC40F0D4D75850330D75
:10130800D60EF324D96E150EF420DA6EDEC413F56A
:10131800DEC414F5DEC415F5DEC416F5000E176E2E
:10132800240E186E740E196E490E1A6E52ECF2F0F5
:1013380013C504F614C505F615C506F616C507F651
:10134800D50E0501BD6F230EBE6F500EBF6FFF0E89
:10135800C06F04C6C1F505C6C2F506C6C3F507C603
:10136800C4F559EC40F0000EBD6F0B0EBE6F500E69
:10137800BF6FFF0EC06F5850330DDA0EF324D96ECD
:10138800150EF420DA6EDEC4C1F5DEC4C2F5DEC483
:10139800C3F5DEC4C4F559EC40F0E40EBD6F230E6E
:1013A800BE6F860EBF6FFF0EC06F5850330DDA0E3A
:1013B800F324D96E150EF420DA6EDEC4C1F5DEC44E
:1013C800C2F5DEC4C3F5DEC4C4F559EC40F0000E26
:1013D800336E240E326E000E356E140E346E000E0F
:1013E800366E0B0E376E020E386E08C639F5010ED2
:1013F8003A6EDFECF9F01200000E066E060E056E6E
:101408008AEC4AF00601FE6FFEBF05D0FE51800A45
:101418001C0FD8A002D00A0EFE6F000E066E070E33
:10142800056E8AEC4AF0576E57500601F76FF86B55
:10143800000E066E080E056E8AEC4AF00601F827C3
:10144800F8BF08D0F8BF0AD0E80EF75D030EF859C8
:10145800D8A004D0000EF86F000EF76F000E066ECD
:10146800090E056E8AEC4AF00601FD6FFD51D8B4ED
:1014780003D0100EFD6502D0010EFD6F000E066E42
:101488000A0E056E8AEC4AF0576E57500601F96F3E
:10149800FA6B000E066E0B0E056E8AEC4AF006011A
:1014A800FA27FABF0ED0FA5104E1640EF95DD8A00C
:1014B80008D0FABF0AD0F50EF95D010EFA59D8A086
:1014C80004D0010EFA6F180EF96F000E066E0C0E9E
:1014D800056E8AEC4AF00601FC6FFC51D8B403D0C3
:1014E800080EFC6502D0010EFC6F000E066E0D0E94
:1014F800056E8AEC4AF0576E57500601F56FF66B89
:10150800000E066E0E0E056E8AEC4AF00601F627EE
:10151800F6BF08D0F6BF0AD0590EF55D020EF6598F
:10152800D8A004D0000EF66F960EF56F000E066E6A
:101538000F0E056E8AEC4AF00801FB6FFB51D8B418
:1015480003D0020EFB6502D0010EFB6F000E066E83
:10155800100E056E8AEC4AF00801FA6FFA51800AFB
:10156800A80FD8A005D0FA51800A5C0FD8A002D0E5
:10157800F10EFA6F000E066E110E056E8AEC4AF037
:101588000801F96FF951800A620FD8A005D0F95106
:10159800800A070FD8A002D04A0EF96F000E066E17
:1015A800120E056E8AEC4AF0576E57500801F76F15
:1015B800F86B000E066E130E056E8AEC4AF00801F1
:1015C800F827F8BF08D0F8BF0AD0F85104E1FB0E9D
:1015D800F75DD8A004D0000EF86F5A0EF76F09EC2B
:1015E80013F01200D7D00601D75118EC41F00009CA
:1015F800D8B42BD0020EFB19D8A414D0B00E050114
:10160800BD6FFD0EBE6F790E0601D725D96EDA6A59
:101618000D0EDA22DF500501D26FD251BF6FC06BB9
:10162800D9EC48F0790E0601D725D96EDA6A0D0E85
:10163800DA22420EDE18D8A403D0D72B010EA7D089
:10164800000ED76F000E0701E76F010E0501D66F78
:10165800BAD00601D75118EC41F00009D8B4F5D733
:10166800790ED725D96EDA6A0D0EDA22490EDE1800
:10167800D8A4E6D7D72B020E8AD00601D75118EC8A
:1016880041F00009D8B4E1D7790ED725D96EDA6AC6
:101698000D0EDA224E0EDE18D8A4D2D7D72B030EA1
:1016A80076D00601D75118EC41F00009D8B4CDD74F
:1016B800D72B780ED725D96EDA6A0D0EDA222C0EC2
:1016C800DE18D8B403D0290ED765BFD7790ED72531
:1016D800D96EDA6A0D0EDA22DF6A020EFB19D8A477
:1016E8000BD02D0E0501BD6FFA0EBE6F790EBF6FC0
:1016F8000D0EC06FD9EC48F0040EA5D7790EB66F61
:101708000D0EB76F870EB86FF90EB96FD0C5BAF561
:10171800D1C5BBF5040ED025BC6F000ED121BD6F1D
:10172800080ED025BE6F000ED121BF6F32EC40F0FD
:10173800B6C5D4F5B7C5D5F5030E0501D419D5112D
:10174800D8B402D0030E1ED020EE08F0D051D9260E
:10175800D151DA22DEC405F5DEC406F5DEC407F58C
:10176800DEC408F5000E096E000E0A6E000E0B6E40
:10177800000E0C6EC7EC39F0D8A002D0020E01D0D2
:10178800000E0501D66F000E0601D76F000E070187
:10179800E76F19D00701E7510501D26FD36BD35119
:1017A800000AD8A410D0D251000AD8B41CD7010A14
:1017B800D8B44FD7030AD8B460D7010AD8B471D7C0
:1017C800070AD8B49BD70501D651120074C562F533
:1017D80075C563F5EDEC1AF07E6F7E51D8A4E3D0A1
:1017E80074C5D9F475C5DAF4030EDE18D8A4C6D0CA
:1017F80020EE04F07451D9267551DA22DE04D8A4FB
:10180800BDD0330E7425056E000E7521066E000ED0
:10181800086E000E076E020E0A6E000E096E76EC58
:1018280048F0310E7425056E020E7521066EAA0E5B
:10183800086E550E076E8AEC48F0330E05017425C4
:10184800226E000E7521236E520E246E520E256EE6
:10185800610E266E410E276EEBEC3CF0170E05016B
:101868007425226E020E7521236E720E246E720E7E
:10187800256E410E266E610E276EEBEC3CF01B0EBA
:1018880005017425226E020E7521236E20EE0FF0DD
:101898007451D9267551DA22DEC424F5DEC425F543
:1018A800DEC426F5DEC427F5EBEC3CF01F0E05017F
:1018B8007425226E020E7521236E20EE0BF07451F2
:1018C800D9267551DA22DEC424F5DEC425F5DEC436
:1018D80026F5DEC427F5EBEC3CF0050120EE1FF001
:1018E8007451D9267551DA22DEC476F5DEC477F54F
:1018F800DEC478F5DEC479F5010E76257A6F000E20
:1019080077217B6F000E78217C6F000E79217D6F27
:1019180020EE2FF07451D9267551DA227AC5DEF4FB
:101928007BC5DEF47CC5DEF47DC5DEF4330E74259C
:101938004F6E000E7521506E20EE2FF07451D9268F
:101948007551DA22DEC451F5DEC452F5DEC453F512
:10195800DEC454F5000E566E010E556E20EE01F0F1
:101968007451D9267551DA22DF50A6EC40F020EEEA
:1019780004F07451D9267551DA22DF6A000E056E1B
:10198800000E066E000E076E20EE01F07451D92687
:101998007551DA22DF50F2EC4AF00009D8B403D0CE
:1019A800010E05017E6F05017E5112007FC507F506
:1019B80080C508F5880E096E050E0A6E1EEC31F01A
:1019C8000501856F8551D8A4DCD020EE0EF07F513B
:1019D800D9268051DA22DFACD4D020EE0EF07F5128
:1019E800D9268051DA22DFAE2ED0220E7F254F6E07
:1019F800000E8021506E20EE18F07F51D9268051BC
:101A0800DA22DEC451F5DEC452F5DEC453F5DEC475
:101A180054F5000E566E010E556E20EE01F08851F9
:101A2800D9268951DA22DF50A6EC40F00009D8B453
:101A380002D0010E120020EE0EF07F51D9268051FF
:101A4800DA227F0EDF16D4EC37F014C581F515C500
:101A580082F516C583F517C584F588C574F589C55B
:101A680075F5050120EE1CF07F51D9268051DA2248
:101A7800DEC476F5DEC477F5DEC478F5DEC479F524
:101A8800FEEC33F0856F8551D8A47BD020EE20F092
:101A98007F51D9268051DA22DEC486F5DDC487F568
:101AA80020EE0BF08651D9268751DA22000EDB8A08
:101AB8007FC5D9F480C5DAF4DEC409F5DDC40AF5BA
:101AC80086C50BF587C50CF520EE06F07F51D926A3
:101AD8008051DA22DEC40DF5DEC40EF5DEC40FF542
:101AE800DEC410F59CEC42F01C0E05018625226E22
:101AF800000E8721236E20EE0AF07F51D9268051EF
:101B0800DA22DEC424F5DEC425F5DEC426F5DEC4FB
:101B180027F5EBEC3CF0160E05018625226E000E2B
:101B28008721236E81C524F582C525F583C526F551
:101B380084C527F5EBEC3CF0120E05018625056EF1
:101B4800000E8721066E000E086E000E076E8AECE6
:101B580048F0050120EE03F08851D9268951DA2290
:101B6800010EDF6E88C574F589C575F5EAEC0BF0D2
:101B7800856F20EE0EF07F51D9268051DA22BF0EF4
:101B8800DF1685511200EDC91DF5EEC91EF5EFC926
:101B98001FF5F0C920F5030E1524196E000E162046
:101BA8001A6E1950175C1850800A1B6E1A50800A5A
:101BB8001B58D8B005D0000E136E000E126E12001E
:101BC80015C529F516C52AF514C519F5BF0E192628
:101BD800190E196404D014C523F5246A08D0200E00
:101BE80014C519F51A6A1910236E1A50246E690E55
:101BF80023182410D8B402D0010E01D0000E216E93
:101C0800226AA60E2924D96E0E0E2A20DA6E14C571
:101C1800DFF4294A2A2A54D012C509F513C50AF552
:101C280048EC2CF009C527F50AC528F5272808E14E
:101C38002828D8A405D027C512F528C513F5120001
:101C480027C519F5BF0E1926190E196405D027C521
:101C580025F528C526F505D0200E2710256E285015
:101C6800266ED8902134D96E2234DA6E1D0ED9260C
:101C7800050EDA22DEC419F5DDC41AF51550195E11
:101C880016501A5A295019262A501A2219C5F6F43C
:101C98001AC5F7F4000EF86E0800F5501B6E1C6AA2
:101CA80025501B181DE126501C18D8A419D0A60EC3
:101CB8002924D96E0E0E2A20DA6E27C5DFF4A9D79B
:101CC800030E1524196E000E16201A6E1950295C81
:101CD8002A50800A1B6E1A50800A1B58D8A09CD71D
:101CE800030E1524196E000E16201A6E1950295C61
:101CF8002A50800A1B6E1A50800A1B58D8B02AD066
:101D080027C505F528C506F512C507F513C508F555
:101D18003DEC39F014D02906D8A02A06A60E2924AD
:101D2800D96E0E0E2A20DA6EDF50196E1950056E24
:101D3800066A12C507F513C508F53DEC39F02950B8
:101D4800155C1650800A196E2A50800A1958D8B0A6
:101D580032D7E1D7000E136E030E126E1200185020
:101D68000108206E1950D8A0E82A0008216E000E3C
:101D78001D6E010E1C6E18C51AF519C51BF5D890F5
:101D88001A361B361A1E1B1E1A4A1B2A1AC51EF59E
:101D98001BC51FF5000E236E000E226E18C524F514
:101DA80019C525F514C510F515C511F518501624D3
:101DB800126E19501720136E0BEC3FF014C510F576
:101DC80015C511F51850165C126E19501758136E78
:101DD8000BEC3FF018501424106E19501520116E9A
:101DE80016C512F517C513F50BEC3FF01850145C27
:101DF800106E19501558116E16C512F517C513F542
:101E08000BEC3FF087D021BE0BD02406D8A02506C6
:101E1800020E1E26000E1F221E5020261F502122B1
:101E2800224A232A020E1C26000E1D221C502026A0
:101E38001D50212214502224106E15502320116E9B
:101E480016502424126E17502520136E0BEC3FF009
:101E58002250145C106E23501558116E165024240D
:101E6800126E17502520136E0BEC3FF014502224ED
:101E7800106E15502320116E2450165C126E2550DA
:101E88001758136E0BEC3FF02250145C106E235061
:101E98001558116E2450165C126E25501758136E83
:101EA8000BEC3FF014502424106E15502520116EB1
:101EB80016502224126E17502320136E0BEC3FF09D
:101EC8002450145C106E25501558116E165022249B
:101ED800126E17502320136E0BEC3FF0145024247D
:101EE800106E15502520116E2250165C126E23506C
:101EF8001758136E0BEC3FF02450145C106E2550ED
:101F08001558116E2250165C126E23501758136E16
:101F18000BEC3FF02450225C2350800A1A6E2550A7
:101F2800800A1A58D8B012006ED7880E076E0F0EA6
:101F3800086E050E096E180E0A6E760EF0EC3DF06E
:101F48000F5010C50CF50D6A0CC50DF50C6A0C1078
:101F58000701DC6F0D50DD6F115012C50CF50D6ACD
:101F68000CC50DF50C6A0C100801D36F0D50D46F19
:101F7800135014C50CF50D6A0CC50DF50C6A0C1040
:101F8800D16F0D50D26F155016C50CF50D6A0CC5E2
:101F98000DF50C6A0C10EA6F0D50EB6F175018C551
:101FA8000CF50D6A0CC50DF50C6A0C10CF6F0D50B1
:101FB800D06F19501AC50CF50D6A0CC50DF50C6AD1
:101FC8000C10CD6F0D50CE6F1B501CC50CF50D6A53
:101FD8000CC50DF50C6A0C10CB6F0D50CC6F1D5055
:101FE8001EC50CF50D6A0CC50DF50C6A0C10C96FF1
:101FF8000D50CA6F1F5020C50CF50D6A0CC50DF5A4
:102008000C6A0C10C76F0D50C86F215022C50CF513
:102018000D6A0CC50DF50C6A0C10C56F0D50C66F16
:10202800235024C50CF50D6A0CC50DF50C6A0C106F
:10203800C36F0D50C46F255026C50CF50D6A0CC52D
:102048000DF50C6A0C10C16F0D50C26FA10E076E12
:10205800760EF2EC40F00701ED6FE10E076E0F0E01
:10206800086E050E096E070E0A6E760EF0EC3DF04E
:102078000F5010C50CF50D6A0CC50DF50C6A0C1047
:102088000801BF6F0D50C06F11C5ECF712500C6EF0
:102098000D6A0C3A0D3AF00E0D160C500F0B0D127E
:1020A800F00E0C1613C50EF50F0E0E160E500C1072
:1020B800BD6F0D50BE6F14500C6E0D6A0C3A0D3A80
:1020C800F00E0D160C500F0B0D12F00E0C1613C55A
:1020D8000EF50E3A0F0E0E160F0E0E160E500C10B1
:1020E800BB6F0D50BC6F15C5EBF71200576E200E75
:1020F8000501BD6F240EBE6F3D0EBF6FFB0EC06F96
:1021080059EC40F02F0EBD6F240EBE6F3D0EBF6F11
:10211800FB0EC06F59EC40F05750D8A40BD0000EFE
:10212800BD6F0B0EBE6F330EBF6FFB0EC06F59EC49
:1021380040F0A3D05850330DF60EF324D96E150E87
:10214800F420DA6EDEC42CF5DEC42DF5DEC42EF5DF
:10215800DEC42FF5330E306EF30E316EC70E326EBD
:10216800430E336E97EC2DF0D8B01CD05850330D79
:10217800FA0EF324D96E150EF420DA6EDEC42CF5AF
:10218800DEC42DF5DEC42EF5DEC42FF5330E306E19
:10219800F30E316EC70E326E430E336E97EC2DF090
:1021A800D8A00CD0000E0501BD6F0B0EBE6F0C0E33
:1021B800BF6FFC0EC06F59EC40F05FD0000E0501F8
:1021C800BD6F0B0EBE6F350EBF6FFD0EC06F585042
:1021D800330DF60EF324D96E150EF420DA6EDEC434
:1021E800C1F5DEC4C2F5DEC4C3F5DEC4C4F558507B
:1021F800330DFA0EF324D96E150EF420DA6EDEC410
:10220800C5F5DEC4C6F5DEC4C7F5DEC4C8F559ECAD
:1022180040F0200EBD6F240EBE6F620EBF6FFF0E22
:10222800C06F5850330DF60EF324D96E150EF420F6
:10223800DA6EDEC4C1F5DEC4C2F5DEC4C3F5DEC4A1
:10224800C4F559EC40F02F0EBD6F240EBE6F620E20
:10225800BF6FFF0EC06F5850330DFA0EF324D96EBE
:10226800150EF420DA6EDEC4C1F5DEC4C2F5DEC494
:10227800C3F5DEC4C4F559EC40F0000E336E020E0F
:10228800326E000E356E280E346E000E366E0B0E52
:10229800376E010E386E57C539F5010E3A6EDFEC10
:1022A800F9F01200A0C5D9F4A1C5DAF4DEC4B7F577
:1022B800DDC4B8F5A551A411A31104E1020EA25D75
:1022C800D8A010D020EE17F0B751D926B851DA228D
:1022D800DE50A25DDE50A359DE50A459DE50A55948
:1022E800D8A002D0020E1200A651A711A811A91158
:1022F800D8B41CD0B7C57FF5B8C580F5A6C581F59B
:10230800A7C582F5A8C583F5A9C584F5FF0E856F15
:10231800FF0E866FFF0E876FFF0E886FCBECDAF02B
:10232800B66FB651D8B402D0B6511200A0C57FF529
:10233800A1C580F5A2C581F5A3C582F5A4C583F51D
:10234800A5C584F5B8ECEBF07FC5B2F580C5B3F54B
:1023580081C5B4F582C5B5F5B251B311B411B51143
:10236800D8B478D0B205B311B411B511D8B4BAD76E
:10237800B22909E1B32907E1B42905E1B529D8A4AF
:1023880002D0010E1200B7C57FF5B8C580F5A2C509
:1023980081F5A3C582F5A4C583F5A5C584F5000E0E
:1023A800856F000E866F000E876F000E886FCBEC6E
:1023B800DAF0B66FB651D8A4B7D720EE17F0B751F8
:1023C800D926B851DA22FE0EDE24AA6FFF0EDE20CF
:1023D800AB6FFF0EDE20AC6FFF0EDE20AD6F20EE80
:1023E8000FF0B751D926B851DA22AA51DE5CAB51A9
:1023F800DE58AC51DE58AD51DE58D8B013D020EEBF
:102408000FF0B751D926B851DA22DE2A000EDE22A3
:10241800DE22DE2220EE04F0B751D926B851DA22A6
:10242800000EDB80B2C5A2F5B3C5A3F5B4C5A4F50B
:10243800B5C5A5F520EE17F0B751D926B851DA225F
:10244800DE50A25DDE50A359DE50A459DE50A559D6
:10245800D8A06CD7000E12005E0EF66E5A0EF76EFC
:10246800000EF86E05EE00F110EED0F00900F5C48C
:10247800EEF4E550E150FAE1AC0EF66E7A0EF76E26
:10248800000EF86E04EE00F310EE68F00900F5C4D3
:10249800EEF4E550E150FAE1700EF66E7E0EF76E3E
:1024A800000EF86E02EE7AF210EE58F00900F5C44C
:1024B800EEF4E550E150FAE1BF0EF66E980EF76EB5
:1024C800000EF86E02EEEDF110EE0AF00900F5C408
:1024D800EEF4E550E150FAE1200EF66E960EF76E36
:1024E800000EF86E02EEEEF010EE12F00900F5C4E0
:1024F800EEF4E550E150FAE1460EF66E9A0EF76EEC
:10250800000EF86E0900F5C4FFF7B40EF66E980ECB
:10251800F76E000EF86E01EEF5F210EE0BF0090002
:10252800F5C4EEF4E550E150FAE105EED0F113EE12
:10253800C8F2EE6AE550E150FCE1E250FAE105EE3E
:1025480000F0A20EEE6AE806FDE104EE00F2A20E2B
:10255800EE6AE806FDE104EE00F1E20EEE6AE80636
:10256800FDE104EE00F0F00EEE6AE806FDE103EE90
:1025780000F3E60EEE6AE806FDE103EE00F2F60E61
:10258800EE6AE806FDE103EE00F1CA0EEE6AE8061F
:10259800FDE103EE00F0D00EEE6AE806FDE102EE82
:1025A80000F310EE00F1EE6AE550E150FCE1E25074
:1025B800FAE102EE00F27A0EEE6AE806FDE102EEBA
:1025C80000F1ED0EEE6AE806FDE102EE78F0760E17
:1025D800EE6AE806FDE101EEC3F33C0EEE6AE8069A
:1025E800FDE101EEBFF2360EEE6AE806FDE15B6A38
:1025F8005A6A596A586A0401080E5D6F000E5E6FC8
:10260800000E5F6F00010FEF00F0000E306E000E3D
:10261800316E7A0E326E440E336EF7C605F5F8C683
:1026280006F5000E06BEFF0E076E086E010EAEEC34
:1026380021F005C52CF506C52DF507C52EF508C5ED
:102648002FF57AECFCF02CC545F52DC546F52EC5C1
:1026580047F52FC548F50601FE51056E000E05BE6B
:10266800FF0E066E076E086E010EAEEC21F005C572
:1026780049F506C54AF507C54BF508C54CF573EC91
:10268800F5F045C500F646C501F647C502F648C54A
:1026980003F67B0E0501BD6F230EBE6F620EBF6F82
:1026A800FF0EC06F00C6C1F501C6C2F502C6C3F56C
:1026B80003C6C4F559EC40F08A0EBD6F230EBE6FF9
:1026C800E50EBF6FF90EC06F0601FD510D0D000E2E
:1026D800F3240501C16F150EF420C26F59EC40F0C8
:1026E800F9C605F5FAC606F5000E06BEFF0E076E1A
:1026F800086E010EAEEC21F005C52CF506C52DF5CA
:1027080007C52EF508C52FF5000E306E000E316E88
:102718007A0E326E440E336E7AECFCF02CC504F659
:102728002DC505F62EC506F62FC507F6A80E050118
:10273800BD6F230EBE6F5C0EBF6FFF0EC06F04C669
:10274800C1F505C6C2F506C6C3F507C6C4F559ECFA
:1027580040F0B70EBD6F230EBE6FE50EBF6FF90ECA
:10276800C06F0601FC510D0D000EF3240501C16F69
:10277800130EF420C26F59EC40F0C60EBD6F230E45
:10278800BE6FC00EBF6FFF0EC06FF5C6C1F5F6C6AF
:10279800C2F559EC40F0110EBD6F240EBE6FBC0E91
:1027A800BF6FFF0EC06F0801F9510501C16FC26B01
:1027B800C1BFC20759EC40F0120059C966F55AC9A1
:1027C80067F55BC968F55CC969F545C566F546C531
:1027D80067F547C568F548C569F5810E496EFF0E6E
:1027E8004A6E66C54BF567C54CF568C54DF569C5B4
:1027F8004EF5180E05D0D8904E324D324C324B3231
:10280800E82EF9D74B5049240501646F000E4A2081
:10281800656F65BF0FD0655104E1170E645DD8A0E0
:1028280009D045C545F546C546F547C547F548C5E8
:1028380048F5120065BF5CD064C549F5FF0E4A6EC5
:10284800FF0E4B6E7F0E4C6E000E4D6E496601D02A
:1028580007D04D344D324C324B324A32492EF6D7DE
:102868004AC560F54BC561F54CC562F54DC563F5C4
:10287800050160516615496E615167154A6E6251CE
:1028880068154B6E635169154C6E49504A104B10D0
:102898004C10D8B4C6D766C549F567C54AF568C5AA
:1028A8004BF569C54CF5200E05D0D8904C324B320B
:1028B8004A324932E82EF9D74950D8B408D0605185
:1028C8006627615167236251682363516923601D3C
:1028D800496E611D4A6E621D4B6E631D4C6E4950F8
:1028E80066174A5067174B5068174C50691732D013
:1028F80066C549F567C54AF568C54BF569C54CF520
:10290800200E05D0D8904C324B324A324932E82E4C
:10291800F9D7496608D0000E666F000E676F000E83
:10292800686F000E16D0D8906635496E67354A6EC6
:1029380068354B6E69354C6E49504A104B104C1037
:10294800D8B408D0000E666F000E676F800E686FEF
:10295800BF0E696F66C545F567C546F568C547F595
:1029680069C548F51200BFD00801E105D8A41200D6
:10297800010E0701F46F000E0801E16F12000A0E44
:102988000601E36F020E0701F46F12000801E1511E
:10299800D8A403D0030E0701F46F000E0501BD6F24
:1029A8000B0EBE6F920EBF6FFD0EC06F0601E35196
:1029B8000501C16FC26BC1BFC20759EC40F0000EE0
:1029C800336E000E326E010E356E2C0E346E000E14
:1029D800366E0B0E376E010E386E310E396E010EE3
:1029E8003A6EDFECF9F00601E307E351800A7F0F46
:1029F800D8B01200040E0701F46F1200000E050192
:102A0800BD6F0B0EBE6F370EBF6FFB0EC06F59EC5C
:102A180040F0000E336E000E326E010E356E2C0E35
:102A2800346E000E366E0B0E376E010E386E000EC9
:102A3800396E010E3A6EDFECF9F0000E0701F46F03
:102A4800070EA6ECBDF01200000E056E000E066E15
:102A5800000EBAEC4AF0000E116E0A0E106E000E4F
:102A6800136E800E126E000E156EE50E146E000EBB
:102A7800176ECF0E166E5DEC30F0000E0501BD6FBF
:102A88000B0EBE6F1C0EBF6FFE0EC06F59EC40F0F0
:102A9800000E336E140E326E000E356E9C0E346EC0
:102AA800000E366E0B0E376E030E386E310E396E11
:102AB800000E3A6EDFECF9F0F40E0601376F820E65
:102AC800366F050EE82EFED7362FFCD7372FFAD7EC
:102AD800000E066E000E056E44EC47F0000EF8EC92
:102AE80035F0C39CFFD70701F451000AD8B43CD78E
:102AF800010AD8B444D7030AD8B448D7010AD8B4CD
:102B08007DD7070AD8A412009FD7ECEC4CF0366F9B
:102B1800080E3619D8B404D00B0E3619D8A41200F2
:102B2800000E0501BD6F0B0EBE6F580EBF6FFC0E79
:102B3800C06F59EC40F0000E336E000E326E010E7D
:102B4800356E2C0E346E000E366E0B0E376E010E7F
:102B5800386E310E396E010E3A6EDFECF9F0000E68
:102B68000601376F090E0601356F1E0E346FE40E2D
:102B7800E82EFED7342FFCD7352FFAD70000D2A481
:102B880020D0000E0501BD6F0B0EBE6F330EBF6F58
:102B9800FB0EC06F59EC40F0000E336E000E326E23
:102BA800010E356E2C0E346E000E366E0B0E376E1F
:102BB800010E386E000E396E010E3A6EDFECF9F038
:102BC80012000601372B090E3765CCD71FEC46F0EB
:102BD800000E016F000E006F000E026F000E036FF3
:102BE800000E046F000E056F000E066F000E076FD3
:102BF800000E086F000E096F000E0A6F010E0B6FB2
:102C080059ECC8F0C2EC1DF0000E0501BD6F0B0EAB
:102C1800BE6F450EBF6FFC0EC06F59EC40F0000E42
:102C2800336E000E326E010E356E2C0E346E000EB1
:102C3800366E0B0E376E010E386E310E396E010E80
:102C48003A6EDFECF9F0520E0601356F2B0E346F39
:102C5800000EE82EFED7342FFCD7352FFAD7000008
:102C6800000E0501BD6F0B0EBE6F330EBF6FFB0E5E
:102C7800C06F59EC40F0000E336E000E326E010E3C
:102C8800356E2C0E346E000E366E0B0E376E010E3E
:102C9800386E000E396E010E3A6EDFECF9F0D2B4E0
:102CA8001200FDD70601116FB0D0F051F15DD8A028
:102CB8001200020EEE6F1200000E0601126F125182
:102CC800040D370EF324D96E090EF420DA6EDEC433
:102CD80005F5DEC406F5DEC407F5DEC408F5070110
:102CE800F251096E0A6A0B6A0C6ACDEC2EF00601E5
:102CF8001251220D200EF324D96E0E0EF420DA6E36
:102D080005C5DEF406C5DDF41251040D360EF324B4
:102D1800D96E0A0EF420DA6EDEC405F5DEC406F5B7
:102D2800DEC407F5DEC408F50701F251096E0A6A28
:102D38000B6A0C6ACDEC2EF006011251220D200E02
:102D4800F324D96E0F0EF420DA6E05C5DEF406C53D
:102D5800DDF4122B020E1265B2D7030E0701EE6FD7
:102D68001200000E0601076F100E53ECCDF000099B
:102D7800D8A41200040E0701EE6F12000601110517
:102D8800D8A404D0050E0701EE6F1200060E070145
:102D9800EE6F1200000E0601006F000E016F000EAC
:102DA800026F000E036F000E046F000E056F100E09
:102DB80020ECC3F00009D8A41200E8D7000E0601E1
:102DC800126F1251040D370EF324D96E090EF42038
:102DD800DA6EDE6ADE6ADE6ADD6A1251040D360ECC
:102DE800F324D96E0A0EF420DA6EDE6ADE6ADE6A31
:102DF800DD6A122B020E1265E4D7000E0701F26F8E
:102E0800000EF16F000EEE6F12000701EE51000A7E
:102E1800D8B44BD7010AD8B448D7030AD8B44CD78A
:102E2800010AD8B49ED7070AD8B4A8D7010AD8B4DB
:102E3800B1D7030AD8A41200C1D717501B5C136E70
:102E480018501C58146E9EEC48F013C51FF514C595
:102E580020F519501D5C136E1A501E58146E9EEC06
:102E680048F013501F5C2050800A216E1450800ACD
:102E78002158D8B002D0010E01D0000E2A6E2A5077
:102E8800D8B418D017C52FF518C530F519C517F5DA
:102E98001AC518F52FC519F530C51AF51BC52FF534
:102EA8001CC530F51DC51BF51EC51CF52FC51DF528
:102EB80030C51EF517501B5C18501C58D8B018D0D8
:102EC80017C52FF518C530F51BC517F51CC518F51E
:102ED8002FC51BF530C51CF519C52FF51AC530F5DA
:102EE8001DC519F51EC51AF52FC51DF530C51EF5EA
:102EF80017501B5C286E18501C58296E19501D5C01
:102F0800136E1A501E58146E9EEC48F013C522F525
:102F180014C523F5000E276E000E266E19C52DF573
:102F28001AC52EF51D50195C1E501A58D8B005D078
:102F3800000E256E010E246E02D02468256817C580
:102F48002BF518C52CF539D02A50D8B40BD02DC57F
:102F580010F52EC511F52BC512F52CC513F50BEC84
:102F68003FF00AD02BC510F52CC511F52DC512F56B
:102F78002EC513F50BEC3FF02250262623502722AE
:102F880026C51FF527C520F5D8901F3620362850AE
:102F98001F5C2050800A216E2950800A2158D8A031
:102FA8000AD024502D242D6E25502E202E6E285008
:102FB800265E2950275A2B4A2C2A2B501B5C2C5052
:102FC8001C58D8A01200C0D70D6F030E060100616F
:102FD80003D00D070C0E0027010E086E900E076E29
:102FE8000DC605F5066A50EC3AF00DC602F6060164
:102FF800D8900233D890023302510DC603F6046B01
:103008000327000E042305500325056F06500421ED
:10301800066F000E086E050E076E00510D0DF3C405
:1030280007F6F4C408F6080E0725056E000E0821F9
:10303800066E50EC3AF0055006010525096F06505A
:1030480006210A6F01510927000E0A23640E056E36
:103058000D5138EC44F006010B6F0B51095D0D6EF4
:103068000A51D8A00A050E6E000E106E070E0F6EDC
:10307800B3EC3CF00D5006010C6F54D0E60E050180
:10308800BD6F080EBE6FDC0EBF6FFF0EC06F59EC30
:1030980040F05ED0E60E0501BD6F080EBE6FD80E7B
:1030A800BF6FFF0EC06F59EC40F052D0E60E05011D
:1030B800BD6F080EBE6FD00EBF6FFF0EC06F59EC0C
:1030C80040F046D0E60E0501BD6F080EBE6FCC0E6F
:1030D800BF6FFF0EC06F59EC40F03AD0E60E050105
:1030E800BD6F080EBE6FE40EBF6FFF0EC06F59ECC8
:1030F80040F02ED0E60E0501BD6F080EBE6FD40E4F
:10310800BF6FFF0EC06F59EC40F022D0E60E0501EC
:10311800BD6F080EBE6FE00EBF6FFF0EC06F59EC9B
:1031280040F016D00C51000AD8B4A8D7010AD8B478
:10313800B1D7030AD8B4BAD7010AD8B4C3D7070A93
:10314800D8B4CCD7010AD8B4D5D7030AD8B4DED7B7
:1031580006010C511200020E0601396F580E386F25
:10316800C392C394010E0701F66F000E056E000EA0
:10317800066E000EBAEC4AF0000E116E0A0E106EC2
:10318800000E136E800E126E000E156EE50E146E94
:10319800000E176ECF0E166E5DEC30F0000E0501B6
:1031A800BD6F0B0EBE6F350EBF6FFE0EC06F59ECB4
:1031B80040F0000E336E140E326E000E356E880E1F
:1031C800346E000E366E0B0E376E030E386E310EEF
:1031D800396E000E3A6EDFECF9F0000E0501BD6F96
:1031E8000B0EBE6F570EBF6FFE0EC06F38C605F5CB
:1031F80039C606F5000E086E0A0E076EB9EC3FF0E8
:1032080005C5C1F506C5C2F559EC40F0000E336E90
:10321800460E326E000E356EB40E346E000E366EEB
:103228000B0E376E020E386E3C0E396E010E3A6E7A
:10323800DFECF9F0000E8DEC03F0000E8BECD6F00D
:10324800000E3AEC01F0070E0601376F7F0E366F5D
:103258004F0EE82EFED7362FFCD7372FFAD700D0DF
:103268000601E105D8B402D0D0BA07D0000E070194
:10327800F66F000E0601E16F09D03807D8A03907AC
:103288003951ABE1070E385DD8B0A7D70701F6056D
:10329800D8A405D0000EF8EC35F0C39CFFD7000E7B
:1032A800056E000E066E000EBAEC4AF0000E116EA6
:1032B800000E106E000E136E780E126E000E156E54
:1032C800EF0E146E010E176E080E166E5DEC30F0E0
:1032D80070EC49F0070EA6ECBDF0A6EC35F0120034
:1032E800000E4F6E500E4E6E000E4D6EB40E4C6EAC
:1032F800000E4B6EF00E4A6E9EEC45F0800E056E89
:10330800800E066E800EBAEC4AF0000E156E780E2E
:10331800146E000E176E360E166E000E196E780EAD
:10332800186E010E1B6E120E1A6E82EC39F0000E2A
:10333800156E000E146E000E176EA00E166E000E9F
:10334800196EF00E186E000E1B6EA00E1A6E82EC2F
:1033580039F0400E056E400E066E400EBAEC4AF08B
:10336800000E156E3C0E146E000E176E500E166E83
:10337800000E196EB40E186E000E1B6EF00E1A6E4B
:1033880082EC39F0000E156E5A0E146E000E176E90
:10339800780E166E000E196E960E186E000E1B6EC5
:1033A800C80E1A6E82EC39F0000E336E900E326E33
:1033B800000E356E4D0E346EC40E366EFF0E376E2F
:1033C800010E386E3F0E396E010E3A6EDFECF9F0E1
:1033D800000E336EAE0E326E000E356E4D0E346E2C
:1033E800270E366EFF0E376E010E386E3F0E396EA1
:1033F800010E3A6EDFECF9F0000E336E300E326ECD
:10340800000E356E750E346EC80E366EFF0E376EB2
:10341800010E386E3F0E396E010E3A6EDFECF9F090
:10342800000E336E300E326E000E356E4D0E346E59
:103438002E0E366EFF0E376E010E386E3F0E396E49
:10344800010E3A6EDFECF9F0000E0701DB6F780E23
:10345800DA6F000ED96FA00ED86F1200000E066E3C
:10346800010E056E8AEC4AF00601006F000E066E2A
:10347800020E056E8AEC4AF00601016F000E066E18
:10348800030E056E8AEC4AF00601026F000E066E06
:10349800040E056E8AEC4AF006010A6F000E066EED
:1034A800050E056E8AEC4AF00009D8B402D0010E68
:1034B80001D0000E0601DD6F030E0C6E060E0D6EB8
:1034C8007EEC4AF0060100510919D8A411D0015127
:1034D8000819D8A40DD002510719D8A409D0DD05C0
:1034E800D8A408D00A2B5A0E0A6504D05A0E01D067
:1034F800410E0A6FC30E0501BD6F0A0EBE6F970E0F
:10350800BF6FFB0EC06F09C6C1F5C26B08C6C3F515
:10351800C46B07C6C5F5C66B0AC6C7F5C86B59ECB8
:1035280040F0B40EBD6F0A0EBE6FAB0EBF6FFB0E40
:10353800C06F09C6C1F5C26B08C6C3F5C46B07C620
:10354800C5F5C66B0AC6C7F5C86B59EC40F0A50EA1
:10355800BD6F0A0EBE6FBF0EBF6FFB0EC06F09C6F0
:10356800C1F5C26B08C6C3F5C46B07C6C5F5C66B03
:103578000AC6C7F5C86B59EC40F0000E0601DD6FAE
:10358800000E066E010E056E09C607F515EC42F031
:10359800000E066E020E056E08C607F515EC42F021
:1035A800000E066E030E056E07C607F515EC42F011
:1035B800000E066E040E056E0AC607F515EC42F0FD
:1035C800000E066E050E056EDDC607F515EC42F019
:1035D8001200000E576E20EE03F06251D926635197
:1035E800DA22DF50D8B4ABD0330E62254F6E000E0E
:1035F8006321506E20EE2FF06251D9266351DA22F2
:10360800DEC451F5DEC452F5DEC453F5DEC454F50C
:10361800000E566E010E556E20EE01F06251D9264D
:103628006351DA22DF50A6EC40F00009D8A485D017
:1036380020EE03F06251D9266351DA22DF6A20EEC8
:103648001BF06251D9266351DA2210EE23F0625141
:10365800E1266351E222E6C468F5E6C469F5E6C4EA
:103668006AF5E6C46BF510EE2FF06251E12663515E
:10367800E222E6C46CF5E6C46DF5E6C46EF5E6C470
:103688006FF568516C5D706F69516D59716F6A5152
:103698006E59726F6B516F59736FDE50705DDE50EB
:1036A8007159DE507259DE507359D8B048D020EEA7
:1036B80002F06251D9266351DA22020EDE18D8A42C
:1036C8003ED0330E62254F6E000E6321506E20EE01
:1036D8001BF06251D9266351DA22DEC464F5DEC4D8
:1036E80065F5DEC466F5DEC467F520EE2FF062519D
:1036F800D9266351DA22DEC468F5DEC469F5DEC472
:103708006AF5DEC46BF564516825516E655169210F
:10371800526E66516A21536E67516B21546E000ECA
:10372800566E010E556E20EE01F06251D926635196
:10373800DA22DF50A6EC40F002D0010E576E575047
:103748001200116E020E0B6402D0020E0B6E000EF8
:10375800186E050E18601CD01150050DA90EF32423
:103768000D6EEF0EF4200E6E18500D26000E0E2270
:10377800600E0D240F6EFF0E0E20106E0FC5F6F4AE
:1037880010C5F7F4000EF86E0800F5C414F502D061
:10379800000E146E000E176E000E166E7CD0000E12
:1037A800156E74D017500B02F3C40DF5F4C40EF562
:1037B80016500D24056E000E0E20066E0B50060DD9
:1037C800F3C407F5F4C408F5ECEC48F018500B0204
:1037D800F3C40FF5F4C410F515500F26000E10228F
:1037E80005500F24126E06501020136E12C505F5F1
:1037F80013C506F5000E086E030E076EECEC48F0D4
:1038080005C519F506C51AF50C04D8A404D0800E10
:103818001926020E1A2217C50DF514C50EF50D2A24
:1038280002D0D8900E320D2EFCD70EA019D0CC0E97
:103838001924D96E190E1A20DA6EFCC7DFF4CD0EE2
:103848001924D96E190E1A20DA6EFDC7DFF4CE0ED0
:103858001924D96E190E1A20DA6EFEC7DFF415D0B6
:10386800CC0E1924D96E190E1A20DA6EDF6ACD0E25
:103878001924D96E190E1A20DA6EDF6ACE0E1924B1
:10388800D96E190E1A20DA6EDF6A152A0B50155CEC
:10389800D8A088D7162A0B50165CD8A080D7172A2C
:1038A800070E176479D7182A050E186452D7120024
:1038B800576E020E0501BD6F240EBE6F390EBF6F25
:1038C800FB0EC06F59EC40F05750D8A40BD0000E37
:1038D800BD6F0B0EBE6FA60EBF6FFE0EC06F59EC0C
:1038E80040F087D05850330DF20EF324D96E150EE0
:1038F800F420DA6EDEC405F5DEC406F5DEC407F58D
:10390800DEC408F5000E096E000E0A6E000E0B6E7E
:10391800000E0C6EC7EC39F0D8A00ED0000E0501D1
:10392800BD6F0B0EBE6FA60EBF6FFE0EC06F59ECBB
:1039380040F0300E576E5DD0000E2C6E3C0E2D6E92
:103948001C0E2E6E460E2F6E5850330DF20EF324B9
:10395800D96E150EF420DA6EDEC430F5DEC431F50A
:10396800DEC432F5DEC433F597EC2DF0D8B00CD0B8
:10397800000E0501BD6F0B0EBE6FAF0EBF6FFE0EC2
:10398800C06F59EC40F0D5D7000E0501BD6F0B0E86
:10399800BE6F620EBF6FFF0EC06F5850330DF20E30
:1039A800F324D96E150EF420DA6EDEC4C1F5DEC438
:1039B800C2F5DEC4C3F5DEC4C4F559EC40F0020E0E
:1039C800BD6F240EBE6F200EBF6FFF0EC06F585024
:1039D800330DF20EF324D96E150EF420DA6EDEC420
:1039E800C1F5DEC4C2F5DEC4C3F5DEC4C4F559ECC6
:1039F80040F0000E336EA20E326E000E356E280EA9
:103A0800346E000E366E0B0E376E010E386E57C5CB
:103A180039F5010E3A6EDFECF9F01200576EF30E2D
:103A28000501BD6F230EBE6F3C0EBF6FFB0EC06F4E
:103A380059EC40F00F0E0601DA19D8B402D0000E86
:103A4800576E5750D8A40CD0000E0501BD6F0B0E51
:103A5800BE6F120EBF6FFF0EC06F59EC40F079D0E9
:103A68005850330DDE0EF324D96E150EF420DA6E9D
:103A7800DE50DE10DE10DE10D8A40ED0000E0501D8
:103A8800BD6F0B0EBE6F190EBF6FFF0EC06F59ECE6
:103A980040F0300E576E5DD0000E2C6EC00E2D6EAD
:103AA800790E2E6E440E2F6E5850330DE60EF32409
:103AB800D96E150EF420DA6EDEC430F5DEC431F5A9
:103AC800DEC432F5DEC433F597EC2DF0D8B00CD057
:103AD800000E0501BD6F0B0EBE6FB10EBF6FFE0E5F
:103AE800C06F59EC40F0D5D7000E0501BD6F0B0E25
:103AF800BE6F500EBF6FFF0EC06F5850330DE60EED
:103B0800F324D96E150EF420DA6EDEC4C1F5DEC4D6
:103B1800C2F5DEC4C3F5DEC4C4F559EC40F0F30EBB
:103B2800BD6F230EBE6F860EBF6FFF0EC06F58505D
:103B3800330DE60EF324D96E150EF420DA6EDEC4CA
:103B4800C1F5DEC4C2F5DEC4C3F5DEC4C4F559EC64
:103B580040F0000E336EAE0E326E000E356E1E0E45
:103B6800346E000E366E0B0E376E010E386E57C56A
:103B780039F5010E3A6EDFECF9F0120022EE7AF216
:103B880011EE23F20F0EDBC4E3F4E806FCE284EC4A
:103B980045F0FF0E056EFF0E066EFF0EBAEC4AF0FA
:103BA800000E116E410E106E000E136E4E0E126E48
:103BB800000E156EAE0E146E000E176EE90E166E20
:103BC8005DEC30F0800E056E800E066E800EBAEC4D
:103BD8004AF0000E156E780E146E000E176E360E33
:103BE800166E000E196E780E186E010E1B6E120EF0
:103BF8001A6E82EC39F0000E156E000E146E000E6F
:103C0800176EA00E166E000E196EF00E186E000ECE
:103C18001B6EA00E1A6E82EC39F0000E0601336F8F
:103C2800000E056E000E066E000EBAEC4AF0000E8D
:103C3800156E780E146E000E176EA00E166E060125
:103C48003351020D230EF324D96E060EF420DA6EDA
:103C5800DEC41FF6DDC420F6D8902031216F1F3155
:103C6800186E21C619F5B3EC0EF00601332B070EBA
:103C78003365D6D7000E336E760E326E000E356E73
:103C88009C0E346E330E366EFD0E376E010E386E96
:103C9800000E396E000E3A6EDFECF9F0000E0601E8
:103CA800016F000E006F000E026F000E036F000E12
:103CB800046F000E056F000E066F000E076F000EF2
:103CC800086F000E096F010E0A6F000E0B6F59EC9A
:103CD800C8F00CEC3AF0E0EC2AF01200030E0601F2
:103CE800DA19D8A41200000E0501BD6F0B0EBE6FC5
:103CF800320EBF6FFC0EC06F59EC40F0000E336EF1
:103D0800000E326E010E356E2C0E346E000E366EBD
:103D18000B0E376E010E386E310E396E010E3A6E8B
:103D2800DFECF9F0000E576E090E0601176F1E0E34
:103D3800166FE40EE82EFED7162FFCD7172FFAD7EA
:103D48000000D2A420D0000E0501BD6F0B0EBE6F7F
:103D5800330EBF6FFB0EC06F59EC40F0000E336E90
:103D6800000E326E010E356E2C0E346E000E366E5D
:103D78000B0E376E010E386E000E396E010E3A6E5C
:103D8800DFECF9F01200572A090E5764CDD7010E5F
:103D9800B9ECBAF09EEC45F0000E0501BD6F0B0EB4
:103DA800BE6F450EBF6FFC0EC06F59EC40F0000EA1
:103DB800336E000E326E010E356E2C0E346E000E10
:103DC800366E0B0E376E010E386E310E396E010EDF
:103DD8003A6EDFECF9F0520E0601176F2B0E166FD4
:103DE800000EE82EFED7162FFCD7172FFAD70000A3
:103DF800000E0501BD6F0B0EBE6F330EBF6FFB0EBD
:103E0800C06F59EC40F0000E336E000E326E010E9A
:103E1800356E2C0E346E000E366E0B0E376E010E9C
:103E2800386E000E396E010E3A6EDFECF9F0D2B43E
:103E38001200FDD70601006FF1C901F6F2C902F6BA
:103E480006010005D8B41DD07BD0010EE26F000E2C
:103E58000501BD6F0B0EBE6FF90EBF6FFB0EC06F75
:103E680059EC40F014D0000EE26F000E0501BD6F52
:103E78000B0EBE6F1F0EBF6FFC0EC06F59EC40F0EB
:103E880006D0E251000AD8B4E0D7010AECD7000EF8
:103E9800066E000E056EE2C607F515EC42F0000E40
:103EA800336E000E326E010E356E2C0E346E000E1F
:103EB800366E0B0E376E010E386E310E396E010EEE
:103EC8003A6EDFECF9F03CD00C0E0701E86F010EFA
:103ED8000501BD6F060EBE6FFB0EBF6FFF0EC06FF4
:103EE80059EC40F0650EBD6F0A0EBE6F9D0EBF6F98
:103EF800FE0EC06F59EC40F02CD0000EE26F000EA1
:103F0800066E000E056EE2C607F515EC42F03E0E91
:103F18000701E86F010E0501BD6F060EBE6FFD0EAD
:103F2800BF6FFF0EC06F59EC40F0650EBD6F0A0EF3
:103F3800BE6FB80EBF6FFE0EC06F59EC40F009D0CF
:103F48000601E251000AD8B4E2D7010AD8B4BCD7B6
:103F5800D4D7000E336EE80E326E000E356E040EA6
:103F6800346E010E366E060E376E010E386E3C0E3C
:103F7800396E010E3A6EDFECF9F0D3B01200FDD7BE
:103F88000E680F6805C5D9F406C5DAF4DEC410F565
:103F9800DDC411F510C50CF511C50DF51050111043
:103FA800D8A403D00568066812000CC5F6F40DC540
:103FB800F7F4000EF86E240EF76403D00800F550ED
:103FC80005D0F6C4E9F4F7C4EAF4EF500B6E0C4AD6
:103FD8000D2A200E0B6404D03A0E0B18D8A4E5D78E
:103FE8003A0E0B18D8A46BD0000E0A6E010E096E9B
:103FF80010C5F6F411C5F7F4000EF86E240EF76438
:1040080003D00800F55005D0F6C4E9F4F7C4EAF483
:10401800EF50076E2F0E07643AD010C5F6F411C59D
:10402800F7F4000EF86E240EF76403D00800F5507C
:1040380005D0F6C4E9F4F7C4EAF4EF50076E3A0E77
:10404800076025D0020E1024076E000E1120086E9E
:104058000C5007181CE10D500818D8A418D010C52A
:10406800F6F411C5F7F4000EF86E240EF76403D0C9
:104078000800F55005D0F6C4E9F4F7C4EAF4EF50A7
:10408800076ED00E0724096E0A6AFF0E0A220ABEBE
:1040980005D00A500FE10904D8B00CD009C50EF5B7
:1040A8000AC50FF505C5D9F406C5DAF40CC5DEF462
:1040B8000DC5DDF40EC505F50FC506F51200000E99
:1040C800066E000E056E1200000EC26E110EC16E55
:1040D800000EBE6E100EC36E010EBF6EC00EC06E17
:1040E800060ECA6E010ECB6EC668F20EC76E260E9D
:1040F800C86E4A0EC96E000E0401186F020E106FCA
:10410800D00E086F020E206F000E286FC00E006FD1
:10411800000E196F010E296F040E216F300E096F02
:10412800300E016F3C0E116F000E0201896F000EF8
:10413800886F610E876F610E866F000E0401226F13
:10414800000E2A6F000E026F000E0A6F180E126F13
:10415800000E1A6F0369300E0B6FBF0E136F8F0EB0
:104168001B6F070E236FEF0E2B6F04690C69146920
:104178001C690F0E246F2C690799079B0689068B0B
:104188000599059B179516851595440E056E9A0E8B
:10419800066E000E076E25EC4CF0420E056E9A0E68
:1041A800066E000E076E33EC4CF0400E056E9A0E4C
:1041B800066E000E076E2CEC4CF09E8E1E0E020151
:1041C800746F370E146F380E156F020E656F030E7D
:1041D800666F130E716F170E206F2A0E1B6F0A0E73
:1041E8006A6F140E706F190E786F230E1E6F180EFB
:1041F8002C6F000E616F310E0B6F320E0C6F290E93
:10420800196F1B0E636F010E626F090E6B6F120040
:10421800C39A000E66EC2EF0910ED2EC4AF0000E16
:10422800D2EC4AF00C6E000ED2EC4AF00D6E0D5036
:104238000CC509F50A6A09C50AF5096A0926000EB6
:104248000A220A340A3209320A340A3209320A3492
:104258000A32093220EE02F00750D9260850DA2235
:1042680009C5DEF40AC5DDF4B10ED2EC4AF0000E41
:10427800D2EC4AF00C6E000ED2EC4AF00D6E0D50E6
:104288000CC509F50A6A09C50AF5096A0926000E66
:104298000A22070E0B6E0A340A3209320B2EFBD79C
:1042A80020EE04F00750D9260850DA2209C5DEF4BA
:1042B8000AC5DDF4C10ED2EC4AF0000ED2EC4AF089
:1042C8000C6E000ED2EC4AF00D6E0D500CC509F5BF
:1042D8000A6A09C50AF5096A0926000E0A22070EA4
:1042E8000B6E0A340A3209320B2EFBD720EE06F089
:1042F8000750D9260850DA2209C5DEF40AC5DDF4CC
:10430800D00ED2EC4AF0000ED2EC4AF00C6E000E41
:10431800D2EC4AF00D6E0D500CC509F50A6A09C5B4
:104328000AF5096A0926000E0A220A340A320932F5
:104338000A340A3209320A340A32093207C5D9F472
:1043480008C5DAF409C5DEF40AC5DDF4F8EC4CF06A
:10435800C38A12000D6E0D50D8A408AE1AD005C538
:1043680009F506C50AF507C50BF508C50CF5091EBC
:104378000A1E0B1E0C1E092A000E0A220B220C22F2
:1043880009C50FF50AC510F50BC511F50CC512F5D1
:1043980008D005C50FF506C510F507C511F508C500
:1043A80012F50550061007100810D8A409D0000E01
:1043B800056E000E066E000E076E000E086E1200E7
:1043C800960E0E6E06D00E2AD89012321132103286
:1043D8000F32000E0F14096E000E10140A6E000E34
:1043E80011140B6EFE0E12140C6E09500A100B10ED
:1043F8000C10D8B40DD0E7D70E2A010E0F26000EE8
:10440800102211221222D8901232113210320F3299
:10441800000E0F14096E000E10140A6E000E11140F
:104428000B6EFF0E12140C6E09500A100B100C10B4
:10443800D8B407D0E1D70E06D8900F36103611360B
:10444800123611BE03D0020E0E60F5D70EA0119ED3
:10445800D8900E320EC509F50A6A0B6A0C6A09C5AE
:104468000CF50B6A0A6A096A09500F120A501012F1
:104478000B5011120C5012120D50D8A408AE01D0D6
:10448800128E0FC505F510C506F511C507F512C53D
:1044980008F5120012C51AF513C51BF51A501B10A2
:1044A800D8A404D00B0E1A6EFF0E1B6E000E1D6EE4
:1044B800000E1C6E02D01C4A1D2A1C501A24146EB1
:1044C8001D501B20156E14C5F6F415C5F7F4000E23
:1044D800F86E240EF76403D00800F55005D0F6C432
:1044E800E9F4F7C4EAF4EF500009D8A4E4D70601C8
:1044F800CEBF0ED01C50CD5DCE51800A146E1D501B
:10450800800A1458D8B004D0CDC61CF5CEC61DF507
:104518001CC516F51DC517F5CBC618F5CCC619F57B
:10452800D6A10DD034D0000E086E200E076E10C52F
:1045380009F511C50AF548EC36F01C4A1D2A185031
:104548001C5C1D50800A146E1950800A1458D8B08B
:104558001ED0E9D71AC5F6F41BC5F7F4000EF86E9D
:10456800240EF76403D00800F55005D0F6C4E9F42A
:10457800F7C4EAF4EF50146E1450076E086A10C5B9
:1045880009F511C50AF548EC36F01A4A1B2A160631
:10459800D8A017061628DEE11728D8A4DBD706010D
:1045A800D6A112000CD0000E086E200E076E10C5A2
:1045B80009F511C50AF548EC36F01C4A1D2A1850B1
:1045C8001C5C1D50800A146E1950800A1458D8B00B
:1045D8001200E9D723AE02D0010E01D0000E2A6ED8
:1045E8000601CEAFD693CEAF05D0000E276E010ED2
:1045F800266E04D0CDC626F5CEC627F5CBC628F53F
:10460800CCC629F52A50D8B410D02806D8A0290637
:104618002A50D8A404D0000E256E2B0E03D0000E0D
:10462800256E2D0E246E24C52AF5000E2C6E4F0E15
:104638002B6E000E0C01CF6F30D02B06D8A02C06A5
:10464800800E2B24D96E0C0E2C20DA6E22C50DF5A7
:1046580023C50EF5000E106E0A0E0F6EB3EC3CF07B
:104668000DC513F50EC514F59EEC48F01350300F28
:10467800DF6E2606D8A027062806D8A0290622C558
:1046880005F523C506F5000E086E0A0E076E50ECF8
:104698003AF005C522F506C523F52CBE1AD02C50D4
:1046A80003E12B04D8A015D022502310D8A4C5D7D5
:1046B80027BE05D02750C1E12604D8B0BED729BEF1
:1046C80008D0295003E12804D8A003D00601D6B3A6
:1046D800B4D72A50D8B40BD02B06D8A02C06800EFD
:1046E8002B24D96E0C0E2C20DA6E2AC5DFF420C5D7
:1046F80017F521C518F5800E2B24196E0C0E2C20E9
:104708001A6E28C51BF529C51CF5CAEC3BF012002A
:104718000601E551D8A40AD050EC3BF00009D8B402
:1047280002D0040E1200010E0601E56FC30E436F9E
:104738000A0E446FA6EC33F00601456F4551D8B414
:1047480003D0060145511200000E0501BD6F0B0E86
:10475800BE6FB20EBF6FF80EC06F210EC16F230E71
:10476800C26F300EC36F230EC46F3F0EC56F230E8A
:10477800C66F4E0EC76F230EC86F5D0EC96F230E2E
:10478800CA6F6C0ECB6F230ECC6F7B0ECD6F230ED2
:10479800CE6F8A0ECF6F230ED06F990ED16F230E76
:1047A800D26FA80ED36F230ED46FB70ED56F230E1A
:1047B800D66FC60ED76F230ED86FD50ED96F230EBE
:1047C800DA6FE40EDB6F230EDC6FF30EDD6F230E62
:1047D800DE6F020EDF6F240EE06F110EE16F240E04
:1047E800E26F200EE36F240EE46F2F0EE56F240EA8
:1047F800E66F3E0EE76F240EE86F5C0EE96F240E3D
:10480800EA6F4D0EEB6F240EEC6F7A0EED6F240EEF
:10481800EE6F890EEF6F240EF06F59EC40F006EC46
:1048280046F062EC48F00601DD51D8A48AD7010EA3
:10483800DD6F000E066E050E056EDDC607F515EC7C
:1048480042F07FD7D7C5D9F4D8C5DAF4DEC4DBF592
:10485800DDC4DCF5D7C599F5D8C59AF5000E9B6F70
:10486800000E9C6F000E9D6F000E9E6F6EECF8F0B0
:10487800DE6FDE51D8B403D00501DE511200DBC56E
:1048880074F5DCC575F520EE16F0D751D926D85148
:10489800DA22DEC476F5DEC477F5DEC478F5DEC448
:1048A80079F5FEEC33F0DE6FDE51D8A4E5D720EEC3
:1048B8001AF0D751D926D851DA22DEC4D9F5DDC489
:1048C800DAF5D9C5D9F4DAC5DAF4DF50DD6FDD5190
:1048D800D8A403D0040EDE6FCFD720EE04F0D75152
:1048E800D926D851DA2210EE1AF0D751E126D8513C
:1048F800E22200EE0BF0E650E926E550EA22EF50FE
:104908003F0BDF6E20EE1AF0D751D926D851DA22A4
:1049180010EE0BF0DE50E126DD50E222E7B61AD0A9
:1049280020EE1AF0D751D926D851DA22DEC405F57F
:10493800DDC406F51C0ED725076E000ED821086EBB
:10494800000E0A6E0B0E096E41EC3CF00550061085
:10495800D8B492D7D7C5BDF5D8C5BEF5000E0501A8
:10496800C06F000EBF6F0FECEFF0DE6FDE51D8A402
:1049780083D785D718C505F519C506F518C507F5F0
:1049880019C508F5ECEC48F005C527F506C528F566
:10499800296A2A6A1850165C2D6E195017582E6EFF
:1049A8006DD016502D5C056E17502E58066E165099
:1049B8002D5C076E17502E58086EECEC48F005C5B4
:1049C80023F506C524F5000E24BEFF0E256E266EBF
:1049D8001850145C2B6E195015582C6E3DD014507D
:1049E8002B5C056E15502C58066E14502B5C076E08
:1049F80015502C58086EECEC48F005C51FF506C597
:104A080020F5000E20BEFF0E216E226E23501F24BB
:104A18001A6E245020201B6E255021201C6E265013
:104A280022201D6E1A50275C1B5028581C502958EC
:104A38002A50800A1E6E1D50800A1E58D8A00AD01F
:104A48002BC510F52CC511F52DC512F52EC513F57E
:104A58000BEC3FF02B4A2C2A185014241A6E1950CC
:104A680015201B6E1A502B5C2C50800A1C6E1B5094
:104A7800800A1C58D8A0B3D72D4A2E2A18501624BD
:104A88001A6E195017201B6E1A502D5C2E50800A72
:104A98001C6E1B50800A1C58D8B0120082D774C5EF
:104AA80062F575C563F5EDEC1AF00009D8B402D0CB
:104AB800010E120074C511F575C512F576C513F50A
:104AC80077C514F578C515F579C516F5BEEC30F03F
:104AD80011C57EF512C57FF513C580F514C581F59E
:104AE800050120EE2FF07451D9267551DA227EC5C2
:104AF800DEF47FC5DEF480C5DEF481C5DEF4330E56
:104B08007425056E000E7521066E000E086E000EE7
:104B1800076E020E0A6E000E096E76EC48F0330E30
:104B280074257C6F000E75217D6F000E836F010E5A
:104B3800826F000E856F000E846F04D08251842727
:104B48008351852320EE09F07451D9267551DA2254
:104B5800DE50845DDE508559D8B020D07CC54FF535
:104B68007DC550F584517E25516E85517F21526E49
:104B7800000E8021536E000E8121546E82C555F5BA
:104B880083C556F520EE01F07451D9267551DA2205
:104B9800DF50A6EC40F00009D8B4D0D720EE09F0D9
:104BA8007451D9267551DA228451DE1804E18551F1
:104BB800DE18D8B402D0010E1200000E1200CEA6E4
:104BC8002FD0020E0601FB19D8A44BD0070E000106
:104BD800D56F800ED66F010E0601FB6F000E050122
:104BE800BD6F0B0EBE6FE60EBF6FFB0EC06F59ECAC
:104BF80040F0000E336E000E326E010E356E2C0E34
:104C0800346E000E366E0B0E376E010E386E310E96
:104C1800396E010E3A6EDFECF9F0E0EC2AF021D0A3
:104C28000601FB05D8B4D1A61CD0070E0001D56F2C
:104C3800000ED66F020E0601FB6F000E0501BD6F58
:104C48000B0EBE6F5B0EBF6FFB0EC06FF5EC4CF02A
:104C58000601366F36510501C16FC26B59EC40F041
:104C6800C8D7CEA004D00601366B362B02D0060179
:104C7800366BCEA203D0020E376F02D00601376B17
:104C8800CEA403D0040E386F02D00601386B0001A1
:104C9800D4B704D00601396B392B02D00601396B21
:104CA800D8903937D8903937D890393538113711E5
:104CB8003611DA6F0701FF510601DA19D8B412006C
:104CC800070EA6ECBDF0DAC6FFF7120020EE03F0DF
:104CD8007F51D9268051DA22DF6A20EE2FF07F51EA
:104CE800D9268051DA22FF0EDE6EFF0EDE6EFF0E31
:104CF800DE6EFF0EDD6E7FC574F580C575F581C566
:104D080076F582C577F583C578F584C579F5FEEC27
:104D180033F00009D8B402D0040E1200310E7F25FA
:104D2800056E020E8021066E55EC44F0550E0518EE
:104D380004E1AA0E0618D8B402D0030E1200050129
:104D480020EE33F07F51D9268051DA22E90EDE18A1
:104D5800D8B414D020EE33F07F51D9268051DA220E
:104D6800EB0EDE18D8B40AD020EE33F07F51D926E6
:104D78008051DA22E80EDE18D8A42BD0690E7F25E0
:104D8800056E000E8021066EE80E076EFF0E086E97
:104D9800000E0A6E030E096E41EC3CF00550061039
:104DA800D8A402D0000E1200850E05017F25056EDD
:104DB800000E8021066E920E076EFF0E086E000E22
:104DC8000A6E050E096E41EC3CF005500610D8B489
:104DD800E9D7020E1200FAC403F5FBC404F59FBA22
:104DE800AFAA02D0BBEC4CF09FBCAFAC02D0B3EC86
:104DF8004CF0A4B2B4A202D0D7EC4CF09EBAAEAA42
:104E080002D0DFEC4CF0AAB2BAA20DD001D80BD078
:104E18000500FA6E0901D151FD6ED251FE6ED351D3
:104E2800FF6EFA501200AAB0BAA00DD001D80BD06C
:104E38000500FA6E0901D451FD6ED551FE6ED651AA
:104E4800FF6EFA501200A3B8B3A802D083EC46F064
:104E5800A3BAB3AA02D038EC49F0A1B8B1A802D0DD
:104E68009CEC46F0A1BAB1AA02D04BEC49F0A5BA25
:104E7800B5AA02D0CFEC4CF0A7BAB7AA02D0C7ECBB
:104E88004CF0A1BEB1AE02D0A0EC47F09EBEAEAED3
:104E980002D0C6EC4AF0A6B2B6A20DD001D80BD00B
:104EA8000500FA6E0901CB51FD6ECC51FE6ECD5155
:104EB800FF6EFA501200A6B0B6A00DD001D80BD0E4
:104EC8000500FA6E0901CE51FD6ECF51FE6ED0512C
:104ED800FF6EFA50120004C5FBF403C5FAF4110082
:104EE800000E0F6E000E106E000E116E000E126E88
:104EF800000E0E6E1ED00E50020D220EF324D96E37
:104F08000E0EF420DA6EDEC405F5DDC406F505C51F
:104F180007F506C508F5000E08BEFF0E096E0A6EF5
:104F280007500F2608501022095011220A50122249
:104F38000E2A0701EF510E5CD8A0DDD77AC805F517
:104F48007BC806F5000E06BEFF0E076E086E040E3F
:104F5800096E0FC50AF510C50BF511C50CF512C57C
:104F68000DF5096601D007D00D340D320C320B3225
:104F78000A32092EF6D705500A5C0F6E06500B58F8
:104F8800106E07500C58116E08500D58126E560EC0
:104F98000F24056E000E1020066E000E1120076EFD
:104FA800000E1220086E08BE07D008500710061021
:104FB80006E10504D8B003D0C392C3841200AA0E38
:104FC8000F24056EFF0E1020066EFF0E1120076ECF
:104FD800FF0E1220086E08BE03D0C382C3941200CD
:104FE800C392C3941200D7C5D9F4D8C5DAF4DEC485
:104FF800DEF5DDC4DFF5D7C599F5D8C59AF5000EFD
:105008009B6F000E9C6F000E9D6F000E9E6F6EECE6
:10501800F8F0E26FE251D8A45BD0000EE16F000E09
:10502800E06FDEC574F5DFC575F520EE16F0D751D3
:10503800D926D851DA22DEC476F5DEC477F5DEC487
:1050480078F5DEC479F5FEEC33F0E26FE251D8A4CE
:105058003FD020EE1AF0D751D926D851DA22DEC433
:10506800DBF5DDC4DCF5DBC5D9F4DCC5DAF4E50E27
:10507800DE18D8B411D020EE1AF0D751D926D8515D
:10508800DA22DEC4DBF5DDC4DCF5DBC5D9F4DCC52A
:10509800DAF4DF50D8A40AD0E04BE12BD951E0195B
:1050A80009E1DA51E119D8B413D004D0000EE16F48
:1050B800000EE06FD7C5BDF5D8C5BEF5000EC06FB0
:1050C800010EBF6F0FECEFF0E26FE251D8B4A9D731
:1050D800040EE219D8A402D0070EE26FE2511200C2
:1050E800000E3E6E000E416E000E406E6ED0020E37
:1050F800436E000E426E000E446E020E456E000EA8
:10510800466E000E476E40C53CF541C53DF5090E9B
:10511800D8903C363D36E82EFBD73C503824486EB4
:105128003D503920496E405034244A6E4150352054
:105138004B6E000E36204C6E000E37204D6E010E61
:105148004E6E970EF66EEC0EF76E000EF86E01D8E6
:105158000DD00500FA6E0900F550FD6E0900F550F6
:10516800FE6E0900F550FF6EFA5012000009D8A42F
:1051780002D0000E1200C398420E256E050E266E50
:105188006DECC0F03F6E3F50D8A402D0010E04D0A1
:105198003F28D8A4F1D7000E3E6EC388940EF66E51
:1051A800EC0EF76E000EF86E01D80DD00500FA6E01
:1051B8000900F550FD6E0900F550FE6E0900F55026
:1051C800FF6EFA501200404A412A3A50405C3B5068
:1051D8004158D8A08CD73E501200000E3B6E000EEE
:1051E8003E6E000E3D6E6ED0020E406E000E3F6E9B
:1051F800000E416E020E426E000E436E000E446EAB
:105208003DC539F53EC53AF5090ED89039363A36D6
:10521800E82EFBD739503524456E3A503620466E75
:105228003D503124476E3E503220486E000E3320E8
:10523800496E000E34204A6E010E4B6E970EF66EC4
:10524800EC0EF76E000EF86E01D80DD00500FA6E60
:105258000900F550FD6E0900F550FE6E0900F55085
:10526800FF6EFA5012000009D8A402D0000E1200F6
:10527800C3983F0E256E050E266EFEECE9F03C6ED7
:105288003C50D8A402D0010E04D03C28D8A4F1D7B1
:10529800000E3B6EC388940EF66EEC0EF76E000E91
:1052A800F86E01D80DD00500FA6E0900F550FD6EB4
:1052B8000900F550FE6E0900F550FF6EFA50120015
:1052C8003D4A3E2A37503D5C38503E58D8A08CD7CE
:1052D8003B5012000BC50CF5D8900C320C50106ED8
:1052E800116A126A136A0AC50CF50D6A0E6A0F6A0A
:1052F800050ED8900C360D360E360F36E82EF9D737
:105308000C5010120D5011120E5012120F50131291
:1053180009C50CF50D6A0E6A0F6A0B0ED8900C368B
:105328000D360E360F36E82EF9D70C5010120D50E8
:1053380011120E5012120F50131208C50CF50D6AF7
:105348000E6A0F6A0DC50FF50CC50EF50D6A0C6ACD
:105358000C5010120D5011120E5012120F50131241
:1053680007C50CF50D6A0E6A0F6A150ED8900C3633
:105378000D360E360F36E82EF9D70C5010120D5098
:1053880011120E5012120F501312440E05240C6EF7
:10539800F80E06200D6E0E6A0F6A190ED8900C369C
:1053A8000D360E360F36E82EF9D70C5010120D5068
:1053B80011120E5012120F50131210C505F511C517
:1053C80006F512C507F513C508F512003E0E0501CE
:1053D800BD6F240EBE6F3D0EBF6FFB0EC06F59EC44
:1053E80040F00601055104E1020E045DD8A0120048
:1053F8000651D8A434D000C605F501C606F502C684
:1054080007F503C608F5000E096E000E0A6E000EB9
:105418000B6E000E0C6EC7EC39F0D8B01200000EFF
:105428000501BD6F0B0EBE6F330EBF6FFB0EC06F55
:1054380059EC40F0000E336E020E326E000E356EDF
:10544800320E346E000E366E0B0E376E020E386E4C
:1054580006C639F5010E3A6EDFECF9F01200000EBF
:105468000501BD6F0B0EBE6F6F0EBF6FFB0EC06FD9
:1054780000C6C1F501C6C2F502C6C3F503C6C4F528
:1054880004C6C5F505C6C6F559EC40F03E0EBD6F1D
:10549800240EBE6F620EBF6FFF0EC06F5850330DE3
:1054A800FE0EF324D96E150EF420DA6EDEC4C1F5B3
:1054B800DEC4C2F5DEC4C3F5DEC4C4F559EC40F061
:1054C800B9D7090E06019F6F1E0E9E6FE40EE82ED7
:1054D800FED79E2FFCD79F2FFAD70000020E05019A
:1054E800BD6FFE0EBE6FD9EC48F01E0E076E320E71
:1054F800F2EC40F006019E6F9EA338D0350E0501F0
:10550800BD6FFF0EBE6FD9EC48F01D0E076E000E82
:10551800086E320ECDEC46F01E0E076E000E086EB9
:10552800320ECDEC46F01F0E076E610E086E320E7D
:10553800CDEC46F0100E076EA00E086E060E096E32
:10554800070E0A6E320EF0EC3DF0520E06019F6F08
:105558002B0E9E6F000EE82EFED79E2FFCD79F2F96
:10556800FAD7000025EC9EF0010E12001D0E076E02
:10557800000E086E320ECDEC46F01E0E076E000EC1
:10558800086E320ECDEC46F01F0E076E600E086EE8
:10559800320ECDEC46F0EA0E056E960E066E000E43
:1055A800076E2CEC4CF0A20E0501BD6FFF0EBE6F0E
:1055B800D9EC48F0000E12005DEC4BF00009D8B4AD
:1055C80045D0020EFB19D8A407D0160E0501BD6FF1
:1055D800FA0EBE6FD9EC48F0000E0501C46F000E3C
:1055E800C56F000EC66F21D0FFEC42F00501C36FF6
:1055F800020E0601FB19D8A40AD06A0E0501BD6F78
:10560800F90EBE6FC3C5BFF5C06BD9EC48F0010EEB
:105618000501C427000EC523000EC623C651C511B7
:1056280009E1FB0EC45DD8B005D05DEC4BF0000974
:10563800D8A4DAD7020E0601FB19D8A407D0FF0EAA
:105648000501BD6FF90EBE6FD9EC48F055EC4BF073
:105658000009D8B40BD0020EFB19D8A407D0E80E65
:105668000501BD6FF90EBE6FD9EC48F0000E0501BB
:10567800C46F000EC56F000EC66F10D0DEEC42F08E
:10568800010E0501C427000EC523000EC623C6510E
:10569800C5110AE1FB0EC45DD8B0120055EC4BF001
:1056A8000009D8B41200EAD71200F30E0601006F01
:1056B800F50E016F0801FA51056E000E05BEFF0ECA
:1056C800066E076E086E010EAEEC21F005C502F6F7
:1056D80006C503F607C504F608C505F6F6EC38F066
:1056E800110E06010F6F3C0E0E6FCB0EE82EFED783
:1056F8000E2FFCD70F2FFAD7E30E0601006FF50E19
:10570800016F0801F951056E000E05BEFF0E066E09
:10571800076E086E010EAEEC21F005C502F606C54F
:1057280003F607C504F608C505F6F6EC38F0110EC1
:1057380006010F6F3C0E0E6FCB0EE82EFED70E2F14
:10574800FCD70F2FFAD7EC0E0601006FF50E016F8C
:10575800F7C805F5F8C806F5000E06BEFF0E076E79
:10576800086E010EAEEC21F005C502F606C503F67B
:1057780007C504F608C505F6F6EC38F0110E060163
:105788000F6F3C0E0E6FCB0EE82EFED70E2FFCD7F8
:105798000F2FFAD71FEC46F01200000E066E060E09
:1057A800056EFEC607F515EC42F0000E066E070EF4
:1057B800056EF7C607F515EC42F0000E066E080EEA
:1057C800056E0601F851076E15EC42F0000E066EE4
:1057D800090E056EFDC607F515EC42F0000E066EC3
:1057E8000A0E056EF9C607F515EC42F0000E066EB6
:1057F8000B0E056E0601FA51076E15EC42F0000E0D
:10580800066E0C0E056EFCC607F515EC42F0000E90
:10581800066E0D0E056EF5C607F515EC42F0000E86
:10582800066E0E0E056E0601F651076E15EC42F077
:10583800000E066E0F0E056EFBC807F515EC42F05C
:10584800000E066E100E056EFAC807F515EC42F04C
:10585800000E066E110E056EF9C807F515EC42F03C
:10586800000E066E120E056EF7C807F515EC42F02D
:10587800000E066E130E056E0801F851076E15EC42
:1058880042F009EC13F0120009500A10D8A416D0FF
:105898000601D551D8A407D084EC4BF006C510F505
:1058A80007C511F561D0D507AD0ED525D96EDA6AD1
:1058B800090EDA22DF500B6E0B5026D020EE08F0CE
:1058C8000950D9260A50DA22DE50DE10D8B41FD08B
:1058D80020EE08F00950D9260A50DA22DE06000E1A
:1058E800DD5ADEC40BF5DDC40CF50B5009240D6E32
:1058F8000C500A200E6E050E0D24D96E000E0E20D7
:10590800DA6EDF500F6E0F50106E116A2DD020EE38
:1059180003F00950D9260A50DA22DEC40BF5DDC49B
:105928000CF509C5D9F40AC5DAF4DEC40DF5DDC4F1
:105938000EF50B500D24D96E0C500E20DA6EDF5088
:105948000F6E0F50106E116A10501110D8A403D0AA
:105958001068116809D020EE03F00950D9260A50C2
:10596800DA22DE2A000EDD2210C509F511C50AF576
:1059780012000601CEAFD693CEAF05D0000E286E2A
:10598800010E276E04D0CDC627F5CEC628F5CBC6A6
:1059980029F5CCC62AF5000E2D6E4F0E2C6E000E82
:1059A8000C01CF6F2AD02C06D8A02D0622500F0B41
:1059B8002B6E0A0E2B6002D0300E01D0570E2B260C
:1059C800800E2C24D96E0C0E2D20DA6E2BC5DFF438
:1059D8002706D8A028062906D8A02A0622C524F515
:1059E80023C525F5040E266ED89025322432262E9E
:1059F800FBD724C522F525C523F52DBE1BD02D5078
:105A080004E1020E2C5CD8A015D022502310D8A493
:105A1800CAD728BE05D02850C6E12704D8B0C3D7B6
:105A28002ABE08D02A5003E12904D8A003D00601D1
:105A3800D6B3B9D720C517F521C518F5800E2C2483
:105A4800196E0C0E2D201A6E29C51BF52AC51CF5DA
:105A5800CAEC3BF0120064756D6D7920202020207F
:105A6800202000766663204D34304133202020000A
:105A780061726573204D34304136202000565352F0
:105A880031302D47202020202000565352313047F6
:105A98007374726F62650056535231302D50726FB5
:105AA800536E61004D616770756C50726F3730309E
:105AB80000414D4F4542412041532D30310076661B
:105AC80063204D3131302047424200766663204DD5
:105AD8003441312047424200766663204D323720F8
